{
  "contractName": "Contracts",
  "abi": [
    {
      "constant": true,
      "inputs": [
        {
          "name": "",
          "type": "uint256"
        }
      ],
      "name": "contractRates",
      "outputs": [
        {
          "name": "id",
          "type": "uint256"
        },
        {
          "name": "contractId",
          "type": "uint256"
        },
        {
          "name": "rateAddress",
          "type": "address"
        },
        {
          "name": "amount",
          "type": "uint256"
        },
        {
          "name": "approve",
          "type": "bool"
        }
      ],
      "payable": false,
      "stateMutability": "view",
      "type": "function"
    },
    {
      "constant": true,
      "inputs": [
        {
          "name": "",
          "type": "uint256"
        }
      ],
      "name": "contracts",
      "outputs": [
        {
          "name": "id",
          "type": "uint256"
        },
        {
          "name": "contractNum",
          "type": "string"
        },
        {
          "name": "description",
          "type": "string"
        },
        {
          "name": "timestamp",
          "type": "uint256"
        },
        {
          "name": "amount",
          "type": "uint256"
        },
        {
          "name": "contractAddress",
          "type": "address"
        },
        {
          "name": "closed",
          "type": "bool"
        }
      ],
      "payable": false,
      "stateMutability": "view",
      "type": "function"
    },
    {
      "constant": true,
      "inputs": [
        {
          "name": "",
          "type": "uint256"
        },
        {
          "name": "",
          "type": "uint256"
        }
      ],
      "name": "rates",
      "outputs": [
        {
          "name": "",
          "type": "uint256"
        }
      ],
      "payable": false,
      "stateMutability": "view",
      "type": "function"
    },
    {
      "constant": true,
      "inputs": [],
      "name": "rateCount",
      "outputs": [
        {
          "name": "",
          "type": "uint256"
        }
      ],
      "payable": false,
      "stateMutability": "view",
      "type": "function"
    },
    {
      "constant": true,
      "inputs": [
        {
          "name": "",
          "type": "address"
        }
      ],
      "name": "accounts",
      "outputs": [
        {
          "name": "accountAddress",
          "type": "address"
        },
        {
          "name": "email",
          "type": "string"
        }
      ],
      "payable": false,
      "stateMutability": "view",
      "type": "function"
    },
    {
      "constant": true,
      "inputs": [
        {
          "name": "",
          "type": "uint256"
        }
      ],
      "name": "contractRatesCnt",
      "outputs": [
        {
          "name": "",
          "type": "uint256"
        }
      ],
      "payable": false,
      "stateMutability": "view",
      "type": "function"
    },
    {
      "constant": true,
      "inputs": [],
      "name": "contractCount",
      "outputs": [
        {
          "name": "",
          "type": "uint256"
        }
      ],
      "payable": false,
      "stateMutability": "view",
      "type": "function"
    },
    {
      "constant": true,
      "inputs": [
        {
          "name": "",
          "type": "uint256"
        }
      ],
      "name": "isRatesContract",
      "outputs": [
        {
          "name": "",
          "type": "bool"
        }
      ],
      "payable": false,
      "stateMutability": "view",
      "type": "function"
    },
    {
      "inputs": [],
      "payable": false,
      "stateMutability": "nonpayable",
      "type": "constructor"
    },
    {
      "constant": false,
      "inputs": [
        {
          "name": "_contractNum",
          "type": "string"
        },
        {
          "name": "_description",
          "type": "string"
        },
        {
          "name": "_amount",
          "type": "uint256"
        }
      ],
      "name": "createContract",
      "outputs": [
        {
          "name": "contractId",
          "type": "uint256"
        }
      ],
      "payable": false,
      "stateMutability": "nonpayable",
      "type": "function"
    },
    {
      "constant": false,
      "inputs": [
        {
          "name": "_email",
          "type": "string"
        }
      ],
      "name": "setAccount",
      "outputs": [],
      "payable": false,
      "stateMutability": "nonpayable",
      "type": "function"
    },
    {
      "constant": false,
      "inputs": [
        {
          "name": "_contractId",
          "type": "uint256"
        },
        {
          "name": "_amount",
          "type": "uint256"
        }
      ],
      "name": "setContractRate",
      "outputs": [],
      "payable": false,
      "stateMutability": "nonpayable",
      "type": "function"
    },
    {
      "constant": false,
      "inputs": [
        {
          "name": "_contractId",
          "type": "uint256"
        },
        {
          "name": "_rateId",
          "type": "uint256"
        },
        {
          "name": "_rateRes",
          "type": "bool"
        }
      ],
      "name": "approveRate",
      "outputs": [],
      "payable": false,
      "stateMutability": "nonpayable",
      "type": "function"
    },
    {
      "constant": true,
      "inputs": [
        {
          "name": "_contractId",
          "type": "uint256"
        }
      ],
      "name": "getContractRateCount",
      "outputs": [
        {
          "name": "length",
          "type": "uint256"
        }
      ],
      "payable": false,
      "stateMutability": "view",
      "type": "function"
    },
    {
      "constant": true,
      "inputs": [
        {
          "name": "_contractId",
          "type": "uint256"
        },
        {
          "name": "index",
          "type": "uint256"
        }
      ],
      "name": "getContractRateAtIndex",
      "outputs": [
        {
          "name": "id",
          "type": "uint256"
        },
        {
          "name": "contractId",
          "type": "uint256"
        },
        {
          "name": "rateAddress",
          "type": "address"
        },
        {
          "name": "amount",
          "type": "uint256"
        },
        {
          "name": "approve",
          "type": "bool"
        }
      ],
      "payable": false,
      "stateMutability": "view",
      "type": "function"
    },
    {
      "constant": true,
      "inputs": [
        {
          "name": "idx",
          "type": "uint256"
        }
      ],
      "name": "getContract",
      "outputs": [
        {
          "name": "",
          "type": "string"
        },
        {
          "name": "",
          "type": "string"
        },
        {
          "name": "",
          "type": "uint256"
        },
        {
          "name": "",
          "type": "uint256"
        },
        {
          "name": "",
          "type": "address"
        }
      ],
      "payable": false,
      "stateMutability": "view",
      "type": "function"
    },
    {
      "constant": true,
      "inputs": [],
      "name": "getContractCount",
      "outputs": [
        {
          "name": "",
          "type": "uint256"
        }
      ],
      "payable": false,
      "stateMutability": "view",
      "type": "function"
    },
    {
      "constant": false,
      "inputs": [
        {
          "name": "idx",
          "type": "uint256"
        },
        {
          "name": "_contractNum",
          "type": "string"
        },
        {
          "name": "_description",
          "type": "string"
        },
        {
          "name": "_amount",
          "type": "uint256"
        },
        {
          "name": "_closed",
          "type": "bool"
        }
      ],
      "name": "updateContract",
      "outputs": [
        {
          "name": "",
          "type": "bool"
        }
      ],
      "payable": false,
      "stateMutability": "nonpayable",
      "type": "function"
    }
  ],
  "bytecode": "0x60806040523480156200001157600080fd5b50336000806101000a81548173ffffffffffffffffffffffffffffffffffffffff021916908373ffffffffffffffffffffffffffffffffffffffff160217905550620000d96040805190810160405280600481526020017f30303031000000000000000000000000000000000000000000000000000000008152506040805190810160405280601d81526020017fd0bfd0b5d180d0b2d18bd0b920d0bad0bed0bdd182d180d0b0d0bad1820000008152506064620001c1640100000000026401000000009004565b50620001626040805190810160405280600481526020017f30303032000000000000000000000000000000000000000000000000000000008152506040805190810160405280601d81526020017fd0b2d182d0bed180d0bed0b920d0bad0bed0bdd182d180d0b0d0bad18200000081525061012c620001c1640100000000026401000000009004565b50620001806001606e620003cc640100000000026401000000009004565b6200019d60016078620003cc640100000000026401000000009004565b620001bb6002610136620003cc640100000000026401000000009004565b62000791565b60008060076000815480929190600101919050555060016000600754815260200190815260200160002090506007548160000181905550848160010190805190602001906200021292919062000654565b50838160020190805190602001906200022d92919062000654565b5042816003018190555082816004018190555060008160050160146101000a81548160ff021916908315150217905550338160050160006101000a81548173ffffffffffffffffffffffffffffffffffffffff021916908373ffffffffffffffffffffffffffffffffffffffff160217905550806001600060075481526020019081526020016000206000820154816000015560018201816001019080546001816001161561010002031660029004620002e9929190620006db565b506002820181600201908054600181600116156101000203166002900462000313929190620006db565b5060038201548160030155600482015481600401556005820160009054906101000a900473ffffffffffffffffffffffffffffffffffffffff168160050160006101000a81548173ffffffffffffffffffffffffffffffffffffffff021916908373ffffffffffffffffffffffffffffffffffffffff1602179055506005820160149054906101000a900460ff168160050160146101000a81548160ff0219169083151502179055509050506007549150509392505050565b6000600754831115151562000449576040517f08c379a00000000000000000000000000000000000000000000000000000000081526004018080602001828103825260128152602001807f4e6f7420666f756e6420636f6e7472616374000000000000000000000000000081525060200191505060405180910390fd5b6008600081548092919060010191905055506004600060085481526020019081526020016000209050828160010181905550818160030181905550338160020160006101000a81548173ffffffffffffffffffffffffffffffffffffffff021916908373ffffffffffffffffffffffffffffffffffffffff1602179055506005600084815260200190815260200160002060009054906101000a900460ff161515620006225760066000848152602001908152602001600020600081548092919060010191905055506003600084815260200190815260200160002060085490806001815401808255809150509060018203906000526020600020016000909192909190915055508060046000600854815260200190815260200160002060008201548160000155600182015481600101556002820160009054906101000a900473ffffffffffffffffffffffffffffffffffffffff168160020160006101000a81548173ffffffffffffffffffffffffffffffffffffffff021916908373ffffffffffffffffffffffffffffffffffffffff160217905550600382015481600301556004820160009054906101000a900460ff168160040160006101000a81548160ff0219169083151502179055509050506200064f565b60016005600085815260200190815260200160002060006101000a81548160ff0219169083151502179055505b505050565b828054600181600116156101000203166002900490600052602060002090601f016020900481019282601f106200069757805160ff1916838001178555620006c8565b82800160010185558215620006c8579182015b82811115620006c7578251825591602001919060010190620006aa565b5b509050620006d7919062000769565b5090565b828054600181600116156101000203166002900490600052602060002090601f016020900481019282601f1062000716578054855562000756565b828001600101855582156200075657600052602060002091601f016020900482015b828111156200075557825482559160010191906001019062000738565b5b50905062000765919062000769565b5090565b6200078e91905b808211156200078a57600081600090555060010162000770565b5090565b90565b611bd980620007a16000396000f3006080604052600436106100f0576000357c0100000000000000000000000000000000000000000000000000000000900463ffffffff1680620fd170146100f557806317601f82146101c25780631b75ea8e14610259578063474da79a146102e65780634d56cf391461044b57806359b31abf1461048e5780635a95cf49146104d95780635e5c06e2146105045780636ebc8c86146105f357806371f587c814610746578063762d3f0c146107875780638736381a146107f05780639399869d1461081b57806398d44b8214610846578063c5c8084214610887578063ca735dcc146108be578063ea8c69d3146109a5575b600080fd5b34801561010157600080fd5b506101ac600480360381019080803590602001908201803590602001908080601f0160208091040260200160405190810160405280939291908181526020018383808284378201915050505050509192919290803590602001908201803590602001908080601f0160208091040260200160405190810160405280939291908181526020018383808284378201915050505050509192919290803590602001909291905050506109ea565b6040518082815260200191505060405180910390f35b3480156101ce57600080fd5b506101f76004803603810190808035906020019092919080359060200190929190505050610bed565b604051808681526020018581526020018473ffffffffffffffffffffffffffffffffffffffff1673ffffffffffffffffffffffffffffffffffffffff168152602001838152602001821515151581526020019550505050505060405180910390f35b34801561026557600080fd5b5061028460048036038101908080359060200190929190505050610c96565b604051808681526020018581526020018473ffffffffffffffffffffffffffffffffffffffff1673ffffffffffffffffffffffffffffffffffffffff168152602001838152602001821515151581526020019550505050505060405180910390f35b3480156102f257600080fd5b5061031160048036038101908080359060200190929190505050610cf9565b6040518088815260200180602001806020018781526020018681526020018573ffffffffffffffffffffffffffffffffffffffff1673ffffffffffffffffffffffffffffffffffffffff16815260200184151515158152602001838103835289818151815260200191508051906020019080838360005b838110156103a3578082015181840152602081019050610388565b50505050905090810190601f1680156103d05780820380516001836020036101000a031916815260200191505b50838103825288818151815260200191508051906020019080838360005b838110156104095780820151818401526020810190506103ee565b50505050905090810190601f1680156104365780820380516001836020036101000a031916815260200191505b50995050505050505050505060405180910390f35b34801561045757600080fd5b5061048c6004803603810190808035906020019092919080359060200190929190803515159060200190929190505050610e98565b005b34801561049a57600080fd5b506104c360048036038101908080359060200190929190803590602001909291905050506111dc565b6040518082815260200191505060405180910390f35b3480156104e557600080fd5b506104ee61120c565b6040518082815260200191505060405180910390f35b34801561051057600080fd5b50610545600480360381019080803573ffffffffffffffffffffffffffffffffffffffff169060200190929190505050611212565b604051808373ffffffffffffffffffffffffffffffffffffffff1673ffffffffffffffffffffffffffffffffffffffff16815260200180602001828103825283818151815260200191508051906020019080838360005b838110156105b757808201518184015260208101905061059c565b50505050905090810190601f1680156105e45780820380516001836020036101000a031916815260200191505b50935050505060405180910390f35b3480156105ff57600080fd5b5061061e600480360381019080803590602001909291905050506112ee565b6040518080602001806020018681526020018581526020018473ffffffffffffffffffffffffffffffffffffffff1673ffffffffffffffffffffffffffffffffffffffff168152602001838103835288818151815260200191508051906020019080838360005b838110156106a0578082015181840152602081019050610685565b50505050905090810190601f1680156106cd5780820380516001836020036101000a031916815260200191505b50838103825287818151815260200191508051906020019080838360005b838110156107065780820151818401526020810190506106eb565b50505050905090810190601f1680156107335780820380516001836020036101000a031916815260200191505b5097505050505050505060405180910390f35b34801561075257600080fd5b50610771600480360381019080803590602001909291905050506114d2565b6040518082815260200191505060405180910390f35b34801561079357600080fd5b506107ee600480360381019080803590602001908201803590602001908080601f01602080910402602001604051908101604052809392919081815260200183838082843782019150505050505091929192905050506114ea565b005b3480156107fc57600080fd5b5061080561161c565b6040518082815260200191505060405180910390f35b34801561082757600080fd5b50610830611622565b6040518082815260200191505060405180910390f35b34801561085257600080fd5b506108716004803603810190808035906020019092919050505061162c565b6040518082815260200191505060405180910390f35b34801561089357600080fd5b506108bc600480360381019080803590602001909291908035906020019092919050505061164c565b005b3480156108ca57600080fd5b5061098b60048036038101908080359060200190929190803590602001908201803590602001908080601f0160208091040260200160405190810160405280939291908181526020018383808284378201915050505050509192919290803590602001908201803590602001908080601f0160208091040260200160405190810160405280939291908181526020018383808284378201915050505050509192919290803590602001909291908035151590602001909291905050506118d1565b604051808215151515815260200191505060405180910390f35b3480156109b157600080fd5b506109d060048036038101908080359060200190929190505050611a61565b604051808215151515815260200191505060405180910390f35b6000806007600081548092919060010191905055506001600060075481526020019081526020016000209050600754816000018190555084816001019080519060200190610a39929190611a81565b5083816002019080519060200190610a52929190611a81565b5042816003018190555082816004018190555060008160050160146101000a81548160ff021916908315150217905550338160050160006101000a81548173ffffffffffffffffffffffffffffffffffffffff021916908373ffffffffffffffffffffffffffffffffffffffff160217905550806001600060075481526020019081526020016000206000820154816000015560018201816001019080546001816001161561010002031660029004610b0c929190611b01565b5060028201816002019080546001816001161561010002031660029004610b34929190611b01565b5060038201548160030155600482015481600401556005820160009054906101000a900473ffffffffffffffffffffffffffffffffffffffff168160050160006101000a81548173ffffffffffffffffffffffffffffffffffffffff021916908373ffffffffffffffffffffffffffffffffffffffff1602179055506005820160149054906101000a900460ff168160050160146101000a81548160ff0219169083151502179055509050506007549150509392505050565b6000806000806000806000600360008a815260200190815260200160002088815481101515610c1857fe5b90600052602060002001549150600460008381526020019081526020016000209050806000015481600101548260020160009054906101000a900473ffffffffffffffffffffffffffffffffffffffff1683600301548460040160009054906101000a900460ff169650965096509650965050509295509295909350565b60046020528060005260406000206000915090508060000154908060010154908060020160009054906101000a900473ffffffffffffffffffffffffffffffffffffffff16908060030154908060040160009054906101000a900460ff16905085565b6001602052806000526040600020600091509050806000015490806001018054600181600116156101000203166002900480601f016020809104026020016040519081016040528092919081815260200182805460018160011615610100020316600290048015610dab5780601f10610d8057610100808354040283529160200191610dab565b820191906000526020600020905b815481529060010190602001808311610d8e57829003601f168201915b505050505090806002018054600181600116156101000203166002900480601f016020809104026020016040519081016040528092919081815260200182805460018160011615610100020316600290048015610e495780601f10610e1e57610100808354040283529160200191610e49565b820191906000526020600020905b815481529060010190602001808311610e2c57829003601f168201915b5050505050908060030154908060040154908060050160009054906101000a900473ffffffffffffffffffffffffffffffffffffffff16908060050160149054906101000a900460ff16905087565b6000806007548511151515610f15576040517f08c379a00000000000000000000000000000000000000000000000000000000081526004018080602001828103825260128152602001807f4e6f7420666f756e6420636f6e7472616374000000000000000000000000000081525060200191505060405180910390fd5b600160008681526020019081526020016000209150600015158260050160149054906101000a900460ff161515141515610fb7576040517f08c379a00000000000000000000000000000000000000000000000000000000081526004018080602001828103825260128152602001807f436f6e747261637420697320636c6f736564000000000000000000000000000081525060200191505060405180910390fd5b8160050160009054906101000a900473ffffffffffffffffffffffffffffffffffffffff1673ffffffffffffffffffffffffffffffffffffffff163373ffffffffffffffffffffffffffffffffffffffff1614151561107e576040517f08c379a00000000000000000000000000000000000000000000000000000000081526004018080602001828103825260158152602001807f4f6e6c79206f776e65722063616e206368616e6765000000000000000000000081525060200191505060405180910390fd5b6004600085815260200190815260200160002090506000816003015411151561110f576040517f08c379a00000000000000000000000000000000000000000000000000000000081526004018080602001828103825260198152602001807f5261746520696e76616c6964206f72206e6f7420666f756e640000000000000081525060200191505060405180910390fd5b8160000154816001015414151561118e576040517f08c379a00000000000000000000000000000000000000000000000000000000081526004018080602001828103825260198152602001807f5261746520696e76616c6964206f72206e6f7420666f756e640000000000000081525060200191505060405180910390fd5b828160040160006101000a81548160ff0219169083151502179055506001151583151514156111d55760018260050160146101000a81548160ff0219169083151502179055505b5050505050565b6003602052816000526040600020818154811015156111f757fe5b90600052602060002001600091509150505481565b60085481565b60026020528060005260406000206000915090508060000160009054906101000a900473ffffffffffffffffffffffffffffffffffffffff1690806001018054600181600116156101000203166002900480601f0160208091040260200160405190810160405280929190818152602001828054600181600116156101000203166002900480156112e45780601f106112b9576101008083540402835291602001916112e4565b820191906000526020600020905b8154815290600101906020018083116112c757829003601f168201915b5050505050905082565b606080600080600060016000878152602001908152602001600020600101600160008881526020019081526020016000206002016001600089815260200190815260200160002060030154600160008a815260200190815260200160002060040154600160008b815260200190815260200160002060050160009054906101000a900473ffffffffffffffffffffffffffffffffffffffff16848054600181600116156101000203166002900480601f01602080910402602001604051908101604052809291908181526020018280546001816001161561010002031660029004801561141c5780601f106113f15761010080835404028352916020019161141c565b820191906000526020600020905b8154815290600101906020018083116113ff57829003601f168201915b50505050509450838054600181600116156101000203166002900480601f0160208091040260200160405190810160405280929190818152602001828054600181600116156101000203166002900480156114b85780601f1061148d576101008083540402835291602001916114b8565b820191906000526020600020905b81548152906001019060200180831161149b57829003601f168201915b505050505093509450945094509450945091939590929450565b60066020528060005260406000206000915090505481565b6000600260003373ffffffffffffffffffffffffffffffffffffffff1673ffffffffffffffffffffffffffffffffffffffff168152602001908152602001600020905081816001019080519060200190611545929190611a81565b5080600260003373ffffffffffffffffffffffffffffffffffffffff1673ffffffffffffffffffffffffffffffffffffffff1681526020019081526020016000206000820160009054906101000a900473ffffffffffffffffffffffffffffffffffffffff168160000160006101000a81548173ffffffffffffffffffffffffffffffffffffffff021916908373ffffffffffffffffffffffffffffffffffffffff16021790555060018201816001019080546001816001161561010002031660029004611614929190611b01565b509050505050565b60075481565b6000600754905090565b600060036000838152602001908152602001600020805490509050919050565b600060075483111515156116c8576040517f08c379a00000000000000000000000000000000000000000000000000000000081526004018080602001828103825260128152602001807f4e6f7420666f756e6420636f6e7472616374000000000000000000000000000081525060200191505060405180910390fd5b6008600081548092919060010191905055506004600060085481526020019081526020016000209050828160010181905550818160030181905550338160020160006101000a81548173ffffffffffffffffffffffffffffffffffffffff021916908373ffffffffffffffffffffffffffffffffffffffff1602179055506005600084815260200190815260200160002060009054906101000a900460ff16151561189f5760066000848152602001908152602001600020600081548092919060010191905055506003600084815260200190815260200160002060085490806001815401808255809150509060018203906000526020600020016000909192909190915055508060046000600854815260200190815260200160002060008201548160000155600182015481600101556002820160009054906101000a900473ffffffffffffffffffffffffffffffffffffffff168160020160006101000a81548173ffffffffffffffffffffffffffffffffffffffff021916908373ffffffffffffffffffffffffffffffffffffffff160217905550600382015481600301556004820160009054906101000a900460ff168160040160006101000a81548160ff0219169083151502179055509050506118cc565b60016005600085815260200190815260200160002060006101000a81548160ff0219169083151502179055505b505050565b6000806001600088815260200190815260200160002090508060050160009054906101000a900473ffffffffffffffffffffffffffffffffffffffff1673ffffffffffffffffffffffffffffffffffffffff163373ffffffffffffffffffffffffffffffffffffffff161415156119b0576040517f08c379a00000000000000000000000000000000000000000000000000000000081526004018080602001828103825260158152602001807f4f6e6c79206f776e65722063616e206368616e6765000000000000000000000081525060200191505060405180910390fd5b858160010190805190602001906119c8929190611a81565b50848160020190805190602001906119e1929190611a81565b50428160030181905550838160040181905550828160050160146101000a81548160ff021916908315150217905550338160050160006101000a81548173ffffffffffffffffffffffffffffffffffffffff021916908373ffffffffffffffffffffffffffffffffffffffff160217905550600191505095945050505050565b60056020528060005260406000206000915054906101000a900460ff1681565b828054600181600116156101000203166002900490600052602060002090601f016020900481019282601f10611ac257805160ff1916838001178555611af0565b82800160010185558215611af0579182015b82811115611aef578251825591602001919060010190611ad4565b5b509050611afd9190611b88565b5090565b828054600181600116156101000203166002900490600052602060002090601f016020900481019282601f10611b3a5780548555611b77565b82800160010185558215611b7757600052602060002091601f016020900482015b82811115611b76578254825591600101919060010190611b5b565b5b509050611b849190611b88565b5090565b611baa91905b80821115611ba6576000816000905550600101611b8e565b5090565b905600a165627a7a723058207a50b023d49fead122a463ef2a5cf2a979f74140e243f9e0ba51b916f0626d090029",
  "source": "pragma solidity ^0.4.17;\r\n\r\ncontract Contracts {\r\n\r\n    address Admin;\r\n    // Model a Contract\r\n    struct Contract {\r\n        uint id;\r\n        string contractNum;\r\n        string description;\r\n        uint timestamp;\r\n        uint amount;\r\n        address contractAddress;\r\n        bool closed;\r\n    }\r\n\r\n    struct ContractRate {\r\n        uint id;\r\n        uint contractId;\r\n        address rateAddress;\r\n        uint amount;\r\n        bool approve;\r\n    }\r\n\r\n    struct Account {\r\n        address accountAddress;\r\n        string email;\r\n    }\r\n\r\n    // Contract[] public contracts;          // All contracts\r\n    mapping(uint => Contract) public contracts;\r\n    mapping(address => Account) public accounts;\r\n    //    \r\n    mapping (uint => uint[]) public rates;\r\n    // mapping(uint => ContractRate) public rates;\r\n    // c\r\n    mapping(uint => ContractRate) public contractRates;\r\n    //     \r\n    mapping(uint => bool) public isRatesContract;\r\n    //  \r\n    mapping(uint => uint) public contractRatesCnt;\r\n\r\n    uint public contractCount;\r\n    uint public rateCount;\r\n\r\n    constructor ()  {\r\n        Admin = msg.sender;\r\n        // default debug;\r\n        createContract(\"0001\", \" \", 100);\r\n        createContract(\"0002\", \" \", 300);\r\n        setContractRate(1, 110);\r\n        setContractRate(1, 120);\r\n        setContractRate(2, 310);\r\n\r\n    }\r\n    // Create an auction, transfer the item to this contract, activate the auction\r\n    function createContract (\r\n        string _contractNum,\r\n        string _description,\r\n        uint _amount\r\n    ) public\r\n        returns (uint contractId) {\r\n        contractCount ++;\r\n        Contract storage c = contracts[contractCount];\r\n        c.id = contractCount;\r\n        c.contractNum = _contractNum;\r\n        c.description = _description;\r\n        c.timestamp = now;\r\n        c.amount = _amount;\r\n        c.closed = false;\r\n        c.contractAddress = msg.sender;\r\n\r\n        contracts[contractCount] = c;\r\n        return contractCount;\r\n    }\r\n    function setAccount (\r\n        string _email\r\n    ) public {\r\n        Account storage acc = accounts[msg.sender];\r\n        acc.email = _email;\r\n        accounts[msg.sender] = acc;\r\n    }\r\n\r\n    function setContractRate (\r\n        uint _contractId,\r\n        uint _amount\r\n    ) public {\r\n        require (_contractId <= contractCount, \"Not found contract\");\r\n        rateCount ++;\r\n\r\n        ContractRate storage cr = contractRates[rateCount];\r\n        cr.contractId = _contractId;\r\n        cr.amount = _amount;\r\n        cr.rateAddress = msg.sender;\r\n        if (!isRatesContract[_contractId]){\r\n            contractRatesCnt[_contractId]++;\r\n            //  id   ;\r\n            rates[_contractId].push(rateCount);\r\n            contractRates[rateCount] = cr;\r\n        } else {\r\n            isRatesContract[_contractId] = true;\r\n        }\r\n    }\r\n\r\n    function approveRate(\r\n        uint _contractId,\r\n        uint _rateId,\r\n        bool _rateRes\r\n    ) public {\r\n        require (_contractId <= contractCount, \"Not found contract\");\r\n        Contract storage c = contracts[_contractId];\r\n        require (c.closed == false, \"Contract is closed\");\r\n        require (msg.sender == c.contractAddress, \"Only owner can change\");\r\n        ContractRate storage cr = contractRates[_rateId];\r\n        require (cr.amount > 0, \"Rate invalid or not found\");\r\n        require (cr.contractId == c.id, \"Rate invalid or not found\");\r\n        cr.approve = _rateRes;\r\n        if (_rateRes == true){\r\n            c.closed = true;\r\n        }\r\n    }\r\n    //    \r\n    function getContractRateCount(uint _contractId) public view returns(uint length) {\r\n        return rates[_contractId].length;\r\n    }\r\n\r\n    function getContractRateAtIndex(uint _contractId, uint index) public view returns(\r\n        uint id,\r\n        uint contractId,\r\n        address rateAddress,\r\n        uint amount,\r\n        bool approve\r\n    ) {\r\n        uint rateid = rates[_contractId][index];\r\n        ContractRate storage cr = contractRates[rateid];\r\n        return (\r\n            cr.id,\r\n            cr.contractId,\r\n            cr.rateAddress,\r\n            cr.amount,\r\n            cr.approve\r\n        );\r\n    }\r\n    \r\n    function getContract(uint idx) public view returns (\r\n        string,\r\n        string,\r\n        uint,\r\n        uint,\r\n        address) {\r\n        return (\r\n            contracts[idx].contractNum,\r\n            contracts[idx].description,\r\n            contracts[idx].timestamp,\r\n            contracts[idx].amount,\r\n            contracts[idx].contractAddress\r\n        );\r\n    }\r\n\r\n    function getContractCount() public view returns (uint) {\r\n        return contractCount;\r\n    }\r\n\r\n    function updateContract(\r\n        uint idx,\r\n        string _contractNum,\r\n        string _description,\r\n        uint _amount,\r\n        bool _closed\r\n        ) public returns (bool)\r\n    {\r\n        Contract storage c = contracts[idx];\r\n        require (msg.sender == c.contractAddress, \"Only owner can change\");\r\n\r\n        c.contractNum = _contractNum;\r\n        c.description = _description;\r\n        c.timestamp = now;\r\n        c.amount = _amount;\r\n        c.closed = _closed;\r\n        c.contractAddress = msg.sender;\r\n        return true;\r\n    }\r\n\r\n    // function buyContract(uint idx) public returns (bool) {\r\n    //     Contract storage c = contracts[idx];\r\n    //     c.contractAddress = msg.sender;\r\n    //     return true;\r\n    // }\r\n}\r\n",
  "sourcePath": "/home/mi.sokoluk/code/blockchainapp/contracts/Contracts.sol",
  "compiler": {
    "name": "solc",
    "version": "0.4.23+commit.124ca40d.Emscripten.clang"
  },
  "schemaVersion": "2.0.0",
  "updatedAt": "2018-05-23T05:21:42.350Z"
}