{
    "contractName": "Contracts",
    "abi": [
        {
            "constant": true,
            "inputs": [
                {
                    "name": "",
                    "type": "uint256"
                }
            ],
            "name": "contracts",
            "outputs": [
                {
                    "name": "id",
                    "type": "uint256"
                },
                {
                    "name": "contractNum",
                    "type": "string"
                },
                {
                    "name": "description",
                    "type": "string"
                },
                {
                    "name": "timestamp",
                    "type": "uint256"
                },
                {
                    "name": "amount",
                    "type": "uint256"
                },
                {
                    "name": "contractAddress",
                    "type": "address"
                }
            ],
            "payable": false,
            "stateMutability": "view",
            "type": "function"
        },
        {
            "constant": true,
            "inputs": [],
            "name": "contractCount",
            "outputs": [
                {
                    "name": "",
                    "type": "uint256"
                }
            ],
            "payable": false,
            "stateMutability": "view",
            "type": "function"
        },
        {
            "inputs": [],
            "payable": false,
            "stateMutability": "nonpayable",
            "type": "constructor"
        },
        {
            "anonymous": false,
            "inputs": [
                {
                    "indexed": false,
                    "name": "_contractNum",
                    "type": "string"
                },
                {
                    "indexed": false,
                    "name": "_id",
                    "type": "uint256"
                }
            ],
            "name": "on_success_buy",
            "type": "event"
        },
        {
            "constant": false,
            "inputs": [
                {
                    "name": "_contractNum",
                    "type": "string"
                },
                {
                    "name": "_description",
                    "type": "string"
                },
                {
                    "name": "_amount",
                    "type": "uint256"
                }
            ],
            "name": "createContract",
            "outputs": [
                {
                    "name": "contractId",
                    "type": "uint256"
                }
            ],
            "payable": false,
            "stateMutability": "nonpayable",
            "type": "function"
        },
        {
            "constant": true,
            "inputs": [
                {
                    "name": "idx",
                    "type": "uint256"
                }
            ],
            "name": "getContract",
            "outputs": [
                {
                    "name": "",
                    "type": "string"
                },
                {
                    "name": "",
                    "type": "string"
                },
                {
                    "name": "",
                    "type": "uint256"
                },
                {
                    "name": "",
                    "type": "uint256"
                },
                {
                    "name": "",
                    "type": "address"
                }
            ],
            "payable": false,
            "stateMutability": "view",
            "type": "function"
        },
        {
            "constant": false,
            "inputs": [
                {
                    "name": "idx",
                    "type": "uint256"
                },
                {
                    "name": "_contractNum",
                    "type": "string"
                },
                {
                    "name": "_description",
                    "type": "string"
                },
                {
                    "name": "_amount",
                    "type": "uint256"
                }
            ],
            "name": "updateContract",
            "outputs": [
                {
                    "name": "",
                    "type": "bool"
                }
            ],
            "payable": false,
            "stateMutability": "nonpayable",
            "type": "function"
        },
        {
            "constant": false,
            "inputs": [
                {
                    "name": "idx",
                    "type": "uint256"
                }
            ],
            "name": "buyContract",
            "outputs": [
                {
                    "name": "",
                    "type": "bool"
                }
            ],
            "payable": true,
            "stateMutability": "payable",
            "type": "function"
        }
    ],
    "bytecode": "0x60806040523480156200001157600080fd5b50336000806101000a81548173ffffffffffffffffffffffffffffffffffffffff021916908373ffffffffffffffffffffffffffffffffffffffff160217905550620000d96040805190810160405280600481526020017f30303031000000000000000000000000000000000000000000000000000000008152506040805190810160405280601d81526020017fd0bfd0b5d180d0b2d18bd0b920d0bad0bed0bdd182d180d0b0d0bad1820000008152506064620001f2640100000000026401000000009004565b50620001626040805190810160405280600481526020017f30303032000000000000000000000000000000000000000000000000000000008152506040805190810160405280601d81526020017fd0b2d182d0bed180d0bed0b920d0bad0bed0bdd182d180d0b0d0bad18200000081525061012c620001f2640100000000026401000000009004565b50620001eb6040805190810160405280600481526020017f30303033000000000000000000000000000000000000000000000000000000008152506040805190810160405280601d81526020017fd182d180d0b5d182d0b8d0b920d0bad0bed0bdd182d180d0b0d0bad18200000081525061012c620001f2640100000000026401000000009004565b5062000634565b600080600260008154809291906001019190505550600160006002548152602001908152602001600020905060025481600001819055508481600101908051906020019062000243929190620003cc565b50838160020190805190602001906200025e929190620003cc565b50428160030181905550828160040181905550338160050160006101000a81548173ffffffffffffffffffffffffffffffffffffffff021916908373ffffffffffffffffffffffffffffffffffffffff160217905550806001600060025481526020019081526020016000206000820154816000015560018201816001019080546001816001161561010002031660029004620002fd92919062000453565b50600282018160020190805460018160011615610100020316600290046200032792919062000453565b5060038201548160030155600482015481600401556005820160009054906101000a900473ffffffffffffffffffffffffffffffffffffffff168160050160006101000a81548173ffffffffffffffffffffffffffffffffffffffff021916908373ffffffffffffffffffffffffffffffffffffffff1602179055506006820181600601908054620003bb929190620004e1565b509050506002549150509392505050565b828054600181600116156101000203166002900490600052602060002090601f016020900481019282601f106200040f57805160ff191683800117855562000440565b8280016001018555821562000440579182015b828111156200043f57825182559160200191906001019062000422565b5b5090506200044f91906200057c565b5090565b828054600181600116156101000203166002900490600052602060002090601f016020900481019282601f106200048e5780548555620004ce565b82800160010185558215620004ce57600052602060002091601f016020900482015b82811115620004cd578254825591600101919060010190620004b0565b5b509050620004dd91906200057c565b5090565b828054828255906000526020600020906003028101928215620005695760005260206000209160030282015b828111156200056857828260008201548160000155600182018160010190805460018160011615610100020316600290046200054b92919062000453565b50600282015481600201555050916003019190600301906200050d565b5b509050620005789190620005a4565b5090565b620005a191905b808211156200059d57600081600090555060010162000583565b5090565b90565b620005e591905b80821115620005e157600080820160009055600182016000620005cf9190620005e8565b600282016000905550600301620005ab565b5090565b90565b50805460018160011615610100020316600290046000825580601f1062000610575062000631565b601f0160209004906000526020600020908101906200063091906200057c565b5b50565b61101580620006446000396000f300608060405260043610610077576000357c0100000000000000000000000000000000000000000000000000000000900463ffffffff1680620fd1701461007c57806328c35bae14610149578063474da79a146102245780636ebc8c861461037e5780638736381a146104d1578063d4399445146104fc575b600080fd5b34801561008857600080fd5b50610133600480360381019080803590602001908201803590602001908080601f0160208091040260200160405190810160405280939291908181526020018383808284378201915050505050509192919290803590602001908201803590602001908080601f016020809104026020016040519081016040528093929190818152602001838380828437820191505050505050919291929080359060200190929190505050610534565b6040518082815260200191505060405180910390f35b34801561015557600080fd5b5061020a60048036038101908080359060200190929190803590602001908201803590602001908080601f0160208091040260200160405190810160405280939291908181526020018383808284378201915050505050509192919290803590602001908201803590602001908080601f016020809104026020016040519081016040528093929190818152602001838380828437820191505050505050919291929080359060200190929190505050610704565b604051808215151515815260200191505060405180910390f35b34801561023057600080fd5b5061024f60048036038101908080359060200190929190505050610877565b6040518087815260200180602001806020018681526020018581526020018473ffffffffffffffffffffffffffffffffffffffff1673ffffffffffffffffffffffffffffffffffffffff168152602001838103835288818151815260200191508051906020019080838360005b838110156102d75780820151818401526020810190506102bc565b50505050905090810190601f1680156103045780820380516001836020036101000a031916815260200191505b50838103825287818151815260200191508051906020019080838360005b8381101561033d578082015181840152602081019050610322565b50505050905090810190601f16801561036a5780820380516001836020036101000a031916815260200191505b509850505050505050505060405180910390f35b34801561038a57600080fd5b506103a960048036038101908080359060200190929190505050610a03565b6040518080602001806020018681526020018581526020018473ffffffffffffffffffffffffffffffffffffffff1673ffffffffffffffffffffffffffffffffffffffff168152602001838103835288818151815260200191508051906020019080838360005b8381101561042b578082015181840152602081019050610410565b50505050905090810190601f1680156104585780820380516001836020036101000a031916815260200191505b50838103825287818151815260200191508051906020019080838360005b83811015610491578082015181840152602081019050610476565b50505050905090810190601f1680156104be5780820380516001836020036101000a031916815260200191505b5097505050505050505060405180910390f35b3480156104dd57600080fd5b506104e6610be7565b6040518082815260200191505060405180910390f35b61051a60048036038101908080359060200190929190505050610bed565b604051808215151515815260200191505060405180910390f35b6000806002600081548092919060010191905055506001600060025481526020019081526020016000209050600254816000018190555084816001019080519060200190610583929190610da2565b508381600201908051906020019061059c929190610da2565b50428160030181905550828160040181905550338160050160006101000a81548173ffffffffffffffffffffffffffffffffffffffff021916908373ffffffffffffffffffffffffffffffffffffffff160217905550806001600060025481526020019081526020016000206000820154816000015560018201816001019080546001816001161561010002031660029004610639929190610e22565b5060028201816002019080546001816001161561010002031660029004610661929190610e22565b5060038201548160030155600482015481600401556005820160009054906101000a900473ffffffffffffffffffffffffffffffffffffffff168160050160006101000a81548173ffffffffffffffffffffffffffffffffffffffff021916908373ffffffffffffffffffffffffffffffffffffffff16021790555060068201816006019080546106f3929190610ea9565b509050506002549150509392505050565b6000806001600087815260200190815260200160002090508060050160009054906101000a900473ffffffffffffffffffffffffffffffffffffffff1673ffffffffffffffffffffffffffffffffffffffff163373ffffffffffffffffffffffffffffffffffffffff161415156107e3576040517f08c379a00000000000000000000000000000000000000000000000000000000081526004018080602001828103825260158152602001807f4f6e6c79206f776e65722063616e206368616e6765000000000000000000000081525060200191505060405180910390fd5b848160010190805190602001906107fb929190610da2565b5083816002019080519060200190610814929190610da2565b50428160030181905550828160040181905550338160050160006101000a81548173ffffffffffffffffffffffffffffffffffffffff021916908373ffffffffffffffffffffffffffffffffffffffff1602179055506001915050949350505050565b6001602052806000526040600020600091509050806000015490806001018054600181600116156101000203166002900480601f0160208091040260200160405190810160405280929190818152602001828054600181600116156101000203166002900480156109295780601f106108fe57610100808354040283529160200191610929565b820191906000526020600020905b81548152906001019060200180831161090c57829003601f168201915b505050505090806002018054600181600116156101000203166002900480601f0160208091040260200160405190810160405280929190818152602001828054600181600116156101000203166002900480156109c75780601f1061099c576101008083540402835291602001916109c7565b820191906000526020600020905b8154815290600101906020018083116109aa57829003601f168201915b5050505050908060030154908060040154908060050160009054906101000a900473ffffffffffffffffffffffffffffffffffffffff16905086565b606080600080600060016000878152602001908152602001600020600101600160008881526020019081526020016000206002016001600089815260200190815260200160002060030154600160008a815260200190815260200160002060040154600160008b815260200190815260200160002060050160009054906101000a900473ffffffffffffffffffffffffffffffffffffffff16848054600181600116156101000203166002900480601f016020809104026020016040519081016040528092919081815260200182805460018160011615610100020316600290048015610b315780601f10610b0657610100808354040283529160200191610b31565b820191906000526020600020905b815481529060010190602001808311610b1457829003601f168201915b50505050509450838054600181600116156101000203166002900480601f016020809104026020016040519081016040528092919081815260200182805460018160011615610100020316600290048015610bcd5780601f10610ba257610100808354040283529160200191610bcd565b820191906000526020600020905b815481529060010190602001808311610bb057829003601f168201915b505050505093509450945094509450945091939590929450565b60025481565b6000806000806001600086815260200190815260200160002092503391508260040154905060008114151515610c2257600080fd5b803073ffffffffffffffffffffffffffffffffffffffff163110151515610c4857600080fd5b8173ffffffffffffffffffffffffffffffffffffffff166108fc829081150290604051600060405180830381858888f19350505050158015610c8e573d6000803e3d6000fd5b50338360050160006101000a81548173ffffffffffffffffffffffffffffffffffffffff021916908373ffffffffffffffffffffffffffffffffffffffff1602179055507f7f5c02def00f1b32bf8de105764e4e927446d95ac65d94f4b4b32f76687e8e6a83600101866040518080602001838152602001828103825284818154600181600116156101000203166002900481526020019150805460018160011615610100020316600290048015610d875780601f10610d5c57610100808354040283529160200191610d87565b820191906000526020600020905b815481529060010190602001808311610d6a57829003601f168201915b5050935050505060405180910390a160019350505050919050565b828054600181600116156101000203166002900490600052602060002090601f016020900481019282601f10610de357805160ff1916838001178555610e11565b82800160010185558215610e11579182015b82811115610e10578251825591602001919060010190610df5565b5b509050610e1e9190610f3d565b5090565b828054600181600116156101000203166002900490600052602060002090601f016020900481019282601f10610e5b5780548555610e98565b82800160010185558215610e9857600052602060002091601f016020900482015b82811115610e97578254825591600101919060010190610e7c565b5b509050610ea59190610f3d565b5090565b828054828255906000526020600020906003028101928215610f2c5760005260206000209160030282015b82811115610f2b5782826000820154816000015560018201816001019080546001816001161561010002031660029004610f0f929190610e22565b5060028201548160020155505091600301919060030190610ed4565b5b509050610f399190610f62565b5090565b610f5f91905b80821115610f5b576000816000905550600101610f43565b5090565b90565b610f9e91905b80821115610f9a57600080820160009055600182016000610f899190610fa1565b600282016000905550600301610f68565b5090565b90565b50805460018160011615610100020316600290046000825580601f10610fc75750610fe6565b601f016020900490600052602060002090810190610fe59190610f3d565b5b505600a165627a7a723058201f8f08e30b947089b09f3d55507642a8fccbc92b6ef57dcbf7b1e177de7456950029",
    "source": "pragma solidity ^0.4.17;\n\ncontract Contracts {\n\n    address Admin;\n    // Model a Contract\n    struct Contract {\n        uint id;\n        string contractNum;\n        string description;\n        uint timestamp;\n        uint amount;\n        address contractAddress;\n        ContractRows[] crows;\n    }\n\n    struct ContractRows {\n        uint id;\n        string article;\n        uint amount;\n    }\n    // Contract[] public contracts;          // All contracts\n    mapping(uint => Contract) public contracts;\n    uint public contractCount;\n\n    event on_success_buy (\n        string _contractNum,\n        uint _id\n    );\n\n    constructor () public {\n        Admin = msg.sender;\n        createContract(\"0001\", \"первый контракт\", 100);\n        createContract(\"0002\", \"второй контракт\", 300);\n        createContract(\"0003\", \"третий контракт\", 300);\n    }\n    // Create an auction, transfer the item to this contract, activate the auction\n    function createContract (\n        string _contractNum,\n        string _description,\n        uint _amount\n    ) public\n        returns (uint contractId) {\n        contractCount ++;\n        Contract storage c = contracts[contractCount];\n        c.id = contractCount;\n        c.contractNum = _contractNum;\n        c.description = _description;\n        c.timestamp = now;\n        c.amount = _amount;\n        c.contractAddress = msg.sender;\n\n        contracts[contractCount] = c;\n        return contractCount;\n    }\n\n    function getContract(uint idx) public constant returns (\n        string,\n        string,\n        uint,\n        uint,\n        address) {\n        return (\n            contracts[idx].contractNum,\n            contracts[idx].description,\n            contracts[idx].timestamp,\n            contracts[idx].amount,\n            contracts[idx].contractAddress\n        );\n    }\n\n    // function getContractCount() public returns (uint) {\n    //     return contractCount;\n    // }\n\n    function updateContract(\n        uint idx,\n        string _contractNum,\n        string _description,\n        uint _amount\n        ) public returns (bool)\n    {\n        Contract storage c = contracts[idx];\n        require (msg.sender == c.contractAddress, \"Only owner can change\");\n\n        c.contractNum = _contractNum;\n        c.description = _description;\n        c.timestamp = now;\n        c.amount = _amount;\n        c.contractAddress = msg.sender;\n        return true;\n    }\n\n    function buyContract(uint idx) public  payable returns (bool) {\n        Contract storage c = contracts[idx];\n        \n        address payee = msg.sender;\n        uint256 payment = c.amount;\n\n        require(payment != 0);\n        require(address(this).balance >= payment);\n\n        payee.transfer(payment);\n        c.contractAddress = msg.sender;\n        emit on_success_buy(c.contractNum, idx);\n        return true;\n    }\n}\n",
    "sourcePath": "/home/sok/code/test_dapp/contracts/Contracts.sol",
    "compiler": {
        "name": "solc",
        "version": "0.4.23+commit.124ca40d.Emscripten.clang"
    },
    "schemaVersion": "2.0.0",
    "updatedAt": "2018-05-22T03:53:22.409Z"
}