{
  "contractName": "Contracts",
  "abi": [
    {
      "constant": true,
      "inputs": [
        {
          "name": "",
          "type": "uint256"
        }
      ],
      "name": "contracts",
      "outputs": [
        {
          "name": "id",
          "type": "uint256"
        },
        {
          "name": "contractNum",
          "type": "string"
        },
        {
          "name": "description",
          "type": "string"
        },
        {
          "name": "timestamp",
          "type": "uint256"
        },
        {
          "name": "amount",
          "type": "uint256"
        },
        {
          "name": "contractAddress",
          "type": "address"
        }
      ],
      "payable": false,
      "stateMutability": "view",
      "type": "function"
    },
    {
      "constant": true,
      "inputs": [],
      "name": "contractCount",
      "outputs": [
        {
          "name": "",
          "type": "uint256"
        }
      ],
      "payable": false,
      "stateMutability": "view",
      "type": "function"
    },
    {
      "inputs": [],
      "payable": true,
      "stateMutability": "payable",
      "type": "constructor"
    },
    {
      "constant": false,
      "inputs": [
        {
          "name": "_contractNum",
          "type": "string"
        },
        {
          "name": "_description",
          "type": "string"
        },
        {
          "name": "_amount",
          "type": "uint256"
        }
      ],
      "name": "createContract",
      "outputs": [
        {
          "name": "contractId",
          "type": "uint256"
        }
      ],
      "payable": false,
      "stateMutability": "nonpayable",
      "type": "function"
    },
    {
      "constant": true,
      "inputs": [
        {
          "name": "idx",
          "type": "uint256"
        }
      ],
      "name": "getContract",
      "outputs": [
        {
          "name": "",
          "type": "string"
        },
        {
          "name": "",
          "type": "string"
        },
        {
          "name": "",
          "type": "uint256"
        },
        {
          "name": "",
          "type": "uint256"
        },
        {
          "name": "",
          "type": "address"
        }
      ],
      "payable": false,
      "stateMutability": "view",
      "type": "function"
    },
    {
      "constant": false,
      "inputs": [],
      "name": "getContractCount",
      "outputs": [
        {
          "name": "",
          "type": "uint256"
        }
      ],
      "payable": false,
      "stateMutability": "nonpayable",
      "type": "function"
    },
    {
      "constant": false,
      "inputs": [
        {
          "name": "idx",
          "type": "uint256"
        },
        {
          "name": "_contractNum",
          "type": "string"
        },
        {
          "name": "_description",
          "type": "string"
        },
        {
          "name": "_amount",
          "type": "uint256"
        }
      ],
      "name": "updateContract",
      "outputs": [
        {
          "name": "",
          "type": "bool"
        }
      ],
      "payable": false,
      "stateMutability": "nonpayable",
      "type": "function"
    },
    {
      "constant": false,
      "inputs": [
        {
          "name": "idx",
          "type": "uint256"
        }
      ],
      "name": "buyContract",
      "outputs": [
        {
          "name": "",
          "type": "bool"
        }
      ],
      "payable": true,
      "stateMutability": "payable",
      "type": "function"
    }
  ],
  "bytecode": "0x6080604052336000806101000a81548173ffffffffffffffffffffffffffffffffffffffff021916908373ffffffffffffffffffffffffffffffffffffffff160217905550620000cb6040805190810160405280600481526020017f30303031000000000000000000000000000000000000000000000000000000008152506040805190810160405280601d81526020017fd0bfd0b5d180d0b2d18bd0b920d0bad0bed0bdd182d180d0b0d0bad18200000081525060646200015b640100000000026401000000009004565b50620001546040805190810160405280600481526020017f30303032000000000000000000000000000000000000000000000000000000008152506040805190810160405280601d81526020017fd0b2d182d0bed180d0bed0b920d0bad0bed0bdd182d180d0b0d0bad18200000081525061012c6200015b640100000000026401000000009004565b506200059d565b6000806002600081548092919060010191905055506001600060025481526020019081526020016000209050600254816000018190555084816001019080519060200190620001ac92919062000335565b5083816002019080519060200190620001c792919062000335565b50428160030181905550828160040181905550338160050160006101000a81548173ffffffffffffffffffffffffffffffffffffffff021916908373ffffffffffffffffffffffffffffffffffffffff16021790555080600160006002548152602001908152602001600020600082015481600001556001820181600101908054600181600116156101000203166002900462000266929190620003bc565b506002820181600201908054600181600116156101000203166002900462000290929190620003bc565b5060038201548160030155600482015481600401556005820160009054906101000a900473ffffffffffffffffffffffffffffffffffffffff168160050160006101000a81548173ffffffffffffffffffffffffffffffffffffffff021916908373ffffffffffffffffffffffffffffffffffffffff1602179055506006820181600601908054620003249291906200044a565b509050506002549150509392505050565b828054600181600116156101000203166002900490600052602060002090601f016020900481019282601f106200037857805160ff1916838001178555620003a9565b82800160010185558215620003a9579182015b82811115620003a85782518255916020019190600101906200038b565b5b509050620003b89190620004e5565b5090565b828054600181600116156101000203166002900490600052602060002090601f016020900481019282601f10620003f7578054855562000437565b828001600101855582156200043757600052602060002091601f016020900482015b828111156200043657825482559160010191906001019062000419565b5b509050620004469190620004e5565b5090565b828054828255906000526020600020906003028101928215620004d25760005260206000209160030282015b82811115620004d15782826000820154816000015560018201816001019080546001816001161561010002031660029004620004b4929190620003bc565b506002820154816002015550509160030191906003019062000476565b5b509050620004e191906200050d565b5090565b6200050a91905b8082111562000506576000816000905550600101620004ec565b5090565b90565b6200054e91905b808211156200054a5760008082016000905560018201600062000538919062000551565b60028201600090555060030162000514565b5090565b90565b50805460018160011615610100020316600290046000825580601f106200057957506200059a565b601f016020900490600052602060002090810190620005999190620004e5565b5b50565b610f9180620005ad6000396000f300608060405260043610610082576000357c0100000000000000000000000000000000000000000000000000000000900463ffffffff1680620fd1701461008757806328c35bae14610154578063474da79a1461022f5780636ebc8c86146103895780638736381a146104dc5780639399869d14610507578063d439944514610532575b600080fd5b34801561009357600080fd5b5061013e600480360381019080803590602001908201803590602001908080601f0160208091040260200160405190810160405280939291908181526020018383808284378201915050505050509192919290803590602001908201803590602001908080601f01602080910402602001604051908101604052809392919081815260200183838082843782019150505050505091929192908035906020019092919050505061056a565b6040518082815260200191505060405180910390f35b34801561016057600080fd5b5061021560048036038101908080359060200190929190803590602001908201803590602001908080601f0160208091040260200160405190810160405280939291908181526020018383808284378201915050505050509192919290803590602001908201803590602001908080601f01602080910402602001604051908101604052809392919081815260200183838082843782019150505050505091929192908035906020019092919050505061073a565b604051808215151515815260200191505060405180910390f35b34801561023b57600080fd5b5061025a600480360381019080803590602001909291905050506108ad565b6040518087815260200180602001806020018681526020018581526020018473ffffffffffffffffffffffffffffffffffffffff1673ffffffffffffffffffffffffffffffffffffffff168152602001838103835288818151815260200191508051906020019080838360005b838110156102e25780820151818401526020810190506102c7565b50505050905090810190601f16801561030f5780820380516001836020036101000a031916815260200191505b50838103825287818151815260200191508051906020019080838360005b8381101561034857808201518184015260208101905061032d565b50505050905090810190601f1680156103755780820380516001836020036101000a031916815260200191505b509850505050505050505060405180910390f35b34801561039557600080fd5b506103b460048036038101908080359060200190929190505050610a39565b6040518080602001806020018681526020018581526020018473ffffffffffffffffffffffffffffffffffffffff1673ffffffffffffffffffffffffffffffffffffffff168152602001838103835288818151815260200191508051906020019080838360005b8381101561043657808201518184015260208101905061041b565b50505050905090810190601f1680156104635780820380516001836020036101000a031916815260200191505b50838103825287818151815260200191508051906020019080838360005b8381101561049c578082015181840152602081019050610481565b50505050905090810190601f1680156104c95780820380516001836020036101000a031916815260200191505b5097505050505050505060405180910390f35b3480156104e857600080fd5b506104f1610c1d565b6040518082815260200191505060405180910390f35b34801561051357600080fd5b5061051c610c23565b6040518082815260200191505060405180910390f35b61055060048036038101908080359060200190929190505050610c2d565b604051808215151515815260200191505060405180910390f35b60008060026000815480929190600101919050555060016000600254815260200190815260200160002090506002548160000181905550848160010190805190602001906105b9929190610d1e565b50838160020190805190602001906105d2929190610d1e565b50428160030181905550828160040181905550338160050160006101000a81548173ffffffffffffffffffffffffffffffffffffffff021916908373ffffffffffffffffffffffffffffffffffffffff16021790555080600160006002548152602001908152602001600020600082015481600001556001820181600101908054600181600116156101000203166002900461066f929190610d9e565b5060028201816002019080546001816001161561010002031660029004610697929190610d9e565b5060038201548160030155600482015481600401556005820160009054906101000a900473ffffffffffffffffffffffffffffffffffffffff168160050160006101000a81548173ffffffffffffffffffffffffffffffffffffffff021916908373ffffffffffffffffffffffffffffffffffffffff1602179055506006820181600601908054610729929190610e25565b509050506002549150509392505050565b6000806001600087815260200190815260200160002090508060050160009054906101000a900473ffffffffffffffffffffffffffffffffffffffff1673ffffffffffffffffffffffffffffffffffffffff163373ffffffffffffffffffffffffffffffffffffffff16141515610819576040517f08c379a00000000000000000000000000000000000000000000000000000000081526004018080602001828103825260158152602001807f4f6e6c79206f776e65722063616e206368616e6765000000000000000000000081525060200191505060405180910390fd5b84816001019080519060200190610831929190610d1e565b508381600201908051906020019061084a929190610d1e565b50428160030181905550828160040181905550338160050160006101000a81548173ffffffffffffffffffffffffffffffffffffffff021916908373ffffffffffffffffffffffffffffffffffffffff1602179055506001915050949350505050565b6001602052806000526040600020600091509050806000015490806001018054600181600116156101000203166002900480601f01602080910402602001604051908101604052809291908181526020018280546001816001161561010002031660029004801561095f5780601f106109345761010080835404028352916020019161095f565b820191906000526020600020905b81548152906001019060200180831161094257829003601f168201915b505050505090806002018054600181600116156101000203166002900480601f0160208091040260200160405190810160405280929190818152602001828054600181600116156101000203166002900480156109fd5780601f106109d2576101008083540402835291602001916109fd565b820191906000526020600020905b8154815290600101906020018083116109e057829003601f168201915b5050505050908060030154908060040154908060050160009054906101000a900473ffffffffffffffffffffffffffffffffffffffff16905086565b606080600080600060016000878152602001908152602001600020600101600160008881526020019081526020016000206002016001600089815260200190815260200160002060030154600160008a815260200190815260200160002060040154600160008b815260200190815260200160002060050160009054906101000a900473ffffffffffffffffffffffffffffffffffffffff16848054600181600116156101000203166002900480601f016020809104026020016040519081016040528092919081815260200182805460018160011615610100020316600290048015610b675780601f10610b3c57610100808354040283529160200191610b67565b820191906000526020600020905b815481529060010190602001808311610b4a57829003601f168201915b50505050509450838054600181600116156101000203166002900480601f016020809104026020016040519081016040528092919081815260200182805460018160011615610100020316600290048015610c035780601f10610bd857610100808354040283529160200191610c03565b820191906000526020600020905b815481529060010190602001808311610be657829003601f168201915b505050505093509450945094509450945091939590929450565b60025481565b6000600254905090565b6000806000806001600086815260200190815260200160002092503391508260040154905060008114151515610c6257600080fd5b803073ffffffffffffffffffffffffffffffffffffffff163110151515610c8857600080fd5b8173ffffffffffffffffffffffffffffffffffffffff166108fc829081150290604051600060405180830381858888f19350505050158015610cce573d6000803e3d6000fd5b50338360050160006101000a81548173ffffffffffffffffffffffffffffffffffffffff021916908373ffffffffffffffffffffffffffffffffffffffff16021790555060019350505050919050565b828054600181600116156101000203166002900490600052602060002090601f016020900481019282601f10610d5f57805160ff1916838001178555610d8d565b82800160010185558215610d8d579182015b82811115610d8c578251825591602001919060010190610d71565b5b509050610d9a9190610eb9565b5090565b828054600181600116156101000203166002900490600052602060002090601f016020900481019282601f10610dd75780548555610e14565b82800160010185558215610e1457600052602060002091601f016020900482015b82811115610e13578254825591600101919060010190610df8565b5b509050610e219190610eb9565b5090565b828054828255906000526020600020906003028101928215610ea85760005260206000209160030282015b82811115610ea75782826000820154816000015560018201816001019080546001816001161561010002031660029004610e8b929190610d9e565b5060028201548160020155505091600301919060030190610e50565b5b509050610eb59190610ede565b5090565b610edb91905b80821115610ed7576000816000905550600101610ebf565b5090565b90565b610f1a91905b80821115610f1657600080820160009055600182016000610f059190610f1d565b600282016000905550600301610ee4565b5090565b90565b50805460018160011615610100020316600290046000825580601f10610f435750610f62565b601f016020900490600052602060002090810190610f619190610eb9565b5b505600a165627a7a7230582076b714d672f90e800ee0384e3b86a1759ef1882bbcfb726ad5aa97a2304fee470029",
  "source": "pragma solidity ^0.4.17;\n\ncontract Contracts {\n\n    address Admin;\n    // Model a Contract\n    struct Contract {\n        uint id;\n        string contractNum;\n        string description;\n        uint timestamp;\n        uint amount;\n        address contractAddress;\n        ContractRows[] crows;\n    }\n\n    struct ContractRows {\n        uint id;\n        string article;\n        uint amount;\n    }\n    // Contract[] public contracts;          // All contracts\n    mapping(uint => Contract) public contracts;\n    uint public contractCount;\n\n    constructor () payable {\n        Admin = msg.sender;\n        createContract(\"0001\", \"первый контракт\", 100);\n        createContract(\"0002\", \"второй контракт\", 300);\n    }\n    // Create an auction, transfer the item to this contract, activate the auction\n    function createContract (\n        string _contractNum,\n        string _description,\n        uint _amount\n    ) public\n        returns (uint contractId) {\n        contractCount ++;\n        Contract storage c = contracts[contractCount];\n        c.id = contractCount;\n        c.contractNum = _contractNum;\n        c.description = _description;\n        c.timestamp = now;\n        c.amount = _amount;\n        c.contractAddress = msg.sender;\n\n        contracts[contractCount] = c;\n        return contractCount;\n    }\n\n    function getContract(uint idx) public constant returns (\n        string,\n        string,\n        uint,\n        uint,\n        address) {\n        return (\n            contracts[idx].contractNum,\n            contracts[idx].description,\n            contracts[idx].timestamp,\n            contracts[idx].amount,\n            contracts[idx].contractAddress\n        );\n    }\n\n    function getContractCount() public returns (uint) {\n        return contractCount;\n    }\n\n    function updateContract(\n        uint idx,\n        string _contractNum,\n        string _description,\n        uint _amount\n        ) public returns (bool)\n    {\n        Contract storage c = contracts[idx];\n        require (msg.sender == c.contractAddress, \"Only owner can change\");\n\n        c.contractNum = _contractNum;\n        c.description = _description;\n        c.timestamp = now;\n        c.amount = _amount;\n        c.contractAddress = msg.sender;\n        return true;\n    }\n\n    function buyContract(uint idx) public  payable returns (bool) {\n        Contract storage c = contracts[idx];\n        \n        address payee = msg.sender;\n        uint256 payment = c.amount;\n\n        require(payment != 0);\n        require(address(this).balance >= payment);\n\n        payee.transfer(payment);\n        c.contractAddress = msg.sender;\n        return true;\n    }\n}\n",
  "sourcePath": "/home/sok/code/test_dapp/contracts/Contracts.sol",
  "compiler": {
    "name": "solc",
    "version": "0.4.23+commit.124ca40d.Emscripten.clang"
  },
  "schemaVersion": "2.0.0",
  "updatedAt": "2018-05-19T11:11:51.571Z"
}