{
  "contractName": "Contracts",
  "abi": [
    {
      "constant": true,
      "inputs": [
        {
          "name": "",
          "type": "uint256"
        }
      ],
      "name": "contracts",
      "outputs": [
        {
          "name": "id",
          "type": "uint256"
        },
        {
          "name": "contractNum",
          "type": "string"
        },
        {
          "name": "description",
          "type": "string"
        },
        {
          "name": "timestamp",
          "type": "uint256"
        },
        {
          "name": "amount",
          "type": "uint256"
        },
        {
          "name": "contractAddress",
          "type": "address"
        }
      ],
      "payable": false,
      "stateMutability": "view",
      "type": "function"
    },
    {
      "constant": true,
      "inputs": [],
      "name": "contractCount",
      "outputs": [
        {
          "name": "",
          "type": "uint256"
        }
      ],
      "payable": false,
      "stateMutability": "view",
      "type": "function"
    },
    {
      "inputs": [],
      "payable": false,
      "stateMutability": "nonpayable",
      "type": "constructor"
    },
    {
      "constant": false,
      "inputs": [
        {
          "name": "_contractNum",
          "type": "string"
        },
        {
          "name": "_description",
          "type": "string"
        },
        {
          "name": "_amount",
          "type": "uint256"
        },
        {
          "name": "_contractAddress",
          "type": "address"
        }
      ],
      "name": "createContract",
      "outputs": [
        {
          "name": "contractId",
          "type": "uint256"
        }
      ],
      "payable": false,
      "stateMutability": "nonpayable",
      "type": "function"
    },
    {
      "constant": true,
      "inputs": [
        {
          "name": "idx",
          "type": "uint256"
        }
      ],
      "name": "getContract",
      "outputs": [
        {
          "name": "",
          "type": "string"
        },
        {
          "name": "",
          "type": "string"
        },
        {
          "name": "",
          "type": "uint256"
        },
        {
          "name": "",
          "type": "uint256"
        },
        {
          "name": "",
          "type": "address"
        }
      ],
      "payable": false,
      "stateMutability": "view",
      "type": "function"
    },
    {
      "constant": false,
      "inputs": [],
      "name": "getContractCount",
      "outputs": [
        {
          "name": "",
          "type": "uint256"
        }
      ],
      "payable": false,
      "stateMutability": "nonpayable",
      "type": "function"
    }
  ],
  "bytecode": "0x608060405234801561001057600080fd5b50610bd3806100206000396000f30060806040526004361061006d576000357c0100000000000000000000000000000000000000000000000000000000900463ffffffff1680631d24d1ef14610072578063474da79a1461015f5780636ebc8c86146102b95780638736381a1461040c5780639399869d14610437575b600080fd5b34801561007e57600080fd5b50610149600480360381019080803590602001908201803590602001908080601f0160208091040260200160405190810160405280939291908181526020018383808284378201915050505050509192919290803590602001908201803590602001908080601f016020809104026020016040519081016040528093929190818152602001838380828437820191505050505050919291929080359060200190929190803573ffffffffffffffffffffffffffffffffffffffff169060200190929190505050610462565b6040518082815260200191505060405180910390f35b34801561016b57600080fd5b5061018a60048036038101908080359060200190929190505050610624565b6040518087815260200180602001806020018681526020018581526020018473ffffffffffffffffffffffffffffffffffffffff1673ffffffffffffffffffffffffffffffffffffffff168152602001838103835288818151815260200191508051906020019080838360005b838110156102125780820151818401526020810190506101f7565b50505050905090810190601f16801561023f5780820380516001836020036101000a031916815260200191505b50838103825287818151815260200191508051906020019080838360005b8381101561027857808201518184015260208101905061025d565b50505050905090810190601f1680156102a55780820380516001836020036101000a031916815260200191505b509850505050505050505060405180910390f35b3480156102c557600080fd5b506102e4600480360381019080803590602001909291905050506107b0565b6040518080602001806020018681526020018581526020018473ffffffffffffffffffffffffffffffffffffffff1673ffffffffffffffffffffffffffffffffffffffff168152602001838103835288818151815260200191508051906020019080838360005b8381101561036657808201518184015260208101905061034b565b50505050905090810190601f1680156103935780820380516001836020036101000a031916815260200191505b50838103825287818151815260200191508051906020019080838360005b838110156103cc5780820151818401526020810190506103b1565b50505050905090810190601f1680156103f95780820380516001836020036101000a031916815260200191505b5097505050505050505060405180910390f35b34801561041857600080fd5b50610421610950565b6040518082815260200191505060405180910390f35b34801561044357600080fd5b5061044c610956565b6040518082815260200191505060405180910390f35b6000806001600081548092919060010191905055506000808381526020019081526020016000209050858160010190805190602001906104a3929190610960565b50848160020190805190602001906104bc929190610960565b50428160030181905550838160040181905550828160050160006101000a81548173ffffffffffffffffffffffffffffffffffffffff021916908373ffffffffffffffffffffffffffffffffffffffff16021790555080600080600154815260200190815260200160002060008201548160000155600182018160010190805460018160011615610100020316600290046105589291906109e0565b50600282018160020190805460018160011615610100020316600290046105809291906109e0565b5060038201548160030155600482015481600401556005820160009054906101000a900473ffffffffffffffffffffffffffffffffffffffff168160050160006101000a81548173ffffffffffffffffffffffffffffffffffffffff021916908373ffffffffffffffffffffffffffffffffffffffff1602179055506006820181600601908054610612929190610a67565b50905050600154915050949350505050565b6000602052806000526040600020600091509050806000015490806001018054600181600116156101000203166002900480601f0160208091040260200160405190810160405280929190818152602001828054600181600116156101000203166002900480156106d65780601f106106ab576101008083540402835291602001916106d6565b820191906000526020600020905b8154815290600101906020018083116106b957829003601f168201915b505050505090806002018054600181600116156101000203166002900480601f0160208091040260200160405190810160405280929190818152602001828054600181600116156101000203166002900480156107745780601f1061074957610100808354040283529160200191610774565b820191906000526020600020905b81548152906001019060200180831161075757829003601f168201915b5050505050908060030154908060040154908060050160009054906101000a900473ffffffffffffffffffffffffffffffffffffffff16905086565b60608060008060008060008088815260200190815260200160002090508060010181600201826003015483600401548460050160009054906101000a900473ffffffffffffffffffffffffffffffffffffffff16848054600181600116156101000203166002900480601f0160208091040260200160405190810160405280929190818152602001828054600181600116156101000203166002900480156108995780601f1061086e57610100808354040283529160200191610899565b820191906000526020600020905b81548152906001019060200180831161087c57829003601f168201915b50505050509450838054600181600116156101000203166002900480601f0160208091040260200160405190810160405280929190818152602001828054600181600116156101000203166002900480156109355780601f1061090a57610100808354040283529160200191610935565b820191906000526020600020905b81548152906001019060200180831161091857829003601f168201915b50505050509350955095509550955095505091939590929450565b60015481565b6000600154905090565b828054600181600116156101000203166002900490600052602060002090601f016020900481019282601f106109a157805160ff19168380011785556109cf565b828001600101855582156109cf579182015b828111156109ce5782518255916020019190600101906109b3565b5b5090506109dc9190610afb565b5090565b828054600181600116156101000203166002900490600052602060002090601f016020900481019282601f10610a195780548555610a56565b82800160010185558215610a5657600052602060002091601f016020900482015b82811115610a55578254825591600101919060010190610a3a565b5b509050610a639190610afb565b5090565b828054828255906000526020600020906003028101928215610aea5760005260206000209160030282015b82811115610ae95782826000820154816000015560018201816001019080546001816001161561010002031660029004610acd9291906109e0565b5060028201548160020155505091600301919060030190610a92565b5b509050610af79190610b20565b5090565b610b1d91905b80821115610b19576000816000905550600101610b01565b5090565b90565b610b5c91905b80821115610b5857600080820160009055600182016000610b479190610b5f565b600282016000905550600301610b26565b5090565b90565b50805460018160011615610100020316600290046000825580601f10610b855750610ba4565b601f016020900490600052602060002090810190610ba39190610afb565b5b505600a165627a7a72305820d3c522c5741504991351901d176bdb540ce635458f92267721d9bc30350a38350029",
  "source": "pragma solidity ^0.4.17;\n\ncontract Contracts {\n    // Model a Candidate\n    struct Contract {\n        uint id;\n        string contractNum;\n        string description;\n        uint timestamp;\n        uint amount;\n        address contractAddress;\n        ContractRows[] crows;\n    }\n\n    struct ContractRows {\n        uint id;\n        string article;\n        uint amount;\n    }\n    // Contract[] public contracts;          // All contracts\n    mapping(uint => Contract) public contracts;\n    uint public contractCount;\n\n    constructor () public {\n\n    }\n    // Create an auction, transfer the item to this contract, activate the auction\n    function createContract (\n        string _contractNum,\n        string _description,\n        uint _amount,\n        address _contractAddress\n    ) public\n        returns (uint contractId) {\n        contractCount ++;\n        Contract storage c = contracts[contractId];\n        c.contractNum = _contractNum;\n        c.description = _description;\n        c.timestamp =  now;\n        c.amount = _amount;\n        c.contractAddress = _contractAddress;\n\n        contracts[contractCount] = c;\n        return contractCount;\n    }\n\n    function getContract(uint idx) public constant returns (\n        string,\n        string,\n        uint,\n        uint,\n        address) {\n        Contract c = contracts[idx];\n        // return (contracts[idx].contractNum, contracts[idx].description, contracts[idx].timestamp, contracts[idx].amount, contracts[idx].contractAddress);\n        return (c.contractNum, c.description, c.timestamp, c.amount, c.contractAddress);\n    }\n\n    function getContractCount() public returns (uint) {\n        return contractCount;\n    }\n\n\n}\n",
  "sourcePath": "/home/sok/code/test_dapp/contracts/Contracts.sol",
  "compiler": {
    "name": "solc",
    "version": "0.4.23+commit.124ca40d.Emscripten.clang"
  },
  "schemaVersion": "2.0.0",
  "updatedAt": "2018-05-16T17:27:33.696Z"
}