{
  "contractName": "Contracts",
  "abi": [
    {
      "constant": true,
      "inputs": [
        {
          "name": "",
          "type": "uint256"
        }
      ],
      "name": "contracts",
      "outputs": [
        {
          "name": "id",
          "type": "uint256"
        },
        {
          "name": "contractNum",
          "type": "string"
        },
        {
          "name": "description",
          "type": "string"
        },
        {
          "name": "timestamp",
          "type": "uint256"
        },
        {
          "name": "amount",
          "type": "uint256"
        },
        {
          "name": "contractAddress",
          "type": "address"
        }
      ],
      "payable": false,
      "stateMutability": "view",
      "type": "function"
    },
    {
      "constant": true,
      "inputs": [],
      "name": "contractCount",
      "outputs": [
        {
          "name": "",
          "type": "uint256"
        }
      ],
      "payable": false,
      "stateMutability": "view",
      "type": "function"
    },
    {
      "inputs": [],
      "payable": true,
      "stateMutability": "payable",
      "type": "constructor"
    },
    {
      "constant": false,
      "inputs": [
        {
          "name": "_contractNum",
          "type": "string"
        },
        {
          "name": "_description",
          "type": "string"
        },
        {
          "name": "_amount",
          "type": "uint256"
        }
      ],
      "name": "createContract",
      "outputs": [
        {
          "name": "contractId",
          "type": "uint256"
        }
      ],
      "payable": false,
      "stateMutability": "nonpayable",
      "type": "function"
    },
    {
      "constant": true,
      "inputs": [
        {
          "name": "idx",
          "type": "uint256"
        }
      ],
      "name": "getContract",
      "outputs": [
        {
          "name": "",
          "type": "string"
        },
        {
          "name": "",
          "type": "string"
        },
        {
          "name": "",
          "type": "uint256"
        },
        {
          "name": "",
          "type": "uint256"
        },
        {
          "name": "",
          "type": "address"
        }
      ],
      "payable": false,
      "stateMutability": "view",
      "type": "function"
    },
    {
      "constant": false,
      "inputs": [],
      "name": "getContractCount",
      "outputs": [
        {
          "name": "",
          "type": "uint256"
        }
      ],
      "payable": false,
      "stateMutability": "nonpayable",
      "type": "function"
    },
    {
      "constant": false,
      "inputs": [
        {
          "name": "idx",
          "type": "uint256"
        },
        {
          "name": "_contractNum",
          "type": "string"
        },
        {
          "name": "_description",
          "type": "string"
        },
        {
          "name": "_amount",
          "type": "uint256"
        }
      ],
      "name": "updateContract",
      "outputs": [
        {
          "name": "",
          "type": "bool"
        }
      ],
      "payable": false,
      "stateMutability": "nonpayable",
      "type": "function"
    },
    {
      "constant": false,
      "inputs": [
        {
          "name": "idx",
          "type": "uint256"
        }
      ],
      "name": "buyContract",
      "outputs": [
        {
          "name": "",
          "type": "bool"
        }
      ],
      "payable": false,
      "stateMutability": "nonpayable",
      "type": "function"
    }
  ],
  "bytecode": "0x6080604052336000806101000a81548173ffffffffffffffffffffffffffffffffffffffff021916908373ffffffffffffffffffffffffffffffffffffffff160217905550620000cb6040805190810160405280600481526020017f30303031000000000000000000000000000000000000000000000000000000008152506040805190810160405280601d81526020017fd0bfd0b5d180d0b2d18bd0b920d0bad0bed0bdd182d180d0b0d0bad18200000081525060646200015b640100000000026401000000009004565b50620001546040805190810160405280600481526020017f30303032000000000000000000000000000000000000000000000000000000008152506040805190810160405280601d81526020017fd0b2d182d0bed180d0bed0b920d0bad0bed0bdd182d180d0b0d0bad18200000081525061012c6200015b640100000000026401000000009004565b5062000590565b600080600260008154809291906001019190505550600160008381526020019081526020016000209050848160010190805190602001906200019f92919062000328565b5083816002019080519060200190620001ba92919062000328565b50428160030181905550828160040181905550338160050160006101000a81548173ffffffffffffffffffffffffffffffffffffffff021916908373ffffffffffffffffffffffffffffffffffffffff16021790555080600160006002548152602001908152602001600020600082015481600001556001820181600101908054600181600116156101000203166002900462000259929190620003af565b506002820181600201908054600181600116156101000203166002900462000283929190620003af565b5060038201548160030155600482015481600401556005820160009054906101000a900473ffffffffffffffffffffffffffffffffffffffff168160050160006101000a81548173ffffffffffffffffffffffffffffffffffffffff021916908373ffffffffffffffffffffffffffffffffffffffff1602179055506006820181600601908054620003179291906200043d565b509050506002549150509392505050565b828054600181600116156101000203166002900490600052602060002090601f016020900481019282601f106200036b57805160ff19168380011785556200039c565b828001600101855582156200039c579182015b828111156200039b5782518255916020019190600101906200037e565b5b509050620003ab9190620004d8565b5090565b828054600181600116156101000203166002900490600052602060002090601f016020900481019282601f10620003ea57805485556200042a565b828001600101855582156200042a57600052602060002091601f016020900482015b82811115620004295782548255916001019190600101906200040c565b5b509050620004399190620004d8565b5090565b828054828255906000526020600020906003028101928215620004c55760005260206000209160030282015b82811115620004c45782826000820154816000015560018201816001019080546001816001161561010002031660029004620004a7929190620003af565b506002820154816002015550509160030191906003019062000469565b5b509050620004d4919062000500565b5090565b620004fd91905b80821115620004f9576000816000905550600101620004df565b5090565b90565b6200054191905b808211156200053d576000808201600090556001820160006200052b919062000544565b60028201600090555060030162000507565b5090565b90565b50805460018160011615610100020316600290046000825580601f106200056c57506200058d565b601f0160209004906000526020600020908101906200058c9190620004d8565b5b50565b610f0580620005a06000396000f300608060405260043610610082576000357c0100000000000000000000000000000000000000000000000000000000900463ffffffff1680620fd1701461008757806328c35bae14610154578063474da79a1461022f5780636ebc8c86146103895780638736381a146104dc5780639399869d14610507578063d439944514610532575b600080fd5b34801561009357600080fd5b5061013e600480360381019080803590602001908201803590602001908080601f0160208091040260200160405190810160405280939291908181526020018383808284378201915050505050509192919290803590602001908201803590602001908080601f016020809104026020016040519081016040528093929190818152602001838380828437820191505050505050919291929080359060200190929190505050610577565b6040518082815260200191505060405180910390f35b34801561016057600080fd5b5061021560048036038101908080359060200190929190803590602001908201803590602001908080601f0160208091040260200160405190810160405280939291908181526020018383808284378201915050505050509192919290803590602001908201803590602001908080601f01602080910402602001604051908101604052809392919081815260200183838082843782019150505050505091929192908035906020019092919050505061073a565b604051808215151515815260200191505060405180910390f35b34801561023b57600080fd5b5061025a600480360381019080803590602001909291905050506108ad565b6040518087815260200180602001806020018681526020018581526020018473ffffffffffffffffffffffffffffffffffffffff1673ffffffffffffffffffffffffffffffffffffffff168152602001838103835288818151815260200191508051906020019080838360005b838110156102e25780820151818401526020810190506102c7565b50505050905090810190601f16801561030f5780820380516001836020036101000a031916815260200191505b50838103825287818151815260200191508051906020019080838360005b8381101561034857808201518184015260208101905061032d565b50505050905090810190601f1680156103755780820380516001836020036101000a031916815260200191505b509850505050505050505060405180910390f35b34801561039557600080fd5b506103b460048036038101908080359060200190929190505050610a39565b6040518080602001806020018681526020018581526020018473ffffffffffffffffffffffffffffffffffffffff1673ffffffffffffffffffffffffffffffffffffffff168152602001838103835288818151815260200191508051906020019080838360005b8381101561043657808201518184015260208101905061041b565b50505050905090810190601f1680156104635780820380516001836020036101000a031916815260200191505b50838103825287818151815260200191508051906020019080838360005b8381101561049c578082015181840152602081019050610481565b50505050905090810190601f1680156104c95780820380516001836020036101000a031916815260200191505b5097505050505050505060405180910390f35b3480156104e857600080fd5b506104f1610c1d565b6040518082815260200191505060405180910390f35b34801561051357600080fd5b5061051c610c23565b6040518082815260200191505060405180910390f35b34801561053e57600080fd5b5061055d60048036038101908080359060200190929190505050610c2d565b604051808215151515815260200191505060405180910390f35b600080600260008154809291906001019190505550600160008381526020019081526020016000209050848160010190805190602001906105b9929190610c92565b50838160020190805190602001906105d2929190610c92565b50428160030181905550828160040181905550338160050160006101000a81548173ffffffffffffffffffffffffffffffffffffffff021916908373ffffffffffffffffffffffffffffffffffffffff16021790555080600160006002548152602001908152602001600020600082015481600001556001820181600101908054600181600116156101000203166002900461066f929190610d12565b5060028201816002019080546001816001161561010002031660029004610697929190610d12565b5060038201548160030155600482015481600401556005820160009054906101000a900473ffffffffffffffffffffffffffffffffffffffff168160050160006101000a81548173ffffffffffffffffffffffffffffffffffffffff021916908373ffffffffffffffffffffffffffffffffffffffff1602179055506006820181600601908054610729929190610d99565b509050506002549150509392505050565b6000806001600087815260200190815260200160002090508060050160009054906101000a900473ffffffffffffffffffffffffffffffffffffffff1673ffffffffffffffffffffffffffffffffffffffff163373ffffffffffffffffffffffffffffffffffffffff16141515610819576040517f08c379a00000000000000000000000000000000000000000000000000000000081526004018080602001828103825260158152602001807f4f6e6c79206f776e65722063616e206368616e6765000000000000000000000081525060200191505060405180910390fd5b84816001019080519060200190610831929190610c92565b508381600201908051906020019061084a929190610c92565b50428160030181905550828160040181905550338160050160006101000a81548173ffffffffffffffffffffffffffffffffffffffff021916908373ffffffffffffffffffffffffffffffffffffffff1602179055506001915050949350505050565b6001602052806000526040600020600091509050806000015490806001018054600181600116156101000203166002900480601f01602080910402602001604051908101604052809291908181526020018280546001816001161561010002031660029004801561095f5780601f106109345761010080835404028352916020019161095f565b820191906000526020600020905b81548152906001019060200180831161094257829003601f168201915b505050505090806002018054600181600116156101000203166002900480601f0160208091040260200160405190810160405280929190818152602001828054600181600116156101000203166002900480156109fd5780601f106109d2576101008083540402835291602001916109fd565b820191906000526020600020905b8154815290600101906020018083116109e057829003601f168201915b5050505050908060030154908060040154908060050160009054906101000a900473ffffffffffffffffffffffffffffffffffffffff16905086565b606080600080600060016000878152602001908152602001600020600101600160008881526020019081526020016000206002016001600089815260200190815260200160002060030154600160008a815260200190815260200160002060040154600160008b815260200190815260200160002060050160009054906101000a900473ffffffffffffffffffffffffffffffffffffffff16848054600181600116156101000203166002900480601f016020809104026020016040519081016040528092919081815260200182805460018160011615610100020316600290048015610b675780601f10610b3c57610100808354040283529160200191610b67565b820191906000526020600020905b815481529060010190602001808311610b4a57829003601f168201915b50505050509450838054600181600116156101000203166002900480601f016020809104026020016040519081016040528092919081815260200182805460018160011615610100020316600290048015610c035780601f10610bd857610100808354040283529160200191610c03565b820191906000526020600020905b815481529060010190602001808311610be657829003601f168201915b505050505093509450945094509450945091939590929450565b60025481565b6000600254905090565b600080600160008481526020019081526020016000209050338160050160006101000a81548173ffffffffffffffffffffffffffffffffffffffff021916908373ffffffffffffffffffffffffffffffffffffffff1602179055506001915050919050565b828054600181600116156101000203166002900490600052602060002090601f016020900481019282601f10610cd357805160ff1916838001178555610d01565b82800160010185558215610d01579182015b82811115610d00578251825591602001919060010190610ce5565b5b509050610d0e9190610e2d565b5090565b828054600181600116156101000203166002900490600052602060002090601f016020900481019282601f10610d4b5780548555610d88565b82800160010185558215610d8857600052602060002091601f016020900482015b82811115610d87578254825591600101919060010190610d6c565b5b509050610d959190610e2d565b5090565b828054828255906000526020600020906003028101928215610e1c5760005260206000209160030282015b82811115610e1b5782826000820154816000015560018201816001019080546001816001161561010002031660029004610dff929190610d12565b5060028201548160020155505091600301919060030190610dc4565b5b509050610e299190610e52565b5090565b610e4f91905b80821115610e4b576000816000905550600101610e33565b5090565b90565b610e8e91905b80821115610e8a57600080820160009055600182016000610e799190610e91565b600282016000905550600301610e58565b5090565b90565b50805460018160011615610100020316600290046000825580601f10610eb75750610ed6565b601f016020900490600052602060002090810190610ed59190610e2d565b5b505600a165627a7a7230582040d4bd42b56e96edd72c5817ad3bde87d25e419e88bba83a68af1a97f40d689a0029",
  "source": "pragma solidity ^0.4.17;\r\n\r\ncontract Contracts {\r\n\r\n    address Admin;\r\n    // Model a Contract\r\n    struct Contract {\r\n        uint id;\r\n        string contractNum;\r\n        string description;\r\n        uint timestamp;\r\n        uint amount;\r\n        address contractAddress;\r\n        ContractRows[] crows;\r\n    }\r\n\r\n    struct ContractRows {\r\n        uint id;\r\n        string article;\r\n        uint amount;\r\n    }\r\n    // Contract[] public contracts;          // All contracts\r\n    mapping(uint => Contract) public contracts;\r\n    uint public contractCount;\r\n\r\n    constructor () payable {\r\n        Admin = msg.sender;\r\n        createContract(\"0001\", \"первый контракт\", 100);\r\n        createContract(\"0002\", \"второй контракт\", 300);\r\n    }\r\n    // Create an auction, transfer the item to this contract, activate the auction\r\n    function createContract (\r\n        string _contractNum,\r\n        string _description,\r\n        uint _amount\r\n    ) public\r\n        returns (uint contractId) {\r\n        contractCount ++;\r\n        Contract storage c = contracts[contractId];\r\n        c.contractNum = _contractNum;\r\n        c.description = _description;\r\n        c.timestamp = now;\r\n        c.amount = _amount;\r\n        c.contractAddress = msg.sender;\r\n\r\n        contracts[contractCount] = c;\r\n        return contractCount;\r\n    }\r\n\r\n    function getContract(uint idx) public constant returns (\r\n        string,\r\n        string,\r\n        uint,\r\n        uint,\r\n        address) {\r\n        return (\r\n            contracts[idx].contractNum,\r\n            contracts[idx].description,\r\n            contracts[idx].timestamp,\r\n            contracts[idx].amount,\r\n            contracts[idx].contractAddress\r\n        );\r\n    }\r\n\r\n    function getContractCount() public returns (uint) {\r\n        return contractCount;\r\n    }\r\n\r\n    function updateContract(\r\n        uint idx,\r\n        string _contractNum,\r\n        string _description,\r\n        uint _amount\r\n        ) public returns (bool)\r\n    {\r\n        Contract storage c = contracts[idx];\r\n        require (msg.sender == c.contractAddress, \"Only owner can change\");\r\n\r\n        c.contractNum = _contractNum;\r\n        c.description = _description;\r\n        c.timestamp = now;\r\n        c.amount = _amount;\r\n        c.contractAddress = msg.sender;\r\n        return true;\r\n    }\r\n\r\n    function buyContract(uint idx) public returns (bool) {\r\n        Contract storage c = contracts[idx];\r\n        c.contractAddress = msg.sender;\r\n        return true;\r\n    }\r\n}\r\n",
  "sourcePath": "/home/mi.sokoluk/code/blockchainapp/contracts/Contracts.sol",
  "compiler": {
    "name": "solc",
    "version": "0.4.23+commit.124ca40d.Emscripten.clang"
  },
  "schemaVersion": "2.0.0",
  "updatedAt": "2018-05-18T05:57:10.223Z"
}