{
  "contractName": "Contracts",
  "abi": [
    {
      "constant": true,
      "inputs": [
        {
          "name": "",
          "type": "uint256"
        }
      ],
      "name": "contracts",
      "outputs": [
        {
          "name": "id",
          "type": "uint256"
        },
        {
          "name": "contractNum",
          "type": "string"
        },
        {
          "name": "description",
          "type": "string"
        },
        {
          "name": "timestamp",
          "type": "uint256"
        },
        {
          "name": "amount",
          "type": "uint256"
        },
        {
          "name": "contractAddress",
          "type": "address"
        }
      ],
      "payable": false,
      "stateMutability": "view",
      "type": "function"
    },
    {
      "constant": true,
      "inputs": [
        {
          "name": "",
          "type": "uint256"
        }
      ],
      "name": "contractById",
      "outputs": [
        {
          "name": "id",
          "type": "uint256"
        },
        {
          "name": "contractNum",
          "type": "string"
        },
        {
          "name": "description",
          "type": "string"
        },
        {
          "name": "timestamp",
          "type": "uint256"
        },
        {
          "name": "amount",
          "type": "uint256"
        },
        {
          "name": "contractAddress",
          "type": "address"
        }
      ],
      "payable": false,
      "stateMutability": "view",
      "type": "function"
    },
    {
      "inputs": [],
      "payable": false,
      "stateMutability": "nonpayable",
      "type": "constructor"
    },
    {
      "constant": false,
      "inputs": [
        {
          "name": "_contractNum",
          "type": "string"
        },
        {
          "name": "_description",
          "type": "string"
        },
        {
          "name": "_amount",
          "type": "uint256"
        },
        {
          "name": "_contractAddress",
          "type": "address"
        }
      ],
      "name": "createContract",
      "outputs": [
        {
          "name": "contractId",
          "type": "uint256"
        }
      ],
      "payable": false,
      "stateMutability": "nonpayable",
      "type": "function"
    },
    {
      "constant": false,
      "inputs": [
        {
          "name": "idx",
          "type": "uint256"
        }
      ],
      "name": "getContract",
      "outputs": [
        {
          "name": "",
          "type": "string"
        },
        {
          "name": "",
          "type": "string"
        },
        {
          "name": "",
          "type": "uint256"
        },
        {
          "name": "",
          "type": "uint256"
        },
        {
          "name": "",
          "type": "address"
        }
      ],
      "payable": false,
      "stateMutability": "nonpayable",
      "type": "function"
    },
    {
      "constant": false,
      "inputs": [],
      "name": "getContractCount",
      "outputs": [
        {
          "name": "",
          "type": "uint256"
        }
      ],
      "payable": false,
      "stateMutability": "nonpayable",
      "type": "function"
    }
  ],
  "bytecode": "0x608060405234801561001057600080fd5b50610d75806100206000396000f30060806040526004361061006d576000357c0100000000000000000000000000000000000000000000000000000000900463ffffffff1680631d24d1ef14610072578063474da79a1461015f5780636ebc8c86146102b95780639399869d1461040c578063b51e27eb14610437575b600080fd5b34801561007e57600080fd5b50610149600480360381019080803590602001908201803590602001908080601f0160208091040260200160405190810160405280939291908181526020018383808284378201915050505050509192919290803590602001908201803590602001908080601f016020809104026020016040519081016040528093929190818152602001838380828437820191505050505050919291929080359060200190929190803573ffffffffffffffffffffffffffffffffffffffff169060200190929190505050610591565b6040518082815260200191505060405180910390f35b34801561016b57600080fd5b5061018a6004803603810190808035906020019092919050505061065d565b6040518087815260200180602001806020018681526020018581526020018473ffffffffffffffffffffffffffffffffffffffff1673ffffffffffffffffffffffffffffffffffffffff168152602001838103835288818151815260200191508051906020019080838360005b838110156102125780820151818401526020810190506101f7565b50505050905090810190601f16801561023f5780820380516001836020036101000a031916815260200191505b50838103825287818151815260200191508051906020019080838360005b8381101561027857808201518184015260208101905061025d565b50505050905090810190601f1680156102a55780820380516001836020036101000a031916815260200191505b509850505050505050505060405180910390f35b3480156102c557600080fd5b506102e4600480360381019080803590602001909291905050506107f8565b6040518080602001806020018681526020018581526020018473ffffffffffffffffffffffffffffffffffffffff1673ffffffffffffffffffffffffffffffffffffffff168152602001838103835288818151815260200191508051906020019080838360005b8381101561036657808201518184015260208101905061034b565b50505050905090810190601f1680156103935780820380516001836020036101000a031916815260200191505b50838103825287818151815260200191508051906020019080838360005b838110156103cc5780820151818401526020810190506103b1565b50505050905090810190601f1680156103f95780820380516001836020036101000a031916815260200191505b5097505050505050505060405180910390f35b34801561041857600080fd5b506104216109a3565b6040518082815260200191505060405180910390f35b34801561044357600080fd5b50610462600480360381019080803590602001909291905050506109ad565b6040518087815260200180602001806020018681526020018581526020018473ffffffffffffffffffffffffffffffffffffffff1673ffffffffffffffffffffffffffffffffffffffff168152602001838103835288818151815260200191508051906020019080838360005b838110156104ea5780820151818401526020810190506104cf565b50505050905090810190601f1680156105175780820380516001836020036101000a031916815260200191505b50838103825287818151815260200191508051906020019080838360005b83811015610550578082015181840152602081019050610535565b50505050905090810190601f16801561057d5780820380516001836020036101000a031916815260200191505b509850505050505050505060405180910390f35b600080600080548091906001016105a89190610b39565b91506000828154811015156105b957fe5b90600052602060002090600702019050858160010190805190602001906105e1929190610b6b565b50848160020190805190602001906105fa929190610b6b565b50428160030181905550838160040181905550828160050160006101000a81548173ffffffffffffffffffffffffffffffffffffffff021916908373ffffffffffffffffffffffffffffffffffffffff1602179055506029915050949350505050565b60008181548110151561066c57fe5b9060005260206000209060070201600091509050806000015490806001018054600181600116156101000203166002900480601f01602080910402602001604051908101604052809291908181526020018280546001816001161561010002031660029004801561071e5780601f106106f35761010080835404028352916020019161071e565b820191906000526020600020905b81548152906001019060200180831161070157829003601f168201915b505050505090806002018054600181600116156101000203166002900480601f0160208091040260200160405190810160405280929190818152602001828054600181600116156101000203166002900480156107bc5780601f10610791576101008083540402835291602001916107bc565b820191906000526020600020905b81548152906001019060200180831161079f57829003601f168201915b5050505050908060030154908060040154908060050160009054906101000a900473ffffffffffffffffffffffffffffffffffffffff16905086565b60608060008060008060008781548110151561081057fe5b906000526020600020906007020190508060010181600201826003015483600401548460050160009054906101000a900473ffffffffffffffffffffffffffffffffffffffff16848054600181600116156101000203166002900480601f0160208091040260200160405190810160405280929190818152602001828054600181600116156101000203166002900480156108ec5780601f106108c1576101008083540402835291602001916108ec565b820191906000526020600020905b8154815290600101906020018083116108cf57829003601f168201915b50505050509450838054600181600116156101000203166002900480601f0160208091040260200160405190810160405280929190818152602001828054600181600116156101000203166002900480156109885780601f1061095d57610100808354040283529160200191610988565b820191906000526020600020905b81548152906001019060200180831161096b57829003601f168201915b50505050509350955095509550955095505091939590929450565b60006104c5905090565b6001602052806000526040600020600091509050806000015490806001018054600181600116156101000203166002900480601f016020809104026020016040519081016040528092919081815260200182805460018160011615610100020316600290048015610a5f5780601f10610a3457610100808354040283529160200191610a5f565b820191906000526020600020905b815481529060010190602001808311610a4257829003601f168201915b505050505090806002018054600181600116156101000203166002900480601f016020809104026020016040519081016040528092919081815260200182805460018160011615610100020316600290048015610afd5780601f10610ad257610100808354040283529160200191610afd565b820191906000526020600020905b815481529060010190602001808311610ae057829003601f168201915b5050505050908060030154908060040154908060050160009054906101000a900473ffffffffffffffffffffffffffffffffffffffff16905086565b815481835581811115610b6657600702816007028360005260206000209182019101610b659190610beb565b5b505050565b828054600181600116156101000203166002900490600052602060002090601f016020900481019282601f10610bac57805160ff1916838001178555610bda565b82800160010185558215610bda579182015b82811115610bd9578251825591602001919060010190610bbe565b5b509050610be79190610c79565b5090565b610c7691905b80821115610c7257600080820160009055600182016000610c129190610c9e565b600282016000610c229190610c9e565b600382016000905560048201600090556005820160006101000a81549073ffffffffffffffffffffffffffffffffffffffff0219169055600682016000610c699190610ce6565b50600701610bf1565b5090565b90565b610c9b91905b80821115610c97576000816000905550600101610c7f565b5090565b90565b50805460018160011615610100020316600290046000825580601f10610cc45750610ce3565b601f016020900490600052602060002090810190610ce29190610c79565b5b50565b5080546000825560030290600052602060002090810190610d079190610d0a565b50565b610d4691905b80821115610d4257600080820160009055600182016000610d319190610c9e565b600282016000905550600301610d10565b5090565b905600a165627a7a72305820f805e77a18f28e3040e15fa1081875fef021027f3cf86c087f8f1b905e31e7c10029",
  "source": "pragma solidity ^0.4.17;\n\ncontract Contracts {\n    // Model a Candidate\n    struct Contract {\n        uint id;\n        string contractNum;\n        string description;\n        uint timestamp;\n        uint amount;\n        address contractAddress;\n        ContractRows[] crows;\n    }\n\n    struct ContractRows {\n        uint id;\n        string article;\n        uint amount;\n    }\n    Contract[] public contracts;          // All contracts\n    mapping(uint => Contract) public contractById;\n\n    constructor () public {\n\n    }\n    // Create an auction, transfer the item to this contract, activate the auction\n    function createContract (\n        string _contractNum,\n        string _description,\n        uint _amount,\n        address _contractAddress\n    ) public\n        returns (uint contractId) {\n        contractId = contracts.length++;\n        Contract c = contracts[contractId];\n        c.contractNum = _contractNum;\n        c.description = _description;\n        c.timestamp =  now;\n        c.amount = _amount;\n        c.contractAddress = _contractAddress;\n\n        return 41;\n    }\n\n    function getContract(uint idx) public returns (\n        string,\n        string,\n        uint,\n        uint,\n        address) {\n        Contract c = contracts[idx];\n\n        return (c.contractNum,\n                c.description,\n                c.timestamp,\n                c.amount,\n                c.contractAddress\n        );\n    }\n\n    function getContractCount() public returns (uint) {\n        return 1221;\n        // return contracts.length;\n    }\n\n\n}\n",
  "sourcePath": "/home/mi.sokoluk/code/blockchainapp/contracts/Contracts.sol",
  "compiler": {
    "name": "solc",
    "version": "0.4.23+commit.124ca40d.Emscripten.clang"
  },
  "schemaVersion": "2.0.0",
  "updatedAt": "2018-05-16T12:12:02.005Z"
}