{
  "contractName": "Contracts",
  "abi": [
    {
      "constant": true,
      "inputs": [
        {
          "name": "",
          "type": "uint256"
        }
      ],
      "name": "contractRates",
      "outputs": [
        {
          "name": "id",
          "type": "uint256"
        },
        {
          "name": "contractId",
          "type": "uint256"
        },
        {
          "name": "rateAddress",
          "type": "address"
        },
        {
          "name": "amount",
          "type": "uint256"
        },
        {
          "name": "approve",
          "type": "bool"
        }
      ],
      "payable": false,
      "stateMutability": "view",
      "type": "function"
    },
    {
      "constant": true,
      "inputs": [
        {
          "name": "",
          "type": "uint256"
        }
      ],
      "name": "contracts",
      "outputs": [
        {
          "name": "id",
          "type": "uint256"
        },
        {
          "name": "contractNum",
          "type": "string"
        },
        {
          "name": "description",
          "type": "string"
        },
        {
          "name": "timestamp",
          "type": "uint256"
        },
        {
          "name": "amount",
          "type": "uint256"
        },
        {
          "name": "contractAddress",
          "type": "address"
        },
        {
          "name": "closed",
          "type": "bool"
        }
      ],
      "payable": false,
      "stateMutability": "view",
      "type": "function"
    },
    {
      "constant": true,
      "inputs": [
        {
          "name": "",
          "type": "uint256"
        },
        {
          "name": "",
          "type": "uint256"
        }
      ],
      "name": "rates",
      "outputs": [
        {
          "name": "",
          "type": "uint256"
        }
      ],
      "payable": false,
      "stateMutability": "view",
      "type": "function"
    },
    {
      "constant": true,
      "inputs": [],
      "name": "rateCount",
      "outputs": [
        {
          "name": "",
          "type": "uint256"
        }
      ],
      "payable": false,
      "stateMutability": "view",
      "type": "function"
    },
    {
      "constant": true,
      "inputs": [
        {
          "name": "",
          "type": "address"
        }
      ],
      "name": "accounts",
      "outputs": [
        {
          "name": "accountAddress",
          "type": "address"
        },
        {
          "name": "email",
          "type": "string"
        }
      ],
      "payable": false,
      "stateMutability": "view",
      "type": "function"
    },
    {
      "constant": true,
      "inputs": [
        {
          "name": "",
          "type": "uint256"
        }
      ],
      "name": "contractRatesCnt",
      "outputs": [
        {
          "name": "",
          "type": "uint256"
        }
      ],
      "payable": false,
      "stateMutability": "view",
      "type": "function"
    },
    {
      "constant": true,
      "inputs": [],
      "name": "contractCount",
      "outputs": [
        {
          "name": "",
          "type": "uint256"
        }
      ],
      "payable": false,
      "stateMutability": "view",
      "type": "function"
    },
    {
      "constant": true,
      "inputs": [
        {
          "name": "",
          "type": "uint256"
        }
      ],
      "name": "isRatesContract",
      "outputs": [
        {
          "name": "",
          "type": "bool"
        }
      ],
      "payable": false,
      "stateMutability": "view",
      "type": "function"
    },
    {
      "inputs": [],
      "payable": false,
      "stateMutability": "nonpayable",
      "type": "constructor"
    },
    {
      "constant": false,
      "inputs": [
        {
          "name": "_contractNum",
          "type": "string"
        },
        {
          "name": "_description",
          "type": "string"
        },
        {
          "name": "_amount",
          "type": "uint256"
        }
      ],
      "name": "createContract",
      "outputs": [
        {
          "name": "contractId",
          "type": "uint256"
        }
      ],
      "payable": false,
      "stateMutability": "nonpayable",
      "type": "function"
    },
    {
      "constant": false,
      "inputs": [
        {
          "name": "_email",
          "type": "string"
        }
      ],
      "name": "setAccount",
      "outputs": [],
      "payable": false,
      "stateMutability": "nonpayable",
      "type": "function"
    },
    {
      "constant": false,
      "inputs": [
        {
          "name": "_contractId",
          "type": "uint256"
        },
        {
          "name": "_amount",
          "type": "uint256"
        }
      ],
      "name": "setContractRate",
      "outputs": [],
      "payable": false,
      "stateMutability": "nonpayable",
      "type": "function"
    },
    {
      "constant": false,
      "inputs": [
        {
          "name": "_contractId",
          "type": "uint256"
        },
        {
          "name": "_rateId",
          "type": "uint256"
        },
        {
          "name": "_rateRes",
          "type": "bool"
        }
      ],
      "name": "approveRate",
      "outputs": [],
      "payable": false,
      "stateMutability": "nonpayable",
      "type": "function"
    },
    {
      "constant": true,
      "inputs": [
        {
          "name": "_contractId",
          "type": "uint256"
        }
      ],
      "name": "getContractRateCount",
      "outputs": [
        {
          "name": "length",
          "type": "uint256"
        }
      ],
      "payable": false,
      "stateMutability": "view",
      "type": "function"
    },
    {
      "constant": true,
      "inputs": [
        {
          "name": "_contractId",
          "type": "uint256"
        },
        {
          "name": "index",
          "type": "uint256"
        }
      ],
      "name": "getContractRateAtIndex",
      "outputs": [
        {
          "name": "id",
          "type": "uint256"
        },
        {
          "name": "contractId",
          "type": "uint256"
        },
        {
          "name": "rateAddress",
          "type": "address"
        },
        {
          "name": "amount",
          "type": "uint256"
        },
        {
          "name": "approve",
          "type": "bool"
        }
      ],
      "payable": false,
      "stateMutability": "view",
      "type": "function"
    },
    {
      "constant": true,
      "inputs": [
        {
          "name": "idx",
          "type": "uint256"
        }
      ],
      "name": "getContract",
      "outputs": [
        {
          "name": "",
          "type": "string"
        },
        {
          "name": "",
          "type": "string"
        },
        {
          "name": "",
          "type": "uint256"
        },
        {
          "name": "",
          "type": "uint256"
        },
        {
          "name": "",
          "type": "address"
        }
      ],
      "payable": false,
      "stateMutability": "view",
      "type": "function"
    },
    {
      "constant": true,
      "inputs": [],
      "name": "getContractCount",
      "outputs": [
        {
          "name": "",
          "type": "uint256"
        }
      ],
      "payable": false,
      "stateMutability": "view",
      "type": "function"
    },
    {
      "constant": false,
      "inputs": [
        {
          "name": "idx",
          "type": "uint256"
        },
        {
          "name": "_contractNum",
          "type": "string"
        },
        {
          "name": "_description",
          "type": "string"
        },
        {
          "name": "_amount",
          "type": "uint256"
        },
        {
          "name": "_closed",
          "type": "bool"
        }
      ],
      "name": "updateContract",
      "outputs": [
        {
          "name": "",
          "type": "bool"
        }
      ],
      "payable": false,
      "stateMutability": "nonpayable",
      "type": "function"
    }
  ],
  "bytecode": "0x60806040523480156200001157600080fd5b5060008054600160a060020a0319163317905560408051808201909152600b81527f4d61696e4e6574776f726b00000000000000000000000000000000000000000060208201526200006c90640100000000620001b2810204565b620000f36040805190810160405280600481526020017f30303031000000000000000000000000000000000000000000000000000000008152506040805190810160405280601d81526020017fd0bfd0b5d180d0b2d18bd0b920d0bad0bed0bdd182d180d0b0d0bad182000000815250606462000247640100000000026401000000009004565b506200017c6040805190810160405280600481526020017f30303032000000000000000000000000000000000000000000000000000000008152506040805190810160405280601d81526020017fd0b2d182d0bed180d0bed0b920d0bad0bed0bdd182d180d0b0d0bad18200000081525061012c62000247640100000000026401000000009004565b50620001946001606e6401000000006200039b810204565b620001ac60026101366401000000006200039b810204565b6200064a565b33600090815260026020908152604090912082519091620001db9160018401918501906200052b565b50805433600160a060020a0319918216811780845560009182526002602081905260409092208054600160a060020a039092169190931617825560018084018054859493620002409385810193926101009181161591909102600019011604620005b0565b5050505050565b60078054600190810191829055600082815260208281526040822093845586519193926200027c92908401918801906200052b565b5083516200029490600283019060208701906200052b565b5042600382015560048101839055600581018054600160a860020a0319163317905560075460009081526001602081905260409091208254815581830180548493620002f892848201929091600290821615610100026000190190911604620005b0565b50600282810180546200031f928481019291600019610100600183161502011604620005b0565b50600382810154908201556004808301549082015560059182018054929091018054600160a060020a031916600160a060020a0390931692909217808355905460ff74010000000000000000000000000000000000000000918290041615150260a060020a60ff02199091161790556007549150509392505050565b6007546000908311156200041057604080517f08c379a000000000000000000000000000000000000000000000000000000000815260206004820152601260248201527f4e6f7420666f756e6420636f6e74726163740000000000000000000000000000604482015290519081900360640190fd5b5060088054600190810191829055600082815260046020908152604080832094855592840186905560038401859055600284018054600160a060020a0319163317905585825260059052205460ff1615156200050c576000838152600660209081526040808320805460019081019091556003808452828520600880548254808601845592885286882090920191909155548552600493849052919093208454815584840154938101939093556002808501549084018054600160a060020a031916600160a060020a039092169190911790558381015490830155808301549101805460ff909216151560ff1990921691909117905562000526565b6000838152600560205260409020805460ff191660011790555b505050565b828054600181600116156101000203166002900490600052602060002090601f016020900481019282601f106200056e57805160ff19168380011785556200059e565b828001600101855582156200059e579182015b828111156200059e57825182559160200191906001019062000581565b50620005ac9291506200062a565b5090565b828054600181600116156101000203166002900490600052602060002090601f016020900481019282601f10620005eb57805485556200059e565b828001600101855582156200059e57600052602060002091601f016020900482015b828111156200059e5782548255916001019190600101906200060d565b6200064791905b80821115620005ac576000815560010162000631565b90565b6113af806200065a6000396000f3006080604052600436106100ef5763ffffffff7c01000000000000000000000000000000000000000000000000000000006000350416620fd17081146100f457806317601f821461019f5780631b75ea8e146101ef578063474da79a146102075780634d56cf391461033657806359b31abf146103585780635a95cf49146103735780635e5c06e2146103885780636ebc8c861461043a57806371f587c81461054d578063762d3f0c146105655780638736381a146105be5780639399869d146105d357806398d44b82146105e8578063c5c8084214610600578063ca735dcc1461061b578063ea8c69d3146106d2575b600080fd5b34801561010057600080fd5b506040805160206004803580820135601f810184900484028501840190955284845261018d94369492936024939284019190819084018382808284375050604080516020601f89358b018035918201839004830284018301909452808352979a99988101979196509182019450925082915084018382808284375094975050933594506106ea9350505050565b60408051918252519081900360200190f35b3480156101ab57600080fd5b506101ba60043560243561084e565b604080519586526020860194909452600160a060020a0390921684840152606084015215156080830152519081900360a00190f35b3480156101fb57600080fd5b506101ba6004356108cd565b34801561021357600080fd5b5061021f60043561090a565b60405180888152602001806020018060200187815260200186815260200185600160a060020a0316600160a060020a0316815260200184151515158152602001838103835289818151815260200191508051906020019080838360005b8381101561029457818101518382015260200161027c565b50505050905090810190601f1680156102c15780820380516001836020036101000a031916815260200191505b5083810382528851815288516020918201918a019080838360005b838110156102f45781810151838201526020016102dc565b50505050905090810190601f1680156103215780820380516001836020036101000a031916815260200191505b50995050505050505050505060405180910390f35b34801561034257600080fd5b506103566004356024356044351515610a6b565b005b34801561036457600080fd5b5061018d600435602435610cb3565b34801561037f57600080fd5b5061018d610ce3565b34801561039457600080fd5b506103a9600160a060020a0360043516610ce9565b6040518083600160a060020a0316600160a060020a0316815260200180602001828103825283818151815260200191508051906020019080838360005b838110156103fe5781810151838201526020016103e6565b50505050905090810190601f16801561042b5780820380516001836020036101000a031916815260200191505b50935050505060405180910390f35b34801561044657600080fd5b50610452600435610d9a565b6040805190810184905260608101839052600160a060020a038216608082015260a08082528651908201528551819060208083019160c08401918a019080838360005b838110156104ad578181015183820152602001610495565b50505050905090810190601f1680156104da5780820380516001836020036101000a031916815260200191505b50838103825287518152875160209182019189019080838360005b8381101561050d5781810151838201526020016104f5565b50505050905090810190601f16801561053a5780820380516001836020036101000a031916815260200191505b5097505050505050505060405180910390f35b34801561055957600080fd5b5061018d600435610f08565b34801561057157600080fd5b506040805160206004803580820135601f8101849004840285018401909552848452610356943694929360249392840191908190840183828082843750949750610f1a9650505050505050565b3480156105ca57600080fd5b5061018d610fb1565b3480156105df57600080fd5b5061018d610fb7565b3480156105f457600080fd5b5061018d600435610fbe565b34801561060c57600080fd5b50610356600435602435610fd0565b34801561062757600080fd5b5060408051602060046024803582810135601f81018590048502860185019096528585526106be95833595369560449491939091019190819084018382808284375050604080516020601f89358b018035918201839004830284018301909452808352979a999881019791965091820194509250829150840183828082843750949750508435955050505050602001351515611160565b604080519115158252519081900360200190f35b3480156106de57600080fd5b506106be600435611261565b600780546001908101918290556000828152602082815260408220938455865191939261071d9290840191880190611276565b5083516107339060028301906020870190611276565b504260038201556004810183905560058101805474ffffffffffffffffffffffffffffffffffffffffff191633179055600754600090815260016020819052604090912082548155818301805484936107a3928482019290916002908216156101000260001901909116046112f4565b50600282810180546107c89284810192916000196101006001831615020116046112f4565b5060038281015490820155600480830154908201556005918201805492909101805473ffffffffffffffffffffffffffffffffffffffff1916600160a060020a0390931692909217808355905460ff60a060020a918290041615150274ff0000000000000000000000000000000000000000199091161790556007549150509392505050565b6000806000806000806000600360008a81526020019081526020016000208881548110151561087957fe5b6000918252602080832091909101548252600490819052604090912080546001820154600283015460038401549390940154919d909c50600160a060020a039093169a5090985060ff169650945050505050565b60046020819052600091825260409091208054600182015460028301546003840154939094015491939092600160a060020a039091169160ff1685565b600160208181526000928352604092839020805481840180548651600296821615610100026000190190911695909504601f810185900485028601850190965285855290949193929091908301828280156109a65780601f1061097b576101008083540402835291602001916109a6565b820191906000526020600020905b81548152906001019060200180831161098957829003601f168201915b50505060028085018054604080516020601f6000196101006001871615020190941695909504928301859004850281018501909152818152959695945090925090830182828015610a385780601f10610a0d57610100808354040283529160200191610a38565b820191906000526020600020905b815481529060010190602001808311610a1b57829003601f168201915b505050506003830154600484015460059094015492939092909150600160a060020a0381169060a060020a900460ff1687565b6000806007548511151515610aca576040805160e560020a62461bcd02815260206004820152601260248201527f4e6f7420666f756e6420636f6e74726163740000000000000000000000000000604482015290519081900360640190fd5b6000858152600160205260409020600581015490925060a060020a900460ff1615610b3f576040805160e560020a62461bcd02815260206004820152601260248201527f436f6e747261637420697320636c6f7365640000000000000000000000000000604482015290519081900360640190fd5b6005820154600160a060020a03163314610ba3576040805160e560020a62461bcd02815260206004820152601560248201527f4f6e6c79206f776e65722063616e206368616e67650000000000000000000000604482015290519081900360640190fd5b5060008381526004602052604081206003810154909110610c0e576040805160e560020a62461bcd02815260206004820152601960248201527f5261746520696e76616c6964206f72206e6f7420666f756e6400000000000000604482015290519081900360640190fd5b8154600182015414610c6a576040805160e560020a62461bcd02815260206004820152601960248201527f5261746520696e76616c6964206f72206e6f7420666f756e6400000000000000604482015290519081900360640190fd5b60048101805460ff191684151590811790915560011415610cac5760058201805474ff0000000000000000000000000000000000000000191660a060020a1790555b5050505050565b600360205281600052604060002081815481101515610cce57fe5b90600052602060002001600091509150505481565b60085481565b6002602081815260009283526040928390208054600180830180548751601f60001994831615610100029490940190911696909604918201859004850286018501909652808552600160a060020a0390911694919392830182828015610d905780601f10610d6557610100808354040283529160200191610d90565b820191906000526020600020905b815481529060010190602001808311610d7357829003601f168201915b5050505050905082565b600081815260016020818152604080842060038101546004820154600583015483870180548651601f60026000199b841615610100029b909b019092168a90049182018990048902810189019097528087526060998a999098899889989497929094019591949193600160a060020a03909216928791830182828015610e615780601f10610e3657610100808354040283529160200191610e61565b820191906000526020600020905b815481529060010190602001808311610e4457829003601f168201915b5050875460408051602060026001851615610100026000190190941693909304601f8101849004840282018401909252818152959a5089945092508401905082828015610eef5780601f10610ec457610100808354040283529160200191610eef565b820191906000526020600020905b815481529060010190602001808311610ed257829003601f168201915b50989f939e50959c50939a509198509650505050505050565b60066020526000908152604090205481565b33600090815260026020908152604090912082519091610f41916001840191850190611276565b5080543373ffffffffffffffffffffffffffffffffffffffff19918216811780845560009182526002602081905260409092208054600160a060020a039092169190931617825560018084018054859493610cac93858101939261010091811615919091026000190116046112f4565b60075481565b6007545b90565b60009081526003602052604090205490565b60075460009083111561102d576040805160e560020a62461bcd02815260206004820152601260248201527f4e6f7420666f756e6420636f6e74726163740000000000000000000000000000604482015290519081900360640190fd5b506008805460019081019182905560008281526004602090815260408083209485559284018690556003840185905560028401805473ffffffffffffffffffffffffffffffffffffffff19163317905585825260059052205460ff16151561114157600083815260066020908152604080832080546001908101909155600380845282852060088054825480860184559288528688209092019190915554855260049384905291909320845481558484015493810193909355600280850154908401805473ffffffffffffffffffffffffffffffffffffffff1916600160a060020a039092169190911790558381015490830155808301549101805460ff909216151560ff1990921691909117905561115b565b6000838152600560205260409020805460ff191660011790555b505050565b60008581526001602052604081206005810154600160a060020a031633146111d2576040805160e560020a62461bcd02815260206004820152601560248201527f4f6e6c79206f776e65722063616e206368616e67650000000000000000000000604482015290519081900360640190fd5b85516111e79060018301906020890190611276565b5084516111fd9060028301906020880190611276565b504260038201556004810184905560058101805473ffffffffffffffffffffffffffffffffffffffff1985151560a060020a0274ff000000000000000000000000000000000000000019909216919091171633179055600191505095945050505050565b60056020526000908152604090205460ff1681565b828054600181600116156101000203166002900490600052602060002090601f016020900481019282601f106112b757805160ff19168380011785556112e4565b828001600101855582156112e4579182015b828111156112e45782518255916020019190600101906112c9565b506112f0929150611369565b5090565b828054600181600116156101000203166002900490600052602060002090601f016020900481019282601f1061132d57805485556112e4565b828001600101855582156112e457600052602060002091601f016020900482015b828111156112e457825482559160010191906001019061134e565b610fbb91905b808211156112f0576000815560010161136f5600a165627a7a72305820e0aed7a5435d8a6bbe321e06ad8b23b4b296630021d4f7ff87c9ad4d8b029eb30029",
  "source": "pragma solidity ^0.4.17;\n\ncontract Contracts {\n\n    address Admin;\n    // Model a Contract\n    struct Contract {\n        uint id;\n        string contractNum;\n        string description;\n        uint timestamp;\n        uint amount;\n        address contractAddress;\n        bool closed;\n    }\n\n    struct ContractRate {\n        uint id;\n        uint contractId;\n        address rateAddress;\n        uint amount;\n        bool approve;\n    }\n\n    struct Account {\n        address accountAddress;\n        string email;\n    }\n    // change Account event\n    // event accountEvent (\n    //     address indexed _accountAddresss,\n    //     string _email\n    // );\n\n    // Contract[] public contracts;          // All contracts\n    mapping(uint => Contract) public contracts;\n    mapping(address => Account) public accounts;\n    // все ставки по контракту\n    mapping (uint => uint[]) public rates;\n    // mapping(uint => ContractRate) public rates;\n    // cтавки\n    mapping(uint => ContractRate) public contractRates;\n    // была ли ставка по контракту\n    mapping(uint => bool) public isRatesContract;\n    // Количество ставок\n    mapping(uint => uint) public contractRatesCnt;\n\n    uint public contractCount;\n    uint public rateCount;\n\n    constructor ()  {\n        Admin = msg.sender;\n        // default debug;\n        setAccount(\"MainNetwork\");\n        createContract(\"0001\", \"первый контракт\", 100);\n        createContract(\"0002\", \"второй контракт\", 300);\n        setContractRate(1, 110);\n        setContractRate(2, 310);\n\n    }\n    // Create an auction, transfer the item to this contract, activate the auction\n    function createContract (\n        string _contractNum,\n        string _description,\n        uint _amount\n    ) public\n        returns (uint contractId) {\n        contractCount ++;\n        Contract storage c = contracts[contractCount];\n        c.id = contractCount;\n        c.contractNum = _contractNum;\n        c.description = _description;\n        c.timestamp = now;\n        c.amount = _amount;\n        c.closed = false;\n        c.contractAddress = msg.sender;\n\n        contracts[contractCount] = c;\n        return contractCount;\n    }\n    function setAccount (\n        string _email\n    ) public {\n        Account storage acc = accounts[msg.sender];\n        acc.email = _email;\n        acc.accountAddress = msg.sender;\n        accounts[msg.sender] = acc;\n        // trigger voted event\n        // accountEvent(msg.sender, _email);\n    }\n\n    function setContractRate (\n        uint _contractId,\n        uint _amount\n    ) public {\n        require (_contractId <= contractCount, \"Not found contract\");\n        rateCount ++;\n\n        ContractRate storage cr = contractRates[rateCount];\n        cr.id = rateCount;\n        cr.contractId = _contractId;\n        cr.amount = _amount;\n        cr.rateAddress = msg.sender;\n        if (!isRatesContract[_contractId]){\n            contractRatesCnt[_contractId]++;\n            // добавляем id ставки в контракт;\n            rates[_contractId].push(rateCount);\n            contractRates[rateCount] = cr;\n        } else {\n            isRatesContract[_contractId] = true;\n        }\n    }\n\n    function approveRate(\n        uint _contractId,\n        uint _rateId,\n        bool _rateRes\n    ) public {\n        require (_contractId <= contractCount, \"Not found contract\");\n        Contract storage c = contracts[_contractId];\n        require (c.closed == false, \"Contract is closed\");\n        require (msg.sender == c.contractAddress, \"Only owner can change\");\n        ContractRate storage cr = contractRates[_rateId];\n        require (cr.amount > 0, \"Rate invalid or not found\");\n        require (cr.contractId == c.id, \"Rate invalid or not found\");\n        cr.approve = _rateRes;\n        if (_rateRes == true){\n            c.closed = true;\n        }\n    }\n    // сколько ставок у контракта\n    function getContractRateCount(uint _contractId) public view returns(uint length) {\n        return rates[_contractId].length;\n    }\n\n    function getContractRateAtIndex(uint _contractId, uint index) public view returns(\n        uint id,\n        uint contractId,\n        address rateAddress,\n        uint amount,\n        bool approve\n    ) {\n        uint rateid = rates[_contractId][index];\n        ContractRate storage cr = contractRates[rateid];\n        return (\n            cr.id,\n            cr.contractId,\n            cr.rateAddress,\n            cr.amount,\n            cr.approve\n        );\n    }\n    \n    function getContract(uint idx) public view returns (\n        string,\n        string,\n        uint,\n        uint,\n        address) {\n        return (\n            contracts[idx].contractNum,\n            contracts[idx].description,\n            contracts[idx].timestamp,\n            contracts[idx].amount,\n            contracts[idx].contractAddress\n        );\n    }\n\n    function getContractCount() public view returns (uint) {\n        return contractCount;\n    }\n\n    function updateContract(\n        uint idx,\n        string _contractNum,\n        string _description,\n        uint _amount,\n        bool _closed\n        ) public returns (bool)\n    {\n        Contract storage c = contracts[idx];\n        require (msg.sender == c.contractAddress, \"Only owner can change\");\n\n        c.contractNum = _contractNum;\n        c.description = _description;\n        c.timestamp = now;\n        c.amount = _amount;\n        c.closed = _closed;\n        c.contractAddress = msg.sender;\n        return true;\n    }\n\n    // function buyContract(uint idx) public returns (bool) {\n    //     Contract storage c = contracts[idx];\n    //     c.contractAddress = msg.sender;\n    //     return true;\n    // }\n}\n",
  "sourcePath": "/home/sok/code/test_dapp/contracts/Contracts.sol",
  "compiler": {
    "name": "solc",
    "version": "0.4.24+commit.e67f0147.Emscripten.clang"
  },
  "schemaVersion": "2.0.1",
  "updatedAt": "2018-08-18T14:24:13.324Z"
}