{
  "contractName": "SitisArbitration",
  "abi": [
    {
      "constant": true,
      "inputs": [
        {
          "name": "",
          "type": "uint256"
        }
      ],
      "name": "arbiterStats",
      "outputs": [
        {
          "name": "id",
          "type": "uint256"
        },
        {
          "name": "buyerId",
          "type": "address"
        },
        {
          "name": "serviceOwner",
          "type": "address"
        },
        {
          "name": "purchasedId",
          "type": "uint256"
        },
        {
          "name": "closed",
          "type": "bool"
        },
        {
          "name": "created",
          "type": "uint256"
        },
        {
          "name": "limit_percent",
          "type": "uint16"
        },
        {
          "name": "limit_days",
          "type": "uint16"
        },
        {
          "name": "voitedCount",
          "type": "uint256"
        }
      ],
      "payable": false,
      "stateMutability": "view",
      "type": "function"
    },
    {
      "constant": true,
      "inputs": [],
      "name": "owner",
      "outputs": [
        {
          "name": "",
          "type": "address"
        }
      ],
      "payable": false,
      "stateMutability": "view",
      "type": "function"
    },
    {
      "constant": true,
      "inputs": [],
      "name": "sitisServicePlacemarkert",
      "outputs": [
        {
          "name": "",
          "type": "address"
        }
      ],
      "payable": false,
      "stateMutability": "view",
      "type": "function"
    },
    {
      "constant": true,
      "inputs": [
        {
          "name": "",
          "type": "uint256"
        }
      ],
      "name": "voitedResults",
      "outputs": [
        {
          "name": "",
          "type": "uint16"
        }
      ],
      "payable": false,
      "stateMutability": "view",
      "type": "function"
    },
    {
      "constant": true,
      "inputs": [],
      "name": "arbiterCount",
      "outputs": [
        {
          "name": "",
          "type": "uint256"
        }
      ],
      "payable": false,
      "stateMutability": "view",
      "type": "function"
    },
    {
      "constant": true,
      "inputs": [],
      "name": "arbiterListCount",
      "outputs": [
        {
          "name": "",
          "type": "uint16"
        }
      ],
      "payable": false,
      "stateMutability": "view",
      "type": "function"
    },
    {
      "inputs": [
        {
          "name": "_market",
          "type": "address"
        },
        {
          "name": "_arbiterList",
          "type": "address[]"
        }
      ],
      "payable": false,
      "stateMutability": "nonpayable",
      "type": "constructor"
    },
    {
      "anonymous": false,
      "inputs": [
        {
          "indexed": false,
          "name": "id",
          "type": "uint256"
        }
      ],
      "name": "createdArbitrationEvent",
      "type": "event"
    },
    {
      "anonymous": false,
      "inputs": [
        {
          "indexed": false,
          "name": "id",
          "type": "uint256"
        }
      ],
      "name": "closedArbitrationEvent",
      "type": "event"
    },
    {
      "constant": false,
      "inputs": [
        {
          "name": "_newArbiterWalet",
          "type": "address"
        }
      ],
      "name": "addArbiter",
      "outputs": [],
      "payable": false,
      "stateMutability": "nonpayable",
      "type": "function"
    },
    {
      "constant": false,
      "inputs": [
        {
          "name": "_buyerId",
          "type": "address"
        },
        {
          "name": "_serviceOwner",
          "type": "address"
        },
        {
          "name": "_purchasedId",
          "type": "uint256"
        },
        {
          "name": "_limit_percent",
          "type": "uint16"
        },
        {
          "name": "_limit_days",
          "type": "uint16"
        }
      ],
      "name": "createArbitration",
      "outputs": [
        {
          "name": "arbiterId",
          "type": "uint256"
        }
      ],
      "payable": false,
      "stateMutability": "nonpayable",
      "type": "function"
    },
    {
      "constant": false,
      "inputs": [
        {
          "name": "arbitrationId",
          "type": "uint256"
        },
        {
          "name": "result",
          "type": "bool"
        }
      ],
      "name": "vote",
      "outputs": [
        {
          "name": "",
          "type": "uint16"
        }
      ],
      "payable": false,
      "stateMutability": "nonpayable",
      "type": "function"
    },
    {
      "constant": false,
      "inputs": [
        {
          "name": "arbitrationId",
          "type": "uint256"
        }
      ],
      "name": "closeVote",
      "outputs": [
        {
          "name": "",
          "type": "bool"
        }
      ],
      "payable": false,
      "stateMutability": "nonpayable",
      "type": "function"
    },
    {
      "constant": true,
      "inputs": [
        {
          "name": "numerator",
          "type": "uint256"
        },
        {
          "name": "denominator",
          "type": "uint256"
        },
        {
          "name": "precision",
          "type": "uint256"
        }
      ],
      "name": "percent",
      "outputs": [
        {
          "name": "quotient",
          "type": "uint256"
        }
      ],
      "payable": false,
      "stateMutability": "view",
      "type": "function"
    },
    {
      "constant": true,
      "inputs": [
        {
          "name": "arbiterId",
          "type": "uint256"
        },
        {
          "name": "addr",
          "type": "address"
        }
      ],
      "name": "getVoitedArbiter",
      "outputs": [
        {
          "name": "",
          "type": "bool"
        }
      ],
      "payable": false,
      "stateMutability": "view",
      "type": "function"
    },
    {
      "constant": true,
      "inputs": [
        {
          "name": "arbiterId",
          "type": "uint256"
        }
      ],
      "name": "validArbiter",
      "outputs": [
        {
          "name": "",
          "type": "bool"
        }
      ],
      "payable": false,
      "stateMutability": "view",
      "type": "function"
    }
  ],
  "bytecode": "0x608060405234801561001057600080fd5b50604051610d03380380610d0383398101604052805160208201516000805433600160a060020a031991821617825560018054909116600160a060020a038516179055919201905b81518110156100c957600160026000848481518110151561007557fe5b602090810291909101810151600160a060020a03168252810191909152604001600020805460ff19169115159190911790556003805461ffff19811661ffff91821660019081019092161790915501610058565b505050610c28806100db6000396000f3006080604052600436106100aa5763ffffffff60e060020a6000350416622c1a9e81146100af5780630dd189d2146100df5780636e48a0351461011757806372f1bbcf1461012f5780638da5cb5b146101a15780638ff4afae146101d257806396c65773146101e7578063a8a8c58114610216578063b538d3bc1461022e578063c15fd28214610251578063c9d27afe14610266578063d81009b714610283578063db9c9d15146102ba575b600080fd5b3480156100bb57600080fd5b506100cd6004356024356044356102cf565b60408051918252519081900360200190f35b3480156100eb57600080fd5b50610103600435600160a060020a0360243516610304565b604080519115158252519081900360200190f35b34801561012357600080fd5b50610103600435610333565b34801561013b57600080fd5b506101476004356104b9565b60408051998a52600160a060020a0398891660208b015296909716888701526060880194909452911515608087015260a086015261ffff90811660c08601521660e084015261010083019190915251908190036101200190f35b3480156101ad57600080fd5b506101b661051c565b60408051600160a060020a039092168252519081900360200190f35b3480156101de57600080fd5b506101b661052b565b3480156101f357600080fd5b506101ff60043561053a565b6040805161ffff9092168252519081900360200190f35b34801561022257600080fd5b50610103600435610550565b34801561023a57600080fd5b5061024f600160a060020a036004351661063f565b005b34801561025d57600080fd5b506100cd6106c5565b34801561027257600080fd5b506101ff60043560243515156106cb565b34801561028f57600080fd5b506100cd600160a060020a036004358116906024351660443561ffff60643581169060843516610838565b3480156102c657600080fd5b506101ff610aa0565b600080600083600101600a0a86029150600a85838115156102ec57fe5b046005018115156102f957fe5b049695505050505050565b6000828152600460209081526040808320600160a060020a038516845260070190915290205460ff1692915050565b60008060008061034285610aaa565b50505060008281526004602081905260408220908101805460ff191660019081179091555460088201549192600160a060020a03909116916107d0106104025781600160a060020a031663c14a803484600301546040518263ffffffff1660e060020a02815260040180828152602001915050602060405180830381600087803b1580156103cf57600080fd5b505af11580156103e3573d6000803e3d6000fd5b505050506040513d60208110156103f957600080fd5b5051905061047e565b81600160a060020a031663148031a184600301546040518263ffffffff1660e060020a02815260040180828152602001915050602060405180830381600087803b15801561044f57600080fd5b505af1158015610463573d6000803e3d6000fd5b505050506040513d602081101561047957600080fd5b505190505b6040805186815290517f2f8d1a1baa53a9f2f1ec6933073fdd882ea6d879e48a811969465f2bcae883729181900360200190a1949350505050565b6004602081905260009182526040909120805460018201546002830154600384015494840154600585015460068601546008909601549496600160a060020a0394851696939094169460ff90921692909161ffff80831692620100009004169089565b600054600160a060020a031681565b600154600160a060020a031681565b60066020526000908152604090205461ffff1681565b33600090815260026020526040812054819060ff1615156001146105be576040805160e560020a62461bcd02815260206004820152601360248201527f6e6f7420696e2061726269746572206c69737400000000000000000000000000604482015290519081900360640190fd5b506000828152600460209081526040808320338452600781019092529091205460ff1615610636576040805160e560020a62461bcd02815260206004820152600e60248201527f616c726561647920766f69746564000000000000000000000000000000000000604482015290519081900360640190fd5b50600192915050565b600054600160a060020a031633146106a1576040805160e560020a62461bcd02815260206004820152600a60248201527f4f6e6c79206f776e657200000000000000000000000000000000000000000000604482015290519081900360640190fd5b600160a060020a03166000908152600260205260409020805460ff19166001179055565b60055481565b6000806106d784610550565b5050600083815260046020526040902060058101541515610742576040805160e560020a62461bcd02815260206004820152601760248201527f6e6f742063726561746564206172626974726174696f6e000000000000000000604482015290519081900360640190fd5b3360009081526007820160205260409020805460ff191660019081179091556008820180549091019055600481015460ff16156107c9576040805160e560020a62461bcd02815260206004820152601260248201527f6172626974726174696f6e20636c6f7365640000000000000000000000000000604482015290519081900360640190fd5b82156107f8576000848152600660205260409020805461ffff8082166001011661ffff1990911617905561081f565b6000848152600660205260409020805461ffff19811661ffff918216600019019091161790555b50505060009081526006602052604090205461ffff1690565b600154600090600160a060020a031633148061085e5750600054600160a060020a031633145b15156108b4576040805160e560020a62461bcd02815260206004820152601060248201527f4f6e6c7920506c6163654d61726b657400000000000000000000000000000000604482015290519081900360640190fd5b60056000815480929190600101919050555061012060405190810160405280600554815260200187600160a060020a0316815260200186600160a060020a031681526020018581526020016000151581526020014281526020018461ffff1681526020018361ffff16815260200160008152506004600060055481526020019081526020016000206000820151816000015560208201518160010160006101000a815481600160a060020a030219169083600160a060020a0316021790555060408201518160020160006101000a815481600160a060020a030219169083600160a060020a031602179055506060820151816003015560808201518160040160006101000a81548160ff02191690831515021790555060a0820151816005015560c08201518160060160006101000a81548161ffff021916908361ffff16021790555060e08201518160060160026101000a81548161ffff021916908361ffff16021790555061010082015181600801559050506107d060066000600554815260200190815260200160002060006101000a81548161ffff021916908361ffff1602179055507fbff007c203963c45824564cc1f2862fc2c1597d85c1b5084ba244a3ae85b94176005546040518082815260200191505060405180910390a15060055495945050505050565b60035461ffff1681565b6000806000806005548511158015610ac25750600085115b1515610b18576040805160e560020a62461bcd02815260206004820152600c60248201527f6e6f742076616c69642049640000000000000000000000000000000000000000604482015290519081900360640190fd5b6000858152600460205260409020600881015460038054929650610b409261ffff16906102cf565b92506018603c8086600501544203811515610b5757fe5b04811515610b6157fe5b04811515610b6b57fe5b60068601549190049250600a61ffff91821602169050808310801590610b9f5750600684015462010000900461ffff168211155b1515610bf5576040805160e560020a62461bcd02815260206004820152601160248201527f6e6f7420656e6f75676820766f69746564000000000000000000000000000000604482015290519081900360640190fd5b50505050505600a165627a7a7230582004687f23f059e7f9557ada02401021fbbc3c0d2afde6532f0e2b7ba8538b20a40029",
  "source": "// Контракт для арбитража\npragma solidity ^0.4.17;\n\n\n// abstract methods\ncontract SitisPlaceMarketInt {\n    function closePurchase (uint256 _purchaseId) public returns (bool result);\n    function cancelService (uint256 _purchaseId) public returns (bool result);\n}\n\n\ncontract SitisArbitration {\n\n    // solidity сходит с ума, при переходе от положительного к отрицательному.\n    // Будем считать MID_VOTE - начальным занчением голосования\n    uint16 constant MID_VOTE = 2000;\n    address public owner;\n    // адрес контракта SitisServicePlacemarkert\n    address public sitisServicePlacemarkert;\n    // список арбитров\n    // address[] public arbiterList;\n    mapping(address => bool) arbiterList;\n    uint16 public arbiterListCount;\n\n    constructor (address _market, address[] _arbiterList) public {\n        owner = msg.sender;\n        sitisServicePlacemarkert = _market;\n        for (uint i = 0; i < _arbiterList.length; i++) {\n            arbiterList[_arbiterList[i]] = true;\n            arbiterListCount += 1;\n        }\n        // arbiterList = _arbiterList;\n    }\n\n    modifier onlyOwner() {\n        require(msg.sender == owner, \"Only owner\");\n        _;\n    }\n    \n    modifier onlyPlaceMarket() {\n        // только площадка может создавать или автор контракта\n        require(msg.sender == sitisServicePlacemarkert || msg.sender == owner, \"Only PlaceMarket\");\n        _;\n    }\n\n    function addArbiter(\n        address _newArbiterWalet\n    ) public onlyOwner {\n        arbiterList[_newArbiterWalet] = true;\n    }\n\n     // Арбитраж\n    struct Arbitration {\n        uint256 id;\n        address buyerId;\n        address serviceOwner;\n        uint256 purchasedId;\n        bool closed;\n        uint created;\n        uint16 limit_percent;  // минимальное кол-во голосов для закрытия сделки\n        uint16 limit_days;  // кол-во дней через которое можно однозначно закрыть арбитраж\n        // арбитраж => кто проголосовал\n        mapping(address => bool) voitedArbiter;\n        uint voitedCount;\n    }\n     // Создан спор для арбитража\n    event createdArbitrationEvent(\n        uint256 id\n    );\n    // Создан спор для арбитража\n    event closedArbitrationEvent(\n        uint256 id\n    );\n    // маппинг арбитражей\n    mapping (uint256 => Arbitration) public arbiterStats;\n    // кол-во арбитражей\n    uint256 public arbiterCount;\n\n    // результаты арбитраж => + toBuyer;  - toServiceOwner\n    mapping(uint => uint16) public voitedResults;\n\n    // создать арбитраж по сделке\n    function createArbitration (\n        address _buyerId,\n        address _serviceOwner,\n        uint256 _purchasedId,\n        uint16 _limit_percent,\n        uint16 _limit_days\n    ) public onlyPlaceMarket\n        returns (uint256 arbiterId) {\n        arbiterCount++;\n        arbiterStats[arbiterCount] = Arbitration({\n            id: arbiterCount,\n            buyerId : _buyerId,\n            serviceOwner: _serviceOwner,\n            purchasedId: _purchasedId,\n            closed: false,\n            created: now,\n            voitedCount: 0,\n            limit_percent: _limit_percent,\n            limit_days: _limit_days\n        });\n        voitedResults[arbiterCount] = MID_VOTE;\n        emit createdArbitrationEvent(arbiterCount);\n        return arbiterCount;\n    }\n\n    function vote(uint arbitrationId, bool result) public\n    returns (uint16) {\n        validArbiter(arbitrationId);\n        Arbitration storage a = arbiterStats[arbitrationId];\n        require (a.created != 0, \"not created arbitration\");\n\n        a.voitedArbiter[msg.sender] = true;\n        a.voitedCount += 1;\n        require (a.closed == false, \"arbitration closed\");\n\n        if (result){\n            voitedResults[arbitrationId] += 1;\n        } else {\n            voitedResults[arbitrationId] -= 1;\n        }\n        return voitedResults[arbitrationId];\n    }\n\n    // закрыть арбитраж\n    function closeVote(uint arbitrationId) public\n    returns (bool) {\n        validCloseArbitration(arbitrationId);\n        Arbitration storage a = arbiterStats[arbitrationId];\n        a.closed = true;\n        SitisPlaceMarketInt _placemarketContract = SitisPlaceMarketInt(sitisServicePlacemarkert);\n        bool res = false;\n        if (a.voitedCount <= 2000) {\n            // закрыть покупку, перечислить средства продавцу.\n            // function closePurchase (uint256 _purchaseId)\n            res = _placemarketContract.closePurchase(a.purchasedId);\n        } else {\n            // отправляем средства покупателю\n            res = _placemarketContract.cancelService(a.purchasedId);\n        }\n        emit closedArbitrationEvent(arbitrationId);\n        return res;\n    }\n\n    // вычислить процент целочисленный с точностью\n    function percent(uint numerator, uint denominator, uint precision)\n    public view returns(uint quotient) {\n        // caution, check safe-to-multiply here\n        uint _numerator = numerator * 10 ** (precision+1);\n        // with rounding of last digit\n        uint _quotient = ((_numerator / denominator) + 5) / 10;\n        return ( _quotient);\n    }\n    // проголосовал ли арбитер с адресом addr в арбитраже arbiterId\n    function getVoitedArbiter(uint arbiterId, address addr) public view returns (bool) {\n        return arbiterStats[arbiterId].voitedArbiter[addr];\n    }\n\n    function validArbiter(uint arbiterId) public view returns (bool) {\n        // Проверяем что арбитер есть в списке арбитров\n        require(arbiterList[msg.sender] == true, \"not in arbiter list\");\n        // // Проверяем что арбитер еще не отдал голос\n        Arbitration storage a = arbiterStats[arbiterId];\n        require(a.voitedArbiter[msg.sender] == false, \"already voited\");\n        return true;\n    }\n\n    function validCloseArbitration(uint arbiterId) internal view  {\n        require(arbiterId <= arbiterCount && arbiterId > 0, \"not valid Id\");\n        Arbitration storage a = arbiterStats[arbiterId];\n        uint percenVoited = percent(a.voitedCount, arbiterListCount, 3);\n        uint diff = (now - a.created) / 60 / 60 / 24;  // days\n        uint _limit_percent = a.limit_percent * 10;\n        require(percenVoited >= _limit_percent && diff <= a.limit_days, \"not enough voited\");\n    }\n}\n",
  "sourcePath": "/home/local/REGION/mi.sokoluk/code/blockchainapp/contracts/SitisArbitration.sol",
  "compiler": {
    "name": "solc",
    "version": "0.4.24+commit.e67f0147.Emscripten.clang"
  },
  "schemaVersion": "2.0.1",
  "updatedAt": "2018-08-21T07:10:07.554Z"
}