{
  "contractName": "SitisArbitration",
  "abi": [
    {
      "constant": true,
      "inputs": [
        {
          "name": "",
          "type": "address"
        }
      ],
      "name": "arbiterList",
      "outputs": [
        {
          "name": "",
          "type": "bool"
        }
      ],
      "payable": false,
      "stateMutability": "view",
      "type": "function"
    },
    {
      "constant": true,
      "inputs": [
        {
          "name": "",
          "type": "uint256"
        }
      ],
      "name": "arbiterStats",
      "outputs": [
        {
          "name": "id",
          "type": "uint256"
        },
        {
          "name": "buyerId",
          "type": "address"
        },
        {
          "name": "serviceOwner",
          "type": "address"
        },
        {
          "name": "purchasedId",
          "type": "uint256"
        },
        {
          "name": "closed",
          "type": "bool"
        },
        {
          "name": "created",
          "type": "uint256"
        },
        {
          "name": "limit_percent",
          "type": "uint16"
        },
        {
          "name": "limit_days",
          "type": "uint16"
        },
        {
          "name": "voitedCount",
          "type": "uint256"
        }
      ],
      "payable": false,
      "stateMutability": "view",
      "type": "function"
    },
    {
      "constant": true,
      "inputs": [],
      "name": "owner",
      "outputs": [
        {
          "name": "",
          "type": "address"
        }
      ],
      "payable": false,
      "stateMutability": "view",
      "type": "function"
    },
    {
      "constant": true,
      "inputs": [],
      "name": "sitisServicePlacemarkert",
      "outputs": [
        {
          "name": "",
          "type": "address"
        }
      ],
      "payable": false,
      "stateMutability": "view",
      "type": "function"
    },
    {
      "constant": true,
      "inputs": [
        {
          "name": "",
          "type": "uint256"
        }
      ],
      "name": "voitedResults",
      "outputs": [
        {
          "name": "",
          "type": "uint16"
        }
      ],
      "payable": false,
      "stateMutability": "view",
      "type": "function"
    },
    {
      "constant": true,
      "inputs": [],
      "name": "arbiterCount",
      "outputs": [
        {
          "name": "",
          "type": "uint256"
        }
      ],
      "payable": false,
      "stateMutability": "view",
      "type": "function"
    },
    {
      "constant": true,
      "inputs": [],
      "name": "arbiterListCount",
      "outputs": [
        {
          "name": "",
          "type": "uint16"
        }
      ],
      "payable": false,
      "stateMutability": "view",
      "type": "function"
    },
    {
      "inputs": [
        {
          "name": "_market",
          "type": "address"
        },
        {
          "name": "_arbiterList",
          "type": "address[]"
        }
      ],
      "payable": false,
      "stateMutability": "nonpayable",
      "type": "constructor"
    },
    {
      "anonymous": false,
      "inputs": [
        {
          "indexed": false,
          "name": "id",
          "type": "uint256"
        }
      ],
      "name": "createdArbitrationEvent",
      "type": "event"
    },
    {
      "anonymous": false,
      "inputs": [
        {
          "indexed": false,
          "name": "id",
          "type": "uint256"
        },
        {
          "indexed": false,
          "name": "winner",
          "type": "address"
        },
        {
          "indexed": false,
          "name": "purchasedId",
          "type": "uint256"
        },
        {
          "indexed": false,
          "name": "memberType",
          "type": "string"
        }
      ],
      "name": "closedArbitrationEvent",
      "type": "event"
    },
    {
      "anonymous": false,
      "inputs": [
        {
          "indexed": false,
          "name": "id",
          "type": "uint256"
        },
        {
          "indexed": false,
          "name": "voteRes",
          "type": "uint16"
        }
      ],
      "name": "voteArbitrationEvent",
      "type": "event"
    },
    {
      "constant": false,
      "inputs": [
        {
          "name": "_newArbiterWalet",
          "type": "address"
        }
      ],
      "name": "addArbiter",
      "outputs": [
        {
          "name": "",
          "type": "bool"
        }
      ],
      "payable": false,
      "stateMutability": "nonpayable",
      "type": "function"
    },
    {
      "constant": false,
      "inputs": [
        {
          "name": "_arbiterWalet",
          "type": "address"
        }
      ],
      "name": "delArbiter",
      "outputs": [
        {
          "name": "",
          "type": "bool"
        }
      ],
      "payable": false,
      "stateMutability": "nonpayable",
      "type": "function"
    },
    {
      "constant": false,
      "inputs": [
        {
          "name": "_buyerId",
          "type": "address"
        },
        {
          "name": "_serviceOwner",
          "type": "address"
        },
        {
          "name": "_purchasedId",
          "type": "uint256"
        },
        {
          "name": "_limit_percent",
          "type": "uint16"
        },
        {
          "name": "_limit_days",
          "type": "uint16"
        }
      ],
      "name": "createArbitration",
      "outputs": [
        {
          "name": "arbiterId",
          "type": "uint256"
        }
      ],
      "payable": false,
      "stateMutability": "nonpayable",
      "type": "function"
    },
    {
      "constant": false,
      "inputs": [
        {
          "name": "arbitrationId",
          "type": "uint256"
        },
        {
          "name": "result",
          "type": "bool"
        }
      ],
      "name": "vote",
      "outputs": [
        {
          "name": "",
          "type": "uint16"
        }
      ],
      "payable": false,
      "stateMutability": "nonpayable",
      "type": "function"
    },
    {
      "constant": false,
      "inputs": [
        {
          "name": "arbitrationId",
          "type": "uint256"
        }
      ],
      "name": "closeVote",
      "outputs": [
        {
          "name": "",
          "type": "bool"
        }
      ],
      "payable": false,
      "stateMutability": "nonpayable",
      "type": "function"
    },
    {
      "constant": true,
      "inputs": [
        {
          "name": "numerator",
          "type": "uint256"
        },
        {
          "name": "denominator",
          "type": "uint256"
        },
        {
          "name": "precision",
          "type": "uint256"
        }
      ],
      "name": "percent",
      "outputs": [
        {
          "name": "quotient",
          "type": "uint256"
        }
      ],
      "payable": false,
      "stateMutability": "view",
      "type": "function"
    },
    {
      "constant": true,
      "inputs": [
        {
          "name": "arbiterId",
          "type": "uint256"
        },
        {
          "name": "addr",
          "type": "address"
        }
      ],
      "name": "getVoitedArbiter",
      "outputs": [
        {
          "name": "",
          "type": "bool"
        }
      ],
      "payable": false,
      "stateMutability": "view",
      "type": "function"
    },
    {
      "constant": true,
      "inputs": [
        {
          "name": "arbiterId",
          "type": "uint256"
        }
      ],
      "name": "validArbiter",
      "outputs": [
        {
          "name": "",
          "type": "bool"
        }
      ],
      "payable": false,
      "stateMutability": "view",
      "type": "function"
    },
    {
      "constant": false,
      "inputs": [
        {
          "name": "newOwner",
          "type": "address"
        }
      ],
      "name": "changeOwner",
      "outputs": [],
      "payable": false,
      "stateMutability": "nonpayable",
      "type": "function"
    }
  ],
  "bytecode": "0x608060405234801561001057600080fd5b506040516110fd3803806110fd833981016040528051602082015160008054600160a060020a03338116600160a060020a03199283161783556001805491861691909216179055919201905b81518110156100cd57600160026000848481518110151561007957fe5b602090810291909101810151600160a060020a03168252810191909152604001600020805460ff19169115159190911790556003805461ffff19811661ffff9182166001908101909216179091550161005c565b50505061101e806100df6000396000f3006080604052600436106100cb5763ffffffff60e060020a6000350416622c1a9e81146100d05780630dd189d21461010057806348408d211461013857806366fb431e146101595780636e48a0351461017a57806372f1bbcf146101925780638da5cb5b146102045780638ff4afae1461023557806396c657731461024a578063a6f9dae114610279578063a8a8c5811461029c578063b538d3bc146102b4578063c15fd282146102d5578063c9d27afe146102ea578063d81009b714610307578063db9c9d151461033e575b600080fd5b3480156100dc57600080fd5b506100ee600435602435604435610353565b60408051918252519081900360200190f35b34801561010c57600080fd5b50610124600435600160a060020a0360243516610388565b604080519115158252519081900360200190f35b34801561014457600080fd5b50610124600160a060020a03600435166103b7565b34801561016557600080fd5b50610124600160a060020a036004351661048f565b34801561018657600080fd5b506101246004356104a4565b34801561019e57600080fd5b506101aa60043561075f565b60408051998a52600160a060020a0398891660208b015296909716888701526060880194909452911515608087015260a086015261ffff90811660c08601521660e084015261010083019190915251908190036101200190f35b34801561021057600080fd5b506102196107c2565b60408051600160a060020a039092168252519081900360200190f35b34801561024157600080fd5b506102196107d1565b34801561025657600080fd5b506102626004356107e0565b6040805161ffff9092168252519081900360200190f35b34801561028557600080fd5b5061029a600160a060020a03600435166107f6565b005b3480156102a857600080fd5b5061012460043561088b565b3480156102c057600080fd5b50610124600160a060020a036004351661098c565b3480156102e157600080fd5b506100ee610a58565b3480156102f657600080fd5b506102626004356024351515610a5e565b34801561031357600080fd5b506100ee600160a060020a036004358116906024351660443561ffff60643581169060843516610c26565b34801561034a57600080fd5b50610262610e96565b600080600083600101600a0a86029150600a858381151561037057fe5b0460050181151561037d57fe5b049695505050505050565b6000828152600460209081526040808320600160a060020a038516845260070190915290205460ff1692915050565b6000805433600160a060020a0390811691161461041e576040805160e560020a62461bcd02815260206004820152600a60248201527f4f6e6c79206f776e657200000000000000000000000000000000000000000000604482015290519081900360640190fd5b600160a060020a03821660009081526002602052604090205460ff1615156001141561048657506003805461ffff19811661ffff91821660001901909116179055600160a060020a0381166000908152600260205260409020805460ff19169055600161048a565b5060005b919050565b60026020526000908152604090205460ff1681565b600080600080600060606104b787610ea0565b6000878152600460208181526040808420928301805460ff19166001908117909155546006909252832054919750600160a060020a031695509093506107d061ffff909116116105c85783600160a060020a031663c14a803486600301546040518263ffffffff1660e060020a02815260040180828152602001915050602060405180830381600087803b15801561054e57600080fd5b505af1158015610562573d6000803e3d6000fd5b505050506040513d602081101561057857600080fd5b5051600286015460408051808201909152600681527f73656c6c657200000000000000000000000000000000000000000000000000006020820152919450600160a060020a031692509050610655565b83600160a060020a031663148031a186600301546040518263ffffffff1660e060020a02815260040180828152602001915050602060405180830381600087803b15801561061557600080fd5b505af1158015610629573d6000803e3d6000fd5b505050506040513d602081101561063f57600080fd5b50516001860154909350600160a060020a031691505b7f35e1609d2f703a84520864a6a6be56a523bba20cc56b2104486f7a075bfd68c4878387600301546040805190810160405280600581526020017f62757965720000000000000000000000000000000000000000000000000000008152509450846040518085815260200184600160a060020a0316600160a060020a0316815260200183815260200180602001828103825283818151815260200191508051906020019080838360005b838110156107175781810151838201526020016106ff565b50505050905090810190601f1680156107445780820380516001836020036101000a031916815260200191505b509550505050505060405180910390a1509095945050505050565b6004602081905260009182526040909120805460018201546002830154600384015494840154600585015460068601546008909601549496600160a060020a0394851696939094169460ff90921692909161ffff80831692620100009004169089565b600054600160a060020a031681565b600154600160a060020a031681565b60066020526000908152604090205461ffff1681565b60005433600160a060020a0390811691161461085c576040805160e560020a62461bcd02815260206004820152600a60248201527f4f6e6c79206f776e657200000000000000000000000000000000000000000000604482015290519081900360640190fd5b6000805473ffffffffffffffffffffffffffffffffffffffff1916600160a060020a0392909216919091179055565b600160a060020a033316600090815260026020526040812054819060ff161515600114610902576040805160e560020a62461bcd02815260206004820152601360248201527f6e6f7420696e2061726269746572206c69737400000000000000000000000000604482015290519081900360640190fd5b506000828152600460209081526040808320600160a060020a0333168452600781019092529091205460ff1615610983576040805160e560020a62461bcd02815260206004820152600e60248201527f616c726561647920766f69746564000000000000000000000000000000000000604482015290519081900360640190fd5b50600192915050565b6000805433600160a060020a039081169116146109f3576040805160e560020a62461bcd02815260206004820152600a60248201527f4f6e6c79206f776e657200000000000000000000000000000000000000000000604482015290519081900360640190fd5b600160a060020a03821660009081526002602052604090205460ff1615156104865750600160a060020a0381166000908152600260205260409020805460ff191660019081179091556003805461ffff80821684011661ffff1990911617905561048a565b60055481565b600080610a6a8461088b565b5050600083815260046020526040902060058101541515610ad5576040805160e560020a62461bcd02815260206004820152601760248201527f6e6f742063726561746564206172626974726174696f6e000000000000000000604482015290519081900360640190fd5b600160a060020a03331660009081526007820160205260409020805460ff191660019081179091556008820180549091019055600481015460ff1615610b65576040805160e560020a62461bcd02815260206004820152601260248201527f6172626974726174696f6e20636c6f7365640000000000000000000000000000604482015290519081900360640190fd5b8215610b94576000848152600660205260409020805461ffff8082166001011661ffff19909116179055610bbb565b6000848152600660205260409020805461ffff19811661ffff918216600019019091161790555b60008481526006602090815260409182902054825187815261ffff9091169181019190915281517f25cf8af439990b1c8052f6bdc2e0307f473ce3d3d46712bae3301f7c8bdd2dcc929181900390910190a150505060009081526006602052604090205461ffff1690565b60015460009033600160a060020a0390811691161480610c54575060005433600160a060020a039081169116145b1515610caa576040805160e560020a62461bcd02815260206004820152601060248201527f4f6e6c7920506c6163654d61726b657400000000000000000000000000000000604482015290519081900360640190fd5b60056000815480929190600101919050555061012060405190810160405280600554815260200187600160a060020a0316815260200186600160a060020a031681526020018581526020016000151581526020014281526020018461ffff1681526020018361ffff16815260200160008152506004600060055481526020019081526020016000206000820151816000015560208201518160010160006101000a815481600160a060020a030219169083600160a060020a0316021790555060408201518160020160006101000a815481600160a060020a030219169083600160a060020a031602179055506060820151816003015560808201518160040160006101000a81548160ff02191690831515021790555060a0820151816005015560c08201518160060160006101000a81548161ffff021916908361ffff16021790555060e08201518160060160026101000a81548161ffff021916908361ffff16021790555061010082015181600801559050506107d060066000600554815260200190815260200160002060006101000a81548161ffff021916908361ffff1602179055507fbff007c203963c45824564cc1f2862fc2c1597d85c1b5084ba244a3ae85b94176005546040518082815260200191505060405180910390a15060055495945050505050565b60035461ffff1681565b6000806000806005548511158015610eb85750600085115b1515610f0e576040805160e560020a62461bcd02815260206004820152600c60248201527f6e6f742076616c69642049640000000000000000000000000000000000000000604482015290519081900360640190fd5b6000858152600460205260409020600881015460038054929650610f369261ffff1690610353565b92506018603c8086600501544203811515610f4d57fe5b04811515610f5757fe5b04811515610f6157fe5b60068601549190049250600a61ffff91821602169050808310801590610f955750600684015462010000900461ffff168211155b1515610feb576040805160e560020a62461bcd02815260206004820152601160248201527f6e6f7420656e6f75676820766f69746564000000000000000000000000000000604482015290519081900360640190fd5b50505050505600a165627a7a7230582096a92ac0c71851b42f7165145a9b51d5d072dbb282701cbdf600bc9c786769190029",
  "source": "// Контракт для арбитража\npragma solidity ^0.4.17;\n\n\ncontract SitisArbitration {\n\n    // solidity сходит с ума, при переходе от положительного к отрицательному.\n    // Будем считать MID_VOTE - начальным занчением голосования\n    uint16 constant MID_VOTE = 2000;\n    address public owner;\n    // адрес контракта SitisServicePlacemarkert\n    address public sitisServicePlacemarkert;\n    // список арбитров\n    // address[] public arbiterList;\n    mapping(address => bool) public arbiterList;\n    uint16 public arbiterListCount;\n\n    constructor (address _market, address[] _arbiterList) public {\n        owner = msg.sender;\n        sitisServicePlacemarkert = _market;\n        for (uint i = 0; i < _arbiterList.length; i++) {\n            arbiterList[_arbiterList[i]] = true;\n            arbiterListCount += 1;\n        }\n        // arbiterList = _arbiterList;\n    }\n\n    modifier onlyOwner() {\n        require(msg.sender == owner, \"Only owner\");\n        _;\n    }\n    \n    modifier onlyPlaceMarket() {\n        // только площадка может создавать или автор контракта\n        require(msg.sender == sitisServicePlacemarkert || msg.sender == owner, \"Only PlaceMarket\");\n        _;\n    }\n\n    function addArbiter(\n        address _newArbiterWalet\n    ) public onlyOwner returns (bool) {\n        if (arbiterList[_newArbiterWalet] == false){\n            arbiterList[_newArbiterWalet] = true;\n            arbiterListCount += 1;\n            return true;\n        }\n        return false;\n    }\n\n    function delArbiter(\n        address _arbiterWalet\n    ) public onlyOwner returns (bool) {\n        if (arbiterList[_arbiterWalet] == true){\n            arbiterListCount -= 1;\n            arbiterList[_arbiterWalet] = false;\n            return true;\n        }\n        return false;\n    }\n\n     // Арбитраж\n    struct Arbitration {\n        uint256 id;\n        address buyerId;\n        address serviceOwner;\n        uint256 purchasedId;\n        bool closed;\n        uint created;\n        uint16 limit_percent;  // минимальное кол-во голосов для закрытия сделки\n        uint16 limit_days;  // кол-во дней через которое можно однозначно закрыть арбитраж\n        // арбитраж => кто проголосовал\n        mapping(address => bool) voitedArbiter;\n        uint voitedCount;\n    }\n     // Создан спор для арбитража\n    event createdArbitrationEvent(\n        uint256 id\n    );\n    // Арбитраж закрыт\n    event closedArbitrationEvent(\n        uint256 id,\n        address winner,\n        uint256 purchasedId,\n        string memberType\n    );\n    event voteArbitrationEvent(\n        uint id,\n        uint16 voteRes\n    );\n\n    // маппинг арбитражей\n    mapping (uint256 => Arbitration) public arbiterStats;\n    // кол-во арбитражей\n    uint256 public arbiterCount;\n\n    // результаты арбитраж => + toBuyer;  - toServiceOwner\n    mapping(uint => uint16) public voitedResults;\n\n    // создать арбитраж по сделке\n    function createArbitration (\n        address _buyerId,\n        address _serviceOwner,\n        uint256 _purchasedId,\n        uint16 _limit_percent,\n        uint16 _limit_days\n    ) public onlyPlaceMarket\n        returns (uint256 arbiterId) {\n        arbiterCount++;\n        arbiterStats[arbiterCount] = Arbitration({\n            id: arbiterCount,\n            buyerId : _buyerId,\n            serviceOwner: _serviceOwner,\n            purchasedId: _purchasedId,\n            closed: false,\n            created: now,\n            voitedCount: 0,\n            limit_percent: _limit_percent,\n            limit_days: _limit_days\n        });\n        voitedResults[arbiterCount] = MID_VOTE;\n        emit createdArbitrationEvent(arbiterCount);\n        return arbiterCount;\n    }\n\n    function vote(uint arbitrationId, bool result) public\n    returns (uint16) {\n        validArbiter(arbitrationId);\n        Arbitration storage a = arbiterStats[arbitrationId];\n        require (a.created != 0, \"not created arbitration\");\n\n        a.voitedArbiter[msg.sender] = true;\n        a.voitedCount += 1;\n        require (a.closed == false, \"arbitration closed\");\n\n        if (result){\n            voitedResults[arbitrationId] += 1;\n        } else {\n            voitedResults[arbitrationId] -= 1;\n        }\n        emit voteArbitrationEvent(\n            arbitrationId,\n            voitedResults[arbitrationId]\n        );\n        return voitedResults[arbitrationId];\n    }\n\n    // закрыть арбитраж\n    // плохо что бч метод vote и closeVote в событиях не выдают за кого голос и в чью пользу закрывается\n    function closeVote(uint arbitrationId) public\n    returns (bool) {\n        validCloseArbitration(arbitrationId);\n        Arbitration storage a = arbiterStats[arbitrationId];\n        a.closed = true;\n        SitisPlaceMarketInt _placemarketContract = SitisPlaceMarketInt(sitisServicePlacemarkert);\n        bool res = false;\n        address winner;\n        string memory memberType;\n\n        if (voitedResults[arbitrationId] <= 2000) {\n            // закрыть покупку, перечислить средства продавцу.\n            // function closePurchase (uint256 _purchaseId)\n            res = _placemarketContract.closePurchase(a.purchasedId);\n            winner = a.serviceOwner;\n            memberType = 'seller';\n        } else {\n            // отправляем средства покупателю\n            res = _placemarketContract.cancelService(a.purchasedId);\n            winner = a.buyerId;\n        }\n        emit closedArbitrationEvent(\n            arbitrationId,\n            winner,\n            a.purchasedId,\n            memberType = 'buyer'\n        );\n        return res;\n    }\n\n    // вычислить процент целочисленный с точностью\n    function percent(uint numerator, uint denominator, uint precision)\n    public view returns(uint quotient) {\n        // caution, check safe-to-multiply here\n        uint _numerator = numerator * 10 ** (precision+1);\n        // with rounding of last digit\n        uint _quotient = ((_numerator / denominator) + 5) / 10;\n        return ( _quotient);\n    }\n    // проголосовал ли арбитер с адресом addr в арбитраже arbiterId\n    function getVoitedArbiter(uint arbiterId, address addr) public view returns (bool) {\n        return arbiterStats[arbiterId].voitedArbiter[addr];\n    }\n\n    function validArbiter(uint arbiterId) public view returns (bool) {\n        // Проверяем что арбитер есть в списке арбитров\n        require(arbiterList[msg.sender] == true, \"not in arbiter list\");\n        // // Проверяем что арбитер еще не отдал голос\n        Arbitration storage a = arbiterStats[arbiterId];\n        require(a.voitedArbiter[msg.sender] == false, \"already voited\");\n        return true;\n    }\n\n    function validCloseArbitration(uint arbiterId) internal view  {\n        require(arbiterId <= arbiterCount && arbiterId > 0, \"not valid Id\");\n        Arbitration storage a = arbiterStats[arbiterId];\n        uint percenVoited = percent(a.voitedCount, arbiterListCount, 3);\n        uint diff = (now - a.created) / 60 / 60 / 24;  // days\n        uint _limit_percent = a.limit_percent * 10;\n        require(percenVoited >= _limit_percent && diff <= a.limit_days, \"not enough voited\");\n    }\n\n    function changeOwner(address newOwner) public {\n        if (msg.sender != owner) revert(\"Only owner\");\n        owner = newOwner;\n    }\n}\n\n// abstract methods\ncontract SitisPlaceMarketInt {\n    function closePurchase (uint256 _purchaseId) public returns (bool result);\n    function cancelService (uint256 _purchaseId) public returns (bool result);\n}",
  "sourcePath": "/home/sok/code/test_dapp/contracts/SitisArbitration.sol",
  "compiler": {
    "name": "solc",
    "version": "0.4.23+commit.124ca40d.Emscripten.clang"
  },
  "schemaVersion": "2.0.0",
  "updatedAt": "2018-09-02T03:08:30.353Z"
}