{
  "contractName": "SitisArbitration",
  "abi": [
    {
      "constant": true,
      "inputs": [
        {
          "name": "",
          "type": "uint256"
        }
      ],
      "name": "arbiterStats",
      "outputs": [
        {
          "name": "id",
          "type": "uint256"
        },
        {
          "name": "buyerId",
          "type": "uint256"
        },
        {
          "name": "serviceOwner",
          "type": "uint256"
        },
        {
          "name": "purchasedId",
          "type": "uint256"
        },
        {
          "name": "closed",
          "type": "bool"
        },
        {
          "name": "created",
          "type": "uint256"
        },
        {
          "name": "limit_percent",
          "type": "uint8"
        },
        {
          "name": "limit_days",
          "type": "uint8"
        },
        {
          "name": "voitedCount",
          "type": "uint256"
        }
      ],
      "payable": false,
      "stateMutability": "view",
      "type": "function"
    },
    {
      "constant": true,
      "inputs": [],
      "name": "owner",
      "outputs": [
        {
          "name": "",
          "type": "address"
        }
      ],
      "payable": false,
      "stateMutability": "view",
      "type": "function"
    },
    {
      "constant": true,
      "inputs": [],
      "name": "sitisServicePlacemarkert",
      "outputs": [
        {
          "name": "",
          "type": "address"
        }
      ],
      "payable": false,
      "stateMutability": "view",
      "type": "function"
    },
    {
      "constant": true,
      "inputs": [
        {
          "name": "",
          "type": "uint256"
        }
      ],
      "name": "voitedResults",
      "outputs": [
        {
          "name": "",
          "type": "uint16"
        }
      ],
      "payable": false,
      "stateMutability": "view",
      "type": "function"
    },
    {
      "constant": true,
      "inputs": [],
      "name": "arbiterCount",
      "outputs": [
        {
          "name": "",
          "type": "uint256"
        }
      ],
      "payable": false,
      "stateMutability": "view",
      "type": "function"
    },
    {
      "constant": true,
      "inputs": [],
      "name": "arbiterListCount",
      "outputs": [
        {
          "name": "",
          "type": "uint16"
        }
      ],
      "payable": false,
      "stateMutability": "view",
      "type": "function"
    },
    {
      "inputs": [
        {
          "name": "_market",
          "type": "address"
        },
        {
          "name": "_arbiterList",
          "type": "address[]"
        }
      ],
      "payable": false,
      "stateMutability": "nonpayable",
      "type": "constructor"
    },
    {
      "anonymous": false,
      "inputs": [
        {
          "indexed": false,
          "name": "id",
          "type": "uint256"
        }
      ],
      "name": "createdArbitrationEvent",
      "type": "event"
    },
    {
      "anonymous": false,
      "inputs": [
        {
          "indexed": false,
          "name": "id",
          "type": "uint256"
        }
      ],
      "name": "closedArbitrationEvent",
      "type": "event"
    },
    {
      "constant": false,
      "inputs": [
        {
          "name": "_newArbiterWalet",
          "type": "address"
        }
      ],
      "name": "addArbiter",
      "outputs": [],
      "payable": false,
      "stateMutability": "nonpayable",
      "type": "function"
    },
    {
      "constant": false,
      "inputs": [
        {
          "name": "_buyerId",
          "type": "uint256"
        },
        {
          "name": "_serviceOwner",
          "type": "uint256"
        },
        {
          "name": "_purchasedId",
          "type": "uint256"
        },
        {
          "name": "_limit_percent",
          "type": "uint8"
        },
        {
          "name": "_limit_days",
          "type": "uint8"
        }
      ],
      "name": "createArbitration",
      "outputs": [
        {
          "name": "arbiterId",
          "type": "uint256"
        }
      ],
      "payable": false,
      "stateMutability": "nonpayable",
      "type": "function"
    },
    {
      "constant": false,
      "inputs": [
        {
          "name": "arbitrationId",
          "type": "uint256"
        },
        {
          "name": "result",
          "type": "bool"
        }
      ],
      "name": "vote",
      "outputs": [
        {
          "name": "",
          "type": "uint16"
        }
      ],
      "payable": false,
      "stateMutability": "nonpayable",
      "type": "function"
    },
    {
      "constant": false,
      "inputs": [
        {
          "name": "arbitrationId",
          "type": "uint256"
        }
      ],
      "name": "closeVote",
      "outputs": [
        {
          "name": "",
          "type": "bool"
        }
      ],
      "payable": false,
      "stateMutability": "nonpayable",
      "type": "function"
    },
    {
      "constant": true,
      "inputs": [
        {
          "name": "numerator",
          "type": "uint256"
        },
        {
          "name": "denominator",
          "type": "uint256"
        },
        {
          "name": "precision",
          "type": "uint256"
        }
      ],
      "name": "percent",
      "outputs": [
        {
          "name": "quotient",
          "type": "uint256"
        }
      ],
      "payable": false,
      "stateMutability": "view",
      "type": "function"
    },
    {
      "constant": true,
      "inputs": [
        {
          "name": "arbiterId",
          "type": "uint256"
        },
        {
          "name": "addr",
          "type": "address"
        }
      ],
      "name": "getVoitedArbiter",
      "outputs": [
        {
          "name": "",
          "type": "bool"
        }
      ],
      "payable": false,
      "stateMutability": "view",
      "type": "function"
    },
    {
      "constant": true,
      "inputs": [
        {
          "name": "arbiterId",
          "type": "uint256"
        }
      ],
      "name": "validArbiter",
      "outputs": [
        {
          "name": "",
          "type": "bool"
        }
      ],
      "payable": false,
      "stateMutability": "view",
      "type": "function"
    }
  ],
  "bytecode": "0x608060405234801561001057600080fd5b50604051610b62380380610b6283398101604052805160208201516000805433600160a060020a031991821617825560018054909116600160a060020a038516179055919201905b81518110156100c957600160026000848481518110151561007557fe5b602090810291909101810151600160a060020a03168252810191909152604001600020805460ff19169115159190911790556003805461ffff19811661ffff91821660019081019092161790915501610058565b505050610a87806100db6000396000f3006080604052600436106100c35763ffffffff7c01000000000000000000000000000000000000000000000000000000006000350416622c1a9e81146100c85780630dd189d2146100f85780636e48a0351461013057806372f1bbcf146101485780638da5cb5b146101ad5780638ff4afae146101de57806396c65773146101f35780639f84ba5e14610222578063a8a8c5811461024c578063b538d3bc14610264578063c15fd28214610287578063c9d27afe1461029c578063db9c9d15146102b9575b600080fd5b3480156100d457600080fd5b506100e66004356024356044356102ce565b60408051918252519081900360200190f35b34801561010457600080fd5b5061011c600435600160a060020a0360243516610303565b604080519115158252519081900360200190f35b34801561013c57600080fd5b5061011c600435610332565b34801561015457600080fd5b5061016060043561046a565b60408051998a5260208a0198909852888801969096526060880194909452911515608087015260a086015260ff90811660c08601521660e084015261010083015251908190036101200190f35b3480156101b957600080fd5b506101c26104bc565b60408051600160a060020a039092168252519081900360200190f35b3480156101ea57600080fd5b506101c26104cb565b3480156101ff57600080fd5b5061020b6004356104da565b6040805161ffff9092168252519081900360200190f35b34801561022e57600080fd5b506100e660043560243560443560ff606435811690608435166104f0565b34801561025857600080fd5b5061011c60043561061a565b34801561027057600080fd5b50610285600160a060020a0360043516610709565b005b34801561029357600080fd5b506100e661078f565b3480156102a857600080fd5b5061020b6004356024351515610795565b3480156102c557600080fd5b5061020b610902565b600080600083600101600a0a86029150600a85838115156102eb57fe5b046005018115156102f857fe5b049695505050505050565b6000828152600460209081526040808320600160a060020a038516845260070190915290205460ff1692915050565b60008061033e8361090c565b50506000828152600460208190526040909120908101805460ff1916600117905560088101546107d0106103d1576001546003820154604080517f636c6f7365507572636861736500000000000000000000000000000000000000815260208101929092528051600160a060020a0390931692620f42409280830192600092918290030181838787f19250505050610431565b6001546003820154604080517f63616e63656c5365727669636500000000000000000000000000000000000000815260208101929092528051600160a060020a0390931692620f42409280830192600092918290030181838787f1505050505b6040805184815290517f2f8d1a1baa53a9f2f1ec6933073fdd882ea6d879e48a811969465f2bcae883729181900360200190a150919050565b60046020819052600091825260409091208054600182015460028301546003840154948401546005850154600686015460089096015494969395929460ff928316939192828116926101009004169089565b600054600160a060020a031681565b600154600160a060020a031681565b60066020526000908152604090205461ffff1681565b600580546001908101808355604080516101208101825282815260208082018b81528284018b8152606084018b81526000608086018181524260a0880190815260ff808f1660c08a019081528e821660e08b01908152610100808c018781529d87526004808c528d88209c518d5599519e8c019e909e55965160028b0155945160038a01559151958801805496151560ff1997881617905551878c015591516006808801805495518516909b0261ff00199290941694909516939093179290921617909655935160089092019190915584548452918252808320805461ffff19166107d017905592548351908152925191927fbff007c203963c45824564cc1f2862fc2c1597d85c1b5084ba244a3ae85b9417929081900390910190a15060055495945050505050565b33600090815260026020526040812054819060ff161515600114610688576040805160e560020a62461bcd02815260206004820152601360248201527f6e6f7420696e2061726269746572206c69737400000000000000000000000000604482015290519081900360640190fd5b506000828152600460209081526040808320338452600781019092529091205460ff1615610700576040805160e560020a62461bcd02815260206004820152600e60248201527f616c726561647920766f69746564000000000000000000000000000000000000604482015290519081900360640190fd5b50600192915050565b600054600160a060020a0316331461076b576040805160e560020a62461bcd02815260206004820152600a60248201527f4f6e6c79206f776e657200000000000000000000000000000000000000000000604482015290519081900360640190fd5b600160a060020a03166000908152600260205260409020805460ff19166001179055565b60055481565b6000806107a18461061a565b505060008381526004602052604090206005810154151561080c576040805160e560020a62461bcd02815260206004820152601760248201527f6e6f742063726561746564206172626974726174696f6e000000000000000000604482015290519081900360640190fd5b3360009081526007820160205260409020805460ff191660019081179091556008820180549091019055600481015460ff1615610893576040805160e560020a62461bcd02815260206004820152601260248201527f6172626974726174696f6e20636c6f7365640000000000000000000000000000604482015290519081900360640190fd5b82156108c2576000848152600660205260409020805461ffff8082166001011661ffff199091161790556108e9565b6000848152600660205260409020805461ffff19811661ffff918216600019019091161790555b50505060009081526006602052604090205461ffff1690565b60035461ffff1681565b60008060008060055485111580156109245750600085115b151561097a576040805160e560020a62461bcd02815260206004820152600c60248201527f6e6f742076616c69642049640000000000000000000000000000000000000000604482015290519081900360640190fd5b60008581526004602052604090206008810154600380549295506109a29261ffff16906102ce565b91506018603c80856005015442038115156109b957fe5b048115156109c357fe5b048115156109cd57fe5b60068501549190049150600a60ff9182160216821180156109fa57506006830154610100900460ff168111155b1515610a50576040805160e560020a62461bcd02815260206004820152601160248201527f6e6f7420656e6f75676820766f69746564000000000000000000000000000000604482015290519081900360640190fd5b5060019493505050505600a165627a7a723058201444f9e84bc16df9fd7e6aa5cdeb4cec25810feef445fb502b5a72e09eafbdc00029",
  "source": "// Контракт для арбитража\npragma solidity ^0.4.17;\n\ncontract SitisArbitration {\n\n    // solidity сходит с ума, при переходе от положительного вк отрицательному. \n    // Будем считать MID_VOTE - начальным занчением голосования \n    uint16 constant MID_VOTE = 2000;\n    address public owner;\n    // адрес контракта SitisServicePlacemarkert\n    address public sitisServicePlacemarkert;\n    // список арбитров\n    // address[] public arbiterList;\n    mapping(address => bool) arbiterList;\n    uint16 public arbiterListCount;\n\n    constructor (address _market, address[] _arbiterList) public {\n        owner = msg.sender;\n        sitisServicePlacemarkert = _market;\n        for (uint i = 0; i < _arbiterList.length; i++) {\n            arbiterList[_arbiterList[i]] = true;\n            arbiterListCount += 1;\n        }\n        // arbiterList = _arbiterList;\n    }\n\n    modifier onlyOwner() {\n        require(msg.sender == owner, \"Only owner\");\n        _;\n    }\n\n    function addArbiter(\n        address _newArbiterWalet\n    ) public onlyOwner {\n        arbiterList[_newArbiterWalet] = true;\n    }\n\n     // Арбитраж\n    struct Arbitration {\n        uint256 id;\n        uint256 buyerId;\n        uint256 serviceOwner;\n        uint256 purchasedId;\n        bool closed;\n        uint created;\n        uint8 limit_percent;  // минимальное кол-во голосов для закрытия сделки\n        uint8 limit_days;  // кол-во дней через которое можно однозначно закрыть арбитраж\n        // арбитраж => кто проголосовал\n        mapping(address => bool) voitedArbiter;\n        uint voitedCount;\n\n        // mapping(uint => address[]) voitedArbiter;\n    }\n     // Создан спор для арбитража\n    event createdArbitrationEvent(\n        uint256 id\n    );\n    // Создан спор для арбитража\n    event closedArbitrationEvent(\n        uint256 id\n    );\n    // маппинг арбитражей\n    mapping (uint256 => Arbitration) public arbiterStats;\n    // кол-во арбитражей\n    uint256 public arbiterCount;\n\n    // результаты арбитраж => + toBuyer;  - toServiceOwner\n    mapping(uint => uint16) public voitedResults;\n\n    // создать арбитраж по сделке\n    function createArbitration (\n        uint256 _buyerId,\n        uint256 _serviceOwner,\n        uint256 _purchasedId,\n        uint8 _limit_percent,\n        uint8 _limit_days\n\n    ) public\n        returns (uint256 arbiterId) {\n        // только площадка может создавать или автор контракта\n        // require(msg.sender == sitisServicePlacemarkert || msg.sender == owner, \"not access\");\n        arbiterCount++;\n\n        arbiterStats[arbiterCount] = Arbitration({\n            id: arbiterCount,\n            buyerId : _buyerId,\n            serviceOwner: _serviceOwner,\n            purchasedId: _purchasedId,\n            closed: false,\n            created: now,\n            voitedCount: 0,\n            limit_percent: _limit_percent,\n            limit_days: _limit_days\n        });\n        voitedResults[arbiterCount] = MID_VOTE;\n        emit createdArbitrationEvent(arbiterCount);\n        return arbiterCount;\n    }\n\n    function vote(uint arbitrationId, bool result) public\n    returns (uint16) {\n        validArbiter(arbitrationId);\n        Arbitration storage a = arbiterStats[arbitrationId];\n        require (a.created != 0, \"not created arbitration\");\n\n        a.voitedArbiter[msg.sender] = true;\n        a.voitedCount += 1;\n        require (a.closed == false, \"arbitration closed\");\n\n        if (result){\n            voitedResults[arbitrationId] += 1;\n        } else {\n            voitedResults[arbitrationId] -= 1;\n        }\n        return voitedResults[arbitrationId];\n    }\n\n    // закрыть арбитраж\n    function closeVote(uint arbitrationId) public\n    returns (bool) {\n        validCloseArbitration(arbitrationId);\n        Arbitration storage a = arbiterStats[arbitrationId];\n        a.closed = true;\n        if (a.voitedCount <= 2000){\n            // закрыть покупку, перечислить средства продавцу.\n            // function closePurchase (uint256 _purchaseId)\n            // TODO: возможно вызов наджо переписать вотт так\n            //  if (!addressB.call.gas(0).value(1 ether)(bytes4(sha3(\"getX()\")))) {\n            //  throw;\n            sitisServicePlacemarkert.call.gas(1000000)(\"closePurchase\", a.purchasedId);\n        } else {\n            // отправляем средства покупателю\n            sitisServicePlacemarkert.call.gas(1000000)(\"cancelService\", a.purchasedId);\n        }\n        emit closedArbitrationEvent(arbitrationId);\n    }\n\n    // вычислить процент целочисленный с точностью\n    function percent(uint numerator, uint denominator, uint precision)\n    public view returns(uint quotient) {\n        // caution, check safe-to-multiply here\n        uint _numerator = numerator * 10 ** (precision+1);\n        // with rounding of last digit\n        uint _quotient = ((_numerator / denominator) + 5) / 10;\n        return ( _quotient);\n    }\n    // проголосовал ли арбитер с адресом addr в арбитраже arbiterId\n    function getVoitedArbiter(uint arbiterId, address addr) public view returns (bool) {\n        return arbiterStats[arbiterId].voitedArbiter[addr];\n    }\n\n    function validArbiter(uint arbiterId) public view returns (bool) {\n        // Проверяем что арбитер есть в списке арбитров\n        require(arbiterList[msg.sender] == true, \"not in arbiter list\");\n        // // Проверяем что арбитер еще не отдал голос\n        Arbitration storage a = arbiterStats[arbiterId];\n        require(a.voitedArbiter[msg.sender] == false, \"already voited\");\n        return true;\n    }\n\n    function validCloseArbitration(uint arbiterId) internal view returns (bool) {\n        require(arbiterId <= arbiterCount && arbiterId > 0, \"not valid Id\");\n        Arbitration storage a = arbiterStats[arbiterId];\n        uint percenVoited = percent(a.voitedCount, arbiterListCount, 3);\n        uint diff = (now - a.created) / 60 / 60 / 24;  // days\n        require(percenVoited > a.limit_percent * 10 && diff <= a.limit_days, \"not enough voited\");\n        return true;\n    }\n}\n",
  "sourcePath": "/home/sok/code/test_dapp/contracts/SitisArbitration.sol",
  "compiler": {
    "name": "solc",
    "version": "0.4.24+commit.e67f0147.Emscripten.clang"
  },
  "schemaVersion": "2.0.1",
  "updatedAt": "2018-08-16T18:20:37.089Z"
}