{
  "contractName": "SitisPlaceMarket",
  "abi": [
    {
      "constant": true,
      "inputs": [],
      "name": "serviceCount",
      "outputs": [
        {
          "name": "",
          "type": "uint256"
        }
      ],
      "payable": false,
      "stateMutability": "view",
      "type": "function"
    },
    {
      "constant": true,
      "inputs": [],
      "name": "purchasesCount",
      "outputs": [
        {
          "name": "",
          "type": "uint256"
        }
      ],
      "payable": false,
      "stateMutability": "view",
      "type": "function"
    },
    {
      "constant": true,
      "inputs": [
        {
          "name": "",
          "type": "uint256"
        }
      ],
      "name": "purchases",
      "outputs": [
        {
          "name": "id",
          "type": "uint256"
        },
        {
          "name": "serviceId",
          "type": "uint256"
        },
        {
          "name": "cnt",
          "type": "uint256"
        },
        {
          "name": "buyer",
          "type": "address"
        },
        {
          "name": "status",
          "type": "uint8"
        },
        {
          "name": "cancelBuyer",
          "type": "bool"
        },
        {
          "name": "cancelOwner",
          "type": "bool"
        },
        {
          "name": "closed",
          "type": "bool"
        }
      ],
      "payable": false,
      "stateMutability": "view",
      "type": "function"
    },
    {
      "constant": true,
      "inputs": [],
      "name": "owner",
      "outputs": [
        {
          "name": "",
          "type": "address"
        }
      ],
      "payable": false,
      "stateMutability": "view",
      "type": "function"
    },
    {
      "constant": true,
      "inputs": [],
      "name": "arbiterWallet",
      "outputs": [
        {
          "name": "",
          "type": "address"
        }
      ],
      "payable": false,
      "stateMutability": "view",
      "type": "function"
    },
    {
      "constant": true,
      "inputs": [
        {
          "name": "",
          "type": "uint256"
        }
      ],
      "name": "services",
      "outputs": [
        {
          "name": "id",
          "type": "uint256"
        },
        {
          "name": "serviceHash",
          "type": "bytes32"
        },
        {
          "name": "amount",
          "type": "uint256"
        },
        {
          "name": "serviceOwner",
          "type": "address"
        },
        {
          "name": "closed",
          "type": "bool"
        }
      ],
      "payable": false,
      "stateMutability": "view",
      "type": "function"
    },
    {
      "constant": true,
      "inputs": [
        {
          "name": "",
          "type": "bytes32"
        }
      ],
      "name": "hashServices",
      "outputs": [
        {
          "name": "id",
          "type": "uint256"
        },
        {
          "name": "serviceHash",
          "type": "bytes32"
        },
        {
          "name": "amount",
          "type": "uint256"
        },
        {
          "name": "serviceOwner",
          "type": "address"
        },
        {
          "name": "closed",
          "type": "bool"
        }
      ],
      "payable": false,
      "stateMutability": "view",
      "type": "function"
    },
    {
      "inputs": [
        {
          "name": "_arbiter",
          "type": "address"
        }
      ],
      "payable": false,
      "stateMutability": "nonpayable",
      "type": "constructor"
    },
    {
      "anonymous": false,
      "inputs": [
        {
          "indexed": true,
          "name": "buyerAddresss",
          "type": "address"
        },
        {
          "indexed": false,
          "name": "purchaseId",
          "type": "uint256"
        },
        {
          "indexed": true,
          "name": "serviceOwner",
          "type": "address"
        },
        {
          "indexed": false,
          "name": "value",
          "type": "uint256"
        }
      ],
      "name": "buyServiceEvent",
      "type": "event"
    },
    {
      "anonymous": false,
      "inputs": [
        {
          "indexed": true,
          "name": "serviceHash",
          "type": "bytes32"
        },
        {
          "indexed": false,
          "name": "serviceId",
          "type": "uint256"
        },
        {
          "indexed": false,
          "name": "amount",
          "type": "uint256"
        },
        {
          "indexed": false,
          "name": "serviceOwner",
          "type": "address"
        }
      ],
      "name": "serviceCreateEvent",
      "type": "event"
    },
    {
      "anonymous": false,
      "inputs": [
        {
          "indexed": false,
          "name": "serviceId",
          "type": "uint256"
        }
      ],
      "name": "serviceCloseEvent",
      "type": "event"
    },
    {
      "anonymous": false,
      "inputs": [
        {
          "indexed": false,
          "name": "_purchaseId",
          "type": "uint256"
        },
        {
          "indexed": false,
          "name": "_amount",
          "type": "uint256"
        }
      ],
      "name": "purchaseCloseEvent",
      "type": "event"
    },
    {
      "anonymous": false,
      "inputs": [
        {
          "indexed": false,
          "name": "purchaseId",
          "type": "uint256"
        },
        {
          "indexed": false,
          "name": "serviceId",
          "type": "uint256"
        },
        {
          "indexed": false,
          "name": "amount",
          "type": "uint256"
        },
        {
          "indexed": false,
          "name": "cancelOwner",
          "type": "bool"
        },
        {
          "indexed": false,
          "name": "cancelBuyer",
          "type": "bool"
        },
        {
          "indexed": false,
          "name": "status",
          "type": "uint8"
        }
      ],
      "name": "cancelPurchaseEvent",
      "type": "event"
    },
    {
      "constant": false,
      "inputs": [
        {
          "name": "_serviceHash",
          "type": "bytes32"
        },
        {
          "name": "_amount",
          "type": "uint256"
        }
      ],
      "name": "createService",
      "outputs": [
        {
          "name": "serviceId",
          "type": "uint256"
        }
      ],
      "payable": false,
      "stateMutability": "nonpayable",
      "type": "function"
    },
    {
      "constant": false,
      "inputs": [
        {
          "name": "_serviceId",
          "type": "uint256"
        }
      ],
      "name": "closeService",
      "outputs": [
        {
          "name": "serviceId",
          "type": "uint256"
        }
      ],
      "payable": false,
      "stateMutability": "nonpayable",
      "type": "function"
    },
    {
      "constant": false,
      "inputs": [
        {
          "name": "_purchaseId",
          "type": "uint256"
        }
      ],
      "name": "closePurchase",
      "outputs": [
        {
          "name": "result",
          "type": "bool"
        }
      ],
      "payable": false,
      "stateMutability": "nonpayable",
      "type": "function"
    },
    {
      "constant": false,
      "inputs": [
        {
          "name": "_serviceId",
          "type": "uint256"
        },
        {
          "name": "_cnt",
          "type": "uint256"
        }
      ],
      "name": "buyService",
      "outputs": [
        {
          "name": "purchasesId",
          "type": "uint256"
        }
      ],
      "payable": true,
      "stateMutability": "payable",
      "type": "function"
    },
    {
      "constant": false,
      "inputs": [
        {
          "name": "_purchaseId",
          "type": "uint256"
        }
      ],
      "name": "cancelService",
      "outputs": [
        {
          "name": "result",
          "type": "bool"
        }
      ],
      "payable": false,
      "stateMutability": "nonpayable",
      "type": "function"
    },
    {
      "constant": false,
      "inputs": [
        {
          "name": "_beneficiary",
          "type": "address"
        },
        {
          "name": "_weiAmount",
          "type": "uint256"
        }
      ],
      "name": "withdrawFunds",
      "outputs": [],
      "payable": false,
      "stateMutability": "nonpayable",
      "type": "function"
    },
    {
      "constant": false,
      "inputs": [
        {
          "name": "_newArbiterWalet",
          "type": "address"
        }
      ],
      "name": "changeArbiter",
      "outputs": [],
      "payable": false,
      "stateMutability": "nonpayable",
      "type": "function"
    }
  ],
  "bytecode": "0x608060405234801561001057600080fd5b5060405160208061138d833981016040525160008054600160a060020a0319908116331790915560018054600160a060020a039093169290911691909117905561132e8061005f6000396000f3006080604052600436106100cf5763ffffffff7c01000000000000000000000000000000000000000000000000000000006000350416630623752681146100d457806308586e70146100fb578063148031a11461011357806322b0f2301461013f578063509040811461014d57806376cfa3121461016257806379a5cf44146101855780638392fe31146101a05780638da5cb5b14610209578063a11f44be1461023a578063c10753291461024f578063c14a803414610273578063c22c4f431461028b578063f5490e61146102d9575b600080fd5b3480156100e057600080fd5b506100e96102f1565b60408051918252519081900360200190f35b34801561010757600080fd5b506100e96004356102f7565b34801561011f57600080fd5b5061012b600435610432565b604080519115158252519081900360200190f35b6100e96004356024356108e6565b34801561015957600080fd5b506100e9610ae4565b34801561016e57600080fd5b50610183600160a060020a0360043516610aea565b005b34801561019157600080fd5b506100e9600435602435610b30565b3480156101ac57600080fd5b506101b8600435610d88565b60408051988952602089019790975287870195909552600160a060020a03909316606087015260ff9091166080860152151560a0850152151560c0840152151560e083015251908190036101000190f35b34801561021557600080fd5b5061021e610de2565b60408051600160a060020a039092168252519081900360200190f35b34801561024657600080fd5b5061021e610df1565b34801561025b57600080fd5b50610183600160a060020a0360043516602435610e00565b34801561027f57600080fd5b5061012b600435610e52565b34801561029757600080fd5b506102a360043561109e565b60408051958652602086019490945284840192909252600160a060020a0316606084015215156080830152519081900360a00190f35b3480156102e557600080fd5b506102a36004356110dc565b60045481565b60008181526002602052604081206003810154600160a060020a0316331461031e57600080fd5b6003808201805460a060020a60ff021990811660a060020a908117835560008781526002602081815260408084208954815560018a8101805483830155858c018054848801558a54938c01805473ffffffffffffffffffffffffffffffffffffffff19908116600160a060020a03968716178083558d548c900460ff90811615158d02918e169190911790925583548a528d8852988690208e548155925493830193909355549581019590955588549490990180549095169316929092178084559554849004909616151590920293909216929092179055805185815290517f35fd979ab6965b5a6466b1f0ad0d60667a26e1e7d53708c2e68fc9eae6285eda929181900390910190a15050600454919050565b60008181526005602090815260408083206001810154845260029092528220805483908190151561046257600080fd5b6003840154600160a060020a031633148061048957506003830154600160a060020a031633145b8061049e5750600154600160a060020a031633145b15156104a957600080fd5b600384015460b860020a900460ff16156104c257600080fd5b60028381015490850154600386015491029250600160a060020a031633141561050d5760038401805475ff000000000000000000000000000000000000000000191660a860020a1790555b6003830154600160a060020a031633141561054b5760038401805476ff00000000000000000000000000000000000000000000191660b060020a1790555b600154600160a060020a0316331480156105735750600384015460a060020a900460ff166002145b156105ba576003840154604051600160a060020a039091169083156108fc029084906000818181858888f193505050501580156105b4573d6000803e3d6000fd5b50610758565b600384015460b060020a900460ff16151560011480156105ea5750600384015460a860020a900460ff1615156001145b156106745760038401805460b860020a77ff0000000000000000000000000000000000000000000000199091161760a060020a60ff021916740300000000000000000000000000000000000000001790819055604051600160a060020a03909116906108fc8415029084906000818181858888f193505050501580156105b4573d6000803e3d6000fd5b506003838101805460a060020a60ff02191674020000000000000000000000000000000000000000179081905560015491840154604080517fd81009b7000000000000000000000000000000000000000000000000000000008152600160a060020a039384166004820152918316602483015260448201899052606480830152601e6084830152519190921691829163d81009b79160a4808201926020929091908290030181600087803b15801561072b57600080fd5b505af115801561073f573d6000803e3d6000fd5b505050506040513d602081101561075557600080fd5b50505b6000868152600560209081526040918290208654815560018088018054918301919091556002808901549083015560038089018054919093018054600160a060020a0390921673ffffffffffffffffffffffffffffffffffffffff1990921691909117808255835460a060020a60ff021990911660a060020a9182900460ff908116830291909117808455855475ff0000000000000000000000000000000000000000001990911660a860020a9182900483161515820217808555865476ff000000000000000000000000000000000000000000001990911660b060020a9182900484161515820217808655875477ff00000000000000000000000000000000000000000000001990911660b860020a9182900485161515909102179094559354945487518e81529687019590955285870189905291840482161515606086015291830481161515608085015291041660a082015290517f7d555dc25e2380bd39cee849bd7c8831948760493c01f13f5723b307650b45df9160c0908290030190a150600195945050505050565b600082815260026020526040812060038101548154839161091591600160a060020a039091169034908761111a565b600382015460a060020a900460ff161561092e57600080fd5b5060068054600190810180835560009081526005602090815260408083208085018a8155865480835560028084018c8155600380860180543373ffffffffffffffffffffffffffffffffffffffff19918216811777ff0000ff0000000000000000000000000000000000000000191683558d548c529a89902095865595549a85019a909a5590549183019190915587549181018054600160a060020a03938416941693909317808455885460a060020a60ff021990911660ff60a060020a92839004811690920217808555895475ff0000000000000000000000000000000000000000001990911660a860020a918290048316151590910217808555895476ff000000000000000000000000000000000000000000001990911660b060020a918290048316151590910217808555985477ff00000000000000000000000000000000000000000000001990991660b860020a998a90049091161515909802979097179091559487015495548251908152349381019390935281519095909416937f67fd4be98f33dcf7e654e340c027a75203f4feb0da6a033df99b3389e8caceec9281900390910190a350506006549392505050565b60065481565b600054600160a060020a03163314610b0157600080fd5b6001805473ffffffffffffffffffffffffffffffffffffffff1916600160a060020a0392909216919091179055565b600080600460008154809291906001019190505550600260006004548152602001908152602001600020905060045481600001819055508281600201819055508381600101816000191690555060008160030160146101000a81548160ff021916908315150217905550338160030160006101000a815481600160a060020a030219169083600160a060020a03160217905550806002600060045481526020019081526020016000206000820154816000015560018201548160010190600019169055600282015481600201556003820160009054906101000a9004600160a060020a03168160030160006101000a815481600160a060020a030219169083600160a060020a031602179055506003820160149054906101000a900460ff168160030160146101000a81548160ff021916908315150217905550905050806003600086600019166000191681526020019081526020016000206000820154816000015560018201548160010190600019169055600282015481600201556003820160009054906101000a9004600160a060020a03168160030160006101000a815481600160a060020a030219169083600160a060020a031602179055506003820160149054906101000a900460ff168160030160146101000a81548160ff02191690831515021790555090505083600019167ffd6a6b0b92383742d6c42d2ad40266481d93e69648b6c1720e60c21442c14c5c60045485336040518084815260200183815260200182600160a060020a0316600160a060020a03168152602001935050505060405180910390a2505060045492915050565b600560205260009081526040902080546001820154600283015460039093015491929091600160a060020a0381169060ff60a060020a820481169160a860020a810482169160b060020a820481169160b860020a90041688565b600054600160a060020a031681565b600154600160a060020a031681565b600054600160a060020a03163314610e1757600080fd5b604051600160a060020a0383169082156108fc029083906000818181858888f19350505050158015610e4d573d6000803e3d6000fd5b505050565b6000818152600560205260408120600381015482908190600160a060020a0316331480610e895750600154600160a060020a031633145b1515610e9457600080fd5b600383015460a060020a900460ff161580610ebd5750600383015460a060020a900460ff166002145b1515610ec857600080fd5b82541515610ed557600080fd5b5050600181015460009081526002602081905260408083208083015492850154600382015492519194930292600160a060020a039092169183156108fc02918491818181858888f19350505050158015610f33573d6000803e3d6000fd5b506003808401805460a060020a60ff021977ff00000000000000000000000000000000000000000000001991821660b860020a908117821660a060020a908117855560008b8152600560209081526040918290208b54815560018c810154908201556002808d01549082015587549801805473ffffffffffffffffffffffffffffffffffffffff1916600160a060020a0390991698909817808955875484900460ff908116909402951694909417808855865460a860020a90819004841615150275ff0000000000000000000000000000000000000000001990911617808855865460b060020a90819004841615150276ff000000000000000000000000000000000000000000001990911617808855955483900490911615159091029390921692909217909255815187815290810183905281517fbdb320110492be0531246f72538aefb7a3982d264d7af0b8baa6005db17ea593929181900390910190a1506001949350505050565b6002602081905260009182526040909120805460018201549282015460039092015490929190600160a060020a0381169060a060020a900460ff1685565b6003602081905260009182526040909120805460018201546002830154929093015490929190600160a060020a0381169060a060020a900460ff1685565b6000600160a060020a038516151561117c576040805160e560020a62461bcd02815260206004820152601460248201527f42656e6566696369617220697320656d70747921000000000000000000000000604482015290519081900360640190fd5b8315156111d3576040805160e560020a62461bcd02815260206004820152601060248201527f416d6f756e7420697320656d7074792100000000000000000000000000000000604482015290519081900360640190fd5b82151561122a576040805160e560020a62461bcd02815260206004820152601260248201527f73657276696365496420697320656d7074790000000000000000000000000000604482015290519081900360640190fd5b5060008281526002602052604090208054151561124657600080fd5b81151561129d576040805160e560020a62461bcd02815260206004820152600e60248201527f636f756e7420697320656d707479000000000000000000000000000000000000604482015290519081900360640190fd5b600281015482028410156112fb576040805160e560020a62461bcd02815260206004820152601060248201527f6e6f7420656e6f756768206d6f6e657900000000000000000000000000000000604482015290519081900360640190fd5b50505050505600a165627a7a7230582090770e9b078564572b380c87f5ced16451dc395a1a6279195604de78aeb095b80029",
  "source": "// Контракт для услуг на площадки SitisPlaceMarket\npragma solidity ^0.4.17;\n\ncontract SitisArbitration {\n    function createArbitration (\n        address _buyerId,\n        address _serviceOwner,\n        uint256 _purchasedId,\n        uint16 _limit_percent,\n        uint16 _limit_days\n    )\n        public returns (uint256 arbiterId);\n}\n\ncontract SitisPlaceMarket {\n    // создтель контракта\n    address public owner;\n    // адрес контракта арбитража\n    address public arbiterWallet;\n\n    constructor (address _arbiter) public {\n        owner = msg.sender;\n        arbiterWallet = _arbiter;\n    }\n\n    modifier onlyOwner() {\n        require(msg.sender == owner);\n        _;\n    }\n    // услуга/товар\n    struct Service {\n        uint256 id;\n        bytes32 serviceHash;\n        uint256 amount;\n        address serviceOwner;\n        bool closed;\n    }\n    // купленные услуги\n    struct purchasedService {\n        uint256 id;\n        uint256 serviceId;\n        uint256 cnt;\n        address buyer;\n        // 0 деньги в резерве, 1 завершен, покупка подтверждена, деньги ушли\n        // 2 арбитраж, 3 отмена покупки согласована\n        uint8 status;\n        bool cancelBuyer;  // отменил покупатель\n        bool cancelOwner;  // отменил продавец\n        bool closed;  // совершенные\n    }\n    // маппинг услуг\n    mapping(uint256 => Service) public services;\n    mapping(bytes32 => Service) public hashServices;\n    uint256 public serviceCount;\n\n    // маппинг покупок\n    mapping(uint256 => purchasedService) public purchases;\n    uint256 public purchasesCount;\n\n    // покупка услуги\n    event buyServiceEvent (\n        address indexed buyerAddresss,\n        uint256 purchaseId,\n        address indexed serviceOwner,\n        uint256 value\n    );\n    // создание услуги на продажу\n    event serviceCreateEvent (\n        bytes32 indexed serviceHash,\n        uint256 serviceId,\n        uint256 amount,\n        address serviceOwner\n    );\n    // закрытие продажи услуги\n    event serviceCloseEvent (\n        uint256 serviceId\n    );\n    // закрытие сделки\n    event purchaseCloseEvent(\n        uint256 _purchaseId,\n        uint256 _amount\n    );\n    // отмена покупки какой либо стороной\n    event cancelPurchaseEvent(\n        uint256 purchaseId,\n        uint256 serviceId,\n        uint256 amount,\n        bool cancelOwner,\n        bool cancelBuyer,\n        uint8 status\n    );\n\n    // маппинг покупок по покупателю (адрес покупателя => id покупки)\n    // mapping(address => uint) public buyerPurchases;\n\n    function createService (\n        bytes32 _serviceHash,\n        uint256 _amount\n    ) public\n        returns (uint256 serviceId) {\n        serviceCount ++;\n        Service storage c = services[serviceCount];\n        c.id = serviceCount;\n        c.amount = _amount;  // стоимость за единицу\n        c.serviceHash = _serviceHash;\n        c.closed = false;\n        c.serviceOwner = msg.sender;\n        services[serviceCount] = c;\n        hashServices[_serviceHash] = c;\n        emit serviceCreateEvent(\n            _serviceHash,\n            serviceCount,\n            _amount,\n            msg.sender\n        );\n        return serviceCount;\n    }\n    // закрыть услугу, больше не предоставлять.\n    function closeService (\n        uint256 _serviceId\n    ) public\n        returns (uint256 serviceId) {\n        Service storage c = services[_serviceId];\n        require(msg.sender == c.serviceOwner);\n        c.closed = true;\n        services[_serviceId] = c;\n        hashServices[c.serviceHash] = c;\n        emit serviceCloseEvent(\n            _serviceId\n        );\n        return serviceCount;\n    }\n    // закрыть покупку, перечислить средства продавцу.\n    function closePurchase (\n        uint256 _purchaseId\n    ) public \n        returns (bool result){\n        purchasedService storage pc = purchases[_purchaseId];\n        require(msg.sender == pc.buyer || msg.sender == arbiterWallet);\n        // закрыть можно только сделки в \"рабочем\" или покупатель согласился статусе\n        require(pc.status == 0 || pc.status == 2);\n        require(pc.id != 0);\n        Service storage c = services[pc.serviceId];\n        uint256 amount = pc.cnt * c.amount;\n        address(c.serviceOwner).transfer(amount);\n        pc.closed = true;\n        pc.status = 1;\n        purchases[_purchaseId] = pc;\n        emit purchaseCloseEvent(\n            _purchaseId,\n            amount\n        );\n        return true;\n    }\n    // купить услугу\n    function buyService (\n        uint256 _serviceId,\n        uint256 _cnt\n    ) payable public\n        returns (uint256 purchasesId) {\n        Service storage c = services[_serviceId];\n        preValidatePurchase(\n            c.serviceOwner,\n            msg.value,\n            c.id,\n            _cnt\n        );\n        require(c.closed == false);\n        purchasesCount ++;\n        purchasedService storage pc = purchases[purchasesCount];\n        pc.serviceId = _serviceId;\n        pc.id = purchasesCount;\n        pc.cnt = _cnt;\n        pc.buyer = msg.sender;\n        pc.closed = false;\n        pc.status = 0;\n        purchases[purchasesCount] = pc;\n\n        emit buyServiceEvent(\n            msg.sender,\n            purchasesCount,\n            c.serviceOwner,\n            msg.value\n        );\n        return purchasesCount;\n    }\n\n    // отмена покупки\n    function cancelService (\n        uint256 _purchaseId\n    ) public\n        returns (bool result) {\n        purchasedService storage pc = purchases[_purchaseId];\n        Service storage c = services[pc.serviceId];\n        require(c.id != 0);\n        // отменить может только покупатель или продавец или контракт арбитраж\n        require(msg.sender == pc.buyer || msg.sender == c.serviceOwner || msg.sender == arbiterWallet);\n        // сделка не закрыта\n        require(pc.closed == false);\n\n        uint256 amount = pc.cnt * c.amount;\n        if (msg.sender == pc.buyer) {\n            pc.cancelBuyer = true;\n        }\n        if (msg.sender == c.serviceOwner) {\n            pc.cancelOwner = true;\n        }\n        // пришел вызов с контракта арбитража\n        if (msg.sender == arbiterWallet && pc.status == 2) {\n            // отправляем средства покупателю\n            address(pc.buyer).transfer(amount);\n        }\n        // оба согласны;\n        else if (pc.cancelOwner == true && pc.cancelBuyer == true) {\n            pc.closed = true;\n            pc.status = 3;\n            // возврат денег покупателю\n            address(pc.buyer).transfer(amount);\n        } else {\n            pc.status = 2; // арбитраж\n            SitisArbitration _arbiterContract = SitisArbitration(arbiterWallet);\n            _arbiterContract.createArbitration(\n                pc.buyer,\n                c.serviceOwner,\n                _purchaseId,\n                100,\n                30\n            );\n        }\n        // сохраняем статус покупки\n        purchases[_purchaseId] = pc;\n        emit cancelPurchaseEvent(\n            _purchaseId,\n            pc.serviceId,\n            amount,\n            pc.cancelOwner,\n            pc.cancelBuyer,\n            pc.status\n        );\n        return true;\n    }\n\n    // validate purchase\n    function preValidatePurchase(\n        address _beneficiary,\n        uint256 _weiAmount,\n        uint256 _serviceId,\n        uint256 _purchasesCount\n    ) internal\n    {\n        require(_beneficiary != address(0), \"Beneficiar is empty!\");\n        require(_weiAmount != 0, \"Amount is empty!\");\n        require(_serviceId != 0, \"serviceId is empty\");\n        Service storage c = services[_serviceId];\n        require(c.id != 0);\n        require(_purchasesCount != 0, \"count is empty\");\n        require(c.amount * _purchasesCount <= _weiAmount, \"not enough money\");\n    }\n    // debug only\n    function withdrawFunds(\n        address _beneficiary,\n        uint256 _weiAmount\n    ) public onlyOwner {\n        address(_beneficiary).transfer(_weiAmount);\n    }\n\n    function changeArbiter(\n        address _newArbiterWalet\n    ) public onlyOwner {\n        arbiterWallet = _newArbiterWalet;\n    }\n}\n",
  "sourcePath": "/home/local/REGION/mi.sokoluk/code/blockchainapp/contracts/SitisPlaceMarket.sol",
  "compiler": {
    "name": "solc",
    "version": "0.4.24+commit.e67f0147.Emscripten.clang"
  },
  "schemaVersion": "2.0.1",
  "updatedAt": "2018-08-21T07:10:07.564Z"
}