{
  "contractName": "SitisArbitration",
  "abi": [
    {
      "constant": true,
      "inputs": [
        {
          "name": "",
          "type": "uint256"
        }
      ],
      "name": "arbiterStats",
      "outputs": [
        {
          "name": "id",
          "type": "uint256"
        },
        {
          "name": "buyerId",
          "type": "uint256"
        },
        {
          "name": "serviceOwner",
          "type": "uint256"
        },
        {
          "name": "purchasedId",
          "type": "uint256"
        },
        {
          "name": "closed",
          "type": "bool"
        },
        {
          "name": "created",
          "type": "uint256"
        },
        {
          "name": "limit_percent",
          "type": "uint16"
        },
        {
          "name": "limit_days",
          "type": "uint8"
        },
        {
          "name": "voitedCount",
          "type": "uint256"
        }
      ],
      "payable": false,
      "stateMutability": "view",
      "type": "function"
    },
    {
      "constant": true,
      "inputs": [],
      "name": "owner",
      "outputs": [
        {
          "name": "",
          "type": "address"
        }
      ],
      "payable": false,
      "stateMutability": "view",
      "type": "function"
    },
    {
      "constant": true,
      "inputs": [],
      "name": "sitisServicePlacemarkert",
      "outputs": [
        {
          "name": "",
          "type": "address"
        }
      ],
      "payable": false,
      "stateMutability": "view",
      "type": "function"
    },
    {
      "constant": true,
      "inputs": [
        {
          "name": "",
          "type": "uint256"
        }
      ],
      "name": "voitedResults",
      "outputs": [
        {
          "name": "",
          "type": "uint16"
        }
      ],
      "payable": false,
      "stateMutability": "view",
      "type": "function"
    },
    {
      "constant": true,
      "inputs": [],
      "name": "arbiterCount",
      "outputs": [
        {
          "name": "",
          "type": "uint256"
        }
      ],
      "payable": false,
      "stateMutability": "view",
      "type": "function"
    },
    {
      "constant": true,
      "inputs": [],
      "name": "arbiterListCount",
      "outputs": [
        {
          "name": "",
          "type": "uint16"
        }
      ],
      "payable": false,
      "stateMutability": "view",
      "type": "function"
    },
    {
      "inputs": [
        {
          "name": "_market",
          "type": "address"
        },
        {
          "name": "_arbiterList",
          "type": "address[]"
        }
      ],
      "payable": false,
      "stateMutability": "nonpayable",
      "type": "constructor"
    },
    {
      "anonymous": false,
      "inputs": [
        {
          "indexed": false,
          "name": "id",
          "type": "uint256"
        }
      ],
      "name": "createdArbitrationEvent",
      "type": "event"
    },
    {
      "anonymous": false,
      "inputs": [
        {
          "indexed": false,
          "name": "id",
          "type": "uint256"
        }
      ],
      "name": "closedArbitrationEvent",
      "type": "event"
    },
    {
      "constant": false,
      "inputs": [
        {
          "name": "_newArbiterWalet",
          "type": "address"
        }
      ],
      "name": "addArbiter",
      "outputs": [],
      "payable": false,
      "stateMutability": "nonpayable",
      "type": "function"
    },
    {
      "constant": false,
      "inputs": [
        {
          "name": "_buyerId",
          "type": "uint256"
        },
        {
          "name": "_serviceOwner",
          "type": "uint256"
        },
        {
          "name": "_purchasedId",
          "type": "uint256"
        },
        {
          "name": "_limit_percent",
          "type": "uint16"
        },
        {
          "name": "_limit_days",
          "type": "uint8"
        }
      ],
      "name": "createArbitration",
      "outputs": [
        {
          "name": "arbiterId",
          "type": "uint256"
        }
      ],
      "payable": false,
      "stateMutability": "nonpayable",
      "type": "function"
    },
    {
      "constant": false,
      "inputs": [
        {
          "name": "arbitrationId",
          "type": "uint256"
        },
        {
          "name": "result",
          "type": "bool"
        }
      ],
      "name": "vote",
      "outputs": [
        {
          "name": "",
          "type": "uint16"
        }
      ],
      "payable": false,
      "stateMutability": "nonpayable",
      "type": "function"
    },
    {
      "constant": false,
      "inputs": [
        {
          "name": "arbitrationId",
          "type": "uint256"
        }
      ],
      "name": "closeVote",
      "outputs": [
        {
          "name": "",
          "type": "bool"
        }
      ],
      "payable": false,
      "stateMutability": "nonpayable",
      "type": "function"
    },
    {
      "constant": true,
      "inputs": [
        {
          "name": "numerator",
          "type": "uint256"
        },
        {
          "name": "denominator",
          "type": "uint256"
        },
        {
          "name": "precision",
          "type": "uint256"
        }
      ],
      "name": "percent",
      "outputs": [
        {
          "name": "quotient",
          "type": "uint256"
        }
      ],
      "payable": false,
      "stateMutability": "view",
      "type": "function"
    },
    {
      "constant": true,
      "inputs": [
        {
          "name": "arbiterId",
          "type": "uint256"
        },
        {
          "name": "addr",
          "type": "address"
        }
      ],
      "name": "getVoitedArbiter",
      "outputs": [
        {
          "name": "",
          "type": "bool"
        }
      ],
      "payable": false,
      "stateMutability": "view",
      "type": "function"
    },
    {
      "constant": true,
      "inputs": [
        {
          "name": "arbiterId",
          "type": "uint256"
        }
      ],
      "name": "validArbiter",
      "outputs": [
        {
          "name": "",
          "type": "bool"
        }
      ],
      "payable": false,
      "stateMutability": "view",
      "type": "function"
    }
  ],
  "bytecode": "0x608060405234801561001057600080fd5b50604051610bd0380380610bd083398101604052805160208201516000805433600160a060020a031991821617825560018054909116600160a060020a038516179055919201905b81518110156100c957600160026000848481518110151561007557fe5b602090810291909101810151600160a060020a03168252810191909152604001600020805460ff19169115159190911790556003805461ffff19811661ffff91821660019081019092161790915501610058565b505050610af5806100db6000396000f3006080604052600436106100c35763ffffffff7c01000000000000000000000000000000000000000000000000000000006000350416622c1a9e81146100c85780630dd189d2146100f8578063517f9c16146101305780636e48a0351461015b57806372f1bbcf146101735780638da5cb5b146101d95780638ff4afae1461020a57806396c657731461021f578063a8a8c5811461024e578063b538d3bc14610266578063c15fd28214610289578063c9d27afe1461029e578063db9c9d15146102bb575b600080fd5b3480156100d457600080fd5b506100e66004356024356044356102d0565b60408051918252519081900360200190f35b34801561010457600080fd5b5061011c600435600160a060020a0360243516610305565b604080519115158252519081900360200190f35b34801561013c57600080fd5b506100e660043560243560443561ffff6064351660ff60843516610334565b34801561016757600080fd5b5061011c6004356104c7565b34801561017f57600080fd5b5061018b6004356105fe565b60408051998a5260208a0198909852888801969096526060880194909452911515608087015260a086015261ffff1660c085015260ff1660e084015261010083015251908190036101200190f35b3480156101e557600080fd5b506101ee610653565b60408051600160a060020a039092168252519081900360200190f35b34801561021657600080fd5b506101ee610662565b34801561022b57600080fd5b50610237600435610671565b6040805161ffff9092168252519081900360200190f35b34801561025a57600080fd5b5061011c600435610687565b34801561027257600080fd5b50610287600160a060020a0360043516610776565b005b34801561029557600080fd5b506100e66107fc565b3480156102aa57600080fd5b506102376004356024351515610802565b3480156102c757600080fd5b5061023761096f565b600080600083600101600a0a86029150600a85838115156102ed57fe5b046005018115156102fa57fe5b049695505050505050565b6000828152600460209081526040808320600160a060020a038516845260070190915290205460ff1692915050565b60006005600081548092919060010191905055506101206040519081016040528060055481526020018781526020018681526020018581526020016000151581526020014281526020018461ffff1681526020018360ff16815260200160008152506004600060055481526020019081526020016000206000820151816000015560208201518160010155604082015181600201556060820151816003015560808201518160040160006101000a81548160ff02191690831515021790555060a0820151816005015560c08201518160060160006101000a81548161ffff021916908361ffff16021790555060e08201518160060160026101000a81548160ff021916908360ff16021790555061010082015181600801559050506107d060066000600554815260200190815260200160002060006101000a81548161ffff021916908361ffff1602179055507fbff007c203963c45824564cc1f2862fc2c1597d85c1b5084ba244a3ae85b94176005546040518082815260200191505060405180910390a15060055495945050505050565b6000806104d383610979565b506000828152600460208190526040909120908101805460ff1916600117905560088101546107d010610565576001546003820154604080517f636c6f7365507572636861736500000000000000000000000000000000000000815260208101929092528051600160a060020a0390931692620f42409280830192600092918290030181838787f192505050506105c5565b6001546003820154604080517f63616e63656c5365727669636500000000000000000000000000000000000000815260208101929092528051600160a060020a0390931692620f42409280830192600092918290030181838787f1505050505b6040805184815290517f2f8d1a1baa53a9f2f1ec6933073fdd882ea6d879e48a811969465f2bcae883729181900360200190a150919050565b60046020819052600091825260409091208054600182015460028301546003840154948401546005850154600686015460089096015494969395929460ff92831693919261ffff831692620100009004169089565b600054600160a060020a031681565b600154600160a060020a031681565b60066020526000908152604090205461ffff1681565b33600090815260026020526040812054819060ff1615156001146106f5576040805160e560020a62461bcd02815260206004820152601360248201527f6e6f7420696e2061726269746572206c69737400000000000000000000000000604482015290519081900360640190fd5b506000828152600460209081526040808320338452600781019092529091205460ff161561076d576040805160e560020a62461bcd02815260206004820152600e60248201527f616c726561647920766f69746564000000000000000000000000000000000000604482015290519081900360640190fd5b50600192915050565b600054600160a060020a031633146107d8576040805160e560020a62461bcd02815260206004820152600a60248201527f4f6e6c79206f776e657200000000000000000000000000000000000000000000604482015290519081900360640190fd5b600160a060020a03166000908152600260205260409020805460ff19166001179055565b60055481565b60008061080e84610687565b5050600083815260046020526040902060058101541515610879576040805160e560020a62461bcd02815260206004820152601760248201527f6e6f742063726561746564206172626974726174696f6e000000000000000000604482015290519081900360640190fd5b3360009081526007820160205260409020805460ff191660019081179091556008820180549091019055600481015460ff1615610900576040805160e560020a62461bcd02815260206004820152601260248201527f6172626974726174696f6e20636c6f7365640000000000000000000000000000604482015290519081900360640190fd5b821561092f576000848152600660205260409020805461ffff8082166001011661ffff19909116179055610956565b6000848152600660205260409020805461ffff19811661ffff918216600019019091161790555b50505060009081526006602052604090205461ffff1690565b60035461ffff1681565b60008060008060055485111580156109915750600085115b15156109e7576040805160e560020a62461bcd02815260206004820152600c60248201527f6e6f742076616c69642049640000000000000000000000000000000000000000604482015290519081900360640190fd5b6000858152600460205260409020600881015460038054929650610a0f9261ffff16906102d0565b92506018603c8086600501544203811515610a2657fe5b04811515610a3057fe5b04811515610a3a57fe5b60068601549190049250600a61ffff918216021690508083118015610a6c5750600684015462010000900460ff168211155b1515610ac2576040805160e560020a62461bcd02815260206004820152601160248201527f6e6f7420656e6f75676820766f69746564000000000000000000000000000000604482015290519081900360640190fd5b50505050505600a165627a7a723058200035f83b13cb0ec41fc905f6bb13d418f6a0ab109cfd175da81831ea7b9d68ff0029",
  "source": "// Контракт для арбитража\npragma solidity ^0.4.17;\n\ncontract SitisArbitration {\n\n    // solidity сходит с ума, при переходе от положительного вк отрицательному. \n    // Будем считать MID_VOTE - начальным занчением голосования \n    uint16 constant MID_VOTE = 2000;\n    address public owner;\n    // адрес контракта SitisServicePlacemarkert\n    address public sitisServicePlacemarkert;\n    // список арбитров\n    // address[] public arbiterList;\n    mapping(address => bool) arbiterList;\n    uint16 public arbiterListCount;\n\n    constructor (address _market, address[] _arbiterList) public {\n        owner = msg.sender;\n        sitisServicePlacemarkert = _market;\n        for (uint i = 0; i < _arbiterList.length; i++) {\n            arbiterList[_arbiterList[i]] = true;\n            arbiterListCount += 1;\n        }\n        // arbiterList = _arbiterList;\n    }\n\n    modifier onlyOwner() {\n        require(msg.sender == owner, \"Only owner\");\n        _;\n    }\n\n    function addArbiter(\n        address _newArbiterWalet\n    ) public onlyOwner {\n        arbiterList[_newArbiterWalet] = true;\n    }\n\n     // Арбитраж\n    struct Arbitration {\n        uint256 id;\n        uint256 buyerId;\n        uint256 serviceOwner;\n        uint256 purchasedId;\n        bool closed;\n        uint created;\n        uint16 limit_percent;  // минимальное кол-во голосов для закрытия сделки\n        uint8 limit_days;  // кол-во дней через которое можно однозначно закрыть арбитраж\n        // арбитраж => кто проголосовал\n        mapping(address => bool) voitedArbiter;\n        uint voitedCount;\n\n        // mapping(uint => address[]) voitedArbiter;\n    }\n     // Создан спор для арбитража\n    event createdArbitrationEvent(\n        uint256 id\n    );\n    // Создан спор для арбитража\n    event closedArbitrationEvent(\n        uint256 id\n    );\n    // маппинг арбитражей\n    mapping (uint256 => Arbitration) public arbiterStats;\n    // кол-во арбитражей\n    uint256 public arbiterCount;\n\n    // результаты арбитраж => + toBuyer;  - toServiceOwner\n    mapping(uint => uint16) public voitedResults;\n\n    // создать арбитраж по сделке\n    function createArbitration (\n        uint256 _buyerId,\n        uint256 _serviceOwner,\n        uint256 _purchasedId,\n        uint16 _limit_percent,\n        uint8 _limit_days\n\n    ) public\n        returns (uint256 arbiterId) {\n        // только площадка может создавать или автор контракта\n        // require(msg.sender == sitisServicePlacemarkert || msg.sender == owner, \"not access\");\n        arbiterCount++;\n\n        arbiterStats[arbiterCount] = Arbitration({\n            id: arbiterCount,\n            buyerId : _buyerId,\n            serviceOwner: _serviceOwner,\n            purchasedId: _purchasedId,\n            closed: false,\n            created: now,\n            voitedCount: 0,\n            limit_percent: _limit_percent,\n            limit_days: _limit_days\n        });\n        voitedResults[arbiterCount] = MID_VOTE;\n        emit createdArbitrationEvent(arbiterCount);\n        return arbiterCount;\n    }\n\n    function vote(uint arbitrationId, bool result) public\n    returns (uint16) {\n        validArbiter(arbitrationId);\n        Arbitration storage a = arbiterStats[arbitrationId];\n        require (a.created != 0, \"not created arbitration\");\n\n        a.voitedArbiter[msg.sender] = true;\n        a.voitedCount += 1;\n        require (a.closed == false, \"arbitration closed\");\n\n        if (result){\n            voitedResults[arbitrationId] += 1;\n        } else {\n            voitedResults[arbitrationId] -= 1;\n        }\n        return voitedResults[arbitrationId];\n    }\n\n    // закрыть арбитраж\n    function closeVote(uint arbitrationId) public\n    returns (bool) {\n        validCloseArbitration(arbitrationId);\n        Arbitration storage a = arbiterStats[arbitrationId];\n        a.closed = true;\n        if (a.voitedCount <= 2000){\n            // закрыть покупку, перечислить средства продавцу.\n            // function closePurchase (uint256 _purchaseId)\n            // TODO: возможно вызов наджо переписать вотт так\n            //  if (!addressB.call.gas(0).value(1 ether)(bytes4(sha3(\"getX()\")))) {\n            //  throw;\n            sitisServicePlacemarkert.call.gas(1000000)(\"closePurchase\", a.purchasedId);\n        } else {\n            // отправляем средства покупателю\n            sitisServicePlacemarkert.call.gas(1000000)(\"cancelService\", a.purchasedId);\n        }\n        emit closedArbitrationEvent(arbitrationId);\n    }\n\n    // вычислить процент целочисленный с точностью\n    function percent(uint numerator, uint denominator, uint precision)\n    public view returns(uint quotient) {\n        // caution, check safe-to-multiply here\n        uint _numerator = numerator * 10 ** (precision+1);\n        // with rounding of last digit\n        uint _quotient = ((_numerator / denominator) + 5) / 10;\n        return ( _quotient);\n    }\n    // проголосовал ли арбитер с адресом addr в арбитраже arbiterId\n    function getVoitedArbiter(uint arbiterId, address addr) public view returns (bool) {\n        return arbiterStats[arbiterId].voitedArbiter[addr];\n    }\n\n    function validArbiter(uint arbiterId) public view returns (bool) {\n        // Проверяем что арбитер есть в списке арбитров\n        require(arbiterList[msg.sender] == true, \"not in arbiter list\");\n        // // Проверяем что арбитер еще не отдал голос\n        Arbitration storage a = arbiterStats[arbiterId];\n        require(a.voitedArbiter[msg.sender] == false, \"already voited\");\n        return true;\n    }\n\n    function validCloseArbitration(uint arbiterId) internal view  {\n        require(arbiterId <= arbiterCount && arbiterId > 0, \"not valid Id\");\n        Arbitration storage a = arbiterStats[arbiterId];\n        uint percenVoited = percent(a.voitedCount, arbiterListCount, 3);\n        uint diff = (now - a.created) / 60 / 60 / 24;  // days\n        uint _limit_percent = a.limit_percent * 10;\n        require(percenVoited > _limit_percent  && diff <= a.limit_days, \"not enough voited\");\n    }\n}\n",
  "sourcePath": "/home/sok/code/test_dapp/contracts/SitisArbitration.sol",
  "compiler": {
    "name": "solc",
    "version": "0.4.24+commit.e67f0147.Emscripten.clang"
  },
  "schemaVersion": "2.0.1",
  "updatedAt": "2018-08-19T05:28:09.272Z"
}